{
  "_format": "hh-sol-artifact-1",
  "contractName": "Campaign",
  "sourceName": "contracts/Campaign.sol",
  "abi": [
    {
      "inputs": [
        {
          "internalType": "address",
          "name": "_owner",
          "type": "address"
        },
        {
          "internalType": "string",
          "name": "_campaignCID",
          "type": "string"
        },
        {
          "internalType": "uint256",
          "name": "_createdAt",
          "type": "uint256"
        },
        {
          "internalType": "uint256",
          "name": "_target",
          "type": "uint256"
        },
        {
          "internalType": "uint256",
          "name": "_id",
          "type": "uint256"
        }
      ],
      "stateMutability": "nonpayable",
      "type": "constructor"
    },
    {
      "inputs": [],
      "name": "campaignCID",
      "outputs": [
        {
          "internalType": "string",
          "name": "",
          "type": "string"
        }
      ],
      "stateMutability": "view",
      "type": "function"
    },
    {
      "inputs": [],
      "name": "createdAt",
      "outputs": [
        {
          "internalType": "uint256",
          "name": "",
          "type": "uint256"
        }
      ],
      "stateMutability": "view",
      "type": "function"
    },
    {
      "inputs": [],
      "name": "id",
      "outputs": [
        {
          "internalType": "uint256",
          "name": "",
          "type": "uint256"
        }
      ],
      "stateMutability": "view",
      "type": "function"
    },
    {
      "inputs": [],
      "name": "owner",
      "outputs": [
        {
          "internalType": "address",
          "name": "",
          "type": "address"
        }
      ],
      "stateMutability": "view",
      "type": "function"
    },
    {
      "inputs": [],
      "name": "raisedFunds",
      "outputs": [
        {
          "internalType": "uint256",
          "name": "",
          "type": "uint256"
        }
      ],
      "stateMutability": "view",
      "type": "function"
    },
    {
      "inputs": [],
      "name": "target",
      "outputs": [
        {
          "internalType": "uint256",
          "name": "",
          "type": "uint256"
        }
      ],
      "stateMutability": "view",
      "type": "function"
    },
    {
      "inputs": [
        {
          "internalType": "uint256",
          "name": "amount",
          "type": "uint256"
        }
      ],
      "name": "withdraw",
      "outputs": [],
      "stateMutability": "nonpayable",
      "type": "function"
    },
    {
      "stateMutability": "payable",
      "type": "receive"
    }
  ],
  "bytecode": "0x608060405234801561001057600080fd5b5060405161063c38038061063c83398101604081905261002f91610126565b60008054610100600160a81b0319166101006001600160a01b038816021790558351610062906001906020870190610077565b506003929092556005556002555061026c9050565b82805461008390610231565b90600052602060002090601f0160209004810192826100a557600085556100eb565b82601f106100be57805160ff19168380011785556100eb565b828001600101855582156100eb579182015b828111156100eb5782518255916020019190600101906100d0565b506100f79291506100fb565b5090565b5b808211156100f757600081556001016100fc565b634e487b7160e01b600052604160045260246000fd5b600080600080600060a0868803121561013e57600080fd5b85516001600160a01b038116811461015557600080fd5b602087810151919650906001600160401b038082111561017457600080fd5b818901915089601f83011261018857600080fd5b81518181111561019a5761019a610110565b604051601f8201601f19908116603f011681019083821181831017156101c2576101c2610110565b816040528281528c868487010111156101da57600080fd5b600093505b828410156101fc57848401860151818501870152928501926101df565b8284111561020d5760008684830101525b60408c015160608d01516080909d01519b9e919d509b9a9950975050505050505050565b600181811c9082168061024557607f821691505b6020821081141561026657634e487b7160e01b600052602260045260246000fd5b50919050565b6103c18061027b6000396000f3fe6080604052600436106100745760003560e01c8063af640d0f1161004e578063af640d0f1461010a578063cf09e0d01461012e578063d4b8399214610144578063dfb8dca91461015a57600080fd5b80632e1a7d4d1461008057806339c80ab1146100a25780638da5cb5b146100cd57600080fd5b3661007b57005b600080fd5b34801561008c57600080fd5b506100a061009b3660046102e2565b610170565b005b3480156100ae57600080fd5b506100b7610254565b6040516100c491906102fb565b60405180910390f35b3480156100d957600080fd5b506000546100f29061010090046001600160a01b031681565b6040516001600160a01b0390911681526020016100c4565b34801561011657600080fd5b5061012060025481565b6040519081526020016100c4565b34801561013a57600080fd5b5061012060035481565b34801561015057600080fd5b5061012060055481565b34801561016657600080fd5b5061012060045481565b60005461010090046001600160a01b031632146101cc5760405162461bcd60e51b81526020600482015260156024820152743cb7ba9030b932903737ba103a34329037bbb732b960591b60448201526064015b60405180910390fd5b478111156102135760405162461bcd60e51b8152602060048201526014602482015273496e73756666696369656e742062616c616e636560601b60448201526064016101c3565b600080546040516101009091046001600160a01b0316916108fc841502918491818181858888f19350505050158015610250573d6000803e3d6000fd5b5050565b6001805461026190610350565b80601f016020809104026020016040519081016040528092919081815260200182805461028d90610350565b80156102da5780601f106102af576101008083540402835291602001916102da565b820191906000526020600020905b8154815290600101906020018083116102bd57829003601f168201915b505050505081565b6000602082840312156102f457600080fd5b5035919050565b600060208083528351808285015260005b818110156103285785810183015185820160400152820161030c565b8181111561033a576000604083870101525b50601f01601f1916929092016040019392505050565b600181811c9082168061036457607f821691505b6020821081141561038557634e487b7160e01b600052602260045260246000fd5b5091905056fea264697066735822122005f24d18c03b626f318e4f4da81d5c8addad23fd9c9798394b4fc10a12b7847e64736f6c63430008090033",
  "linkReferences": {},
  "deployedLinkReferences": {}
}