{
  "_format": "hh-sol-artifact-1",
  "contractName": "CampaignSatellite",
  "sourceName": "contracts/CampaignSatellite.sol",
  "abi": [
    {
      "inputs": [
        {
          "internalType": "string",
          "name": "_hubChain",
          "type": "string"
        },
        {
          "internalType": "address",
          "name": "_hubChainAddr",
          "type": "address"
        },
        {
          "internalType": "address",
          "name": "_gateway",
          "type": "address"
        },
        {
          "internalType": "address",
          "name": "_gasService",
          "type": "address"
        },
        {
          "internalType": "uint256",
          "name": "_targetSecondsPerBlock",
          "type": "uint256"
        }
      ],
      "stateMutability": "payable",
      "type": "constructor"
    },
    {
      "inputs": [],
      "name": "AlreadyInitialized",
      "type": "error"
    },
    {
      "inputs": [],
      "name": "InvalidAddress",
      "type": "error"
    },
    {
      "inputs": [],
      "name": "InvalidCodeHash",
      "type": "error"
    },
    {
      "inputs": [],
      "name": "InvalidImplementation",
      "type": "error"
    },
    {
      "inputs": [],
      "name": "InvalidOwner",
      "type": "error"
    },
    {
      "inputs": [],
      "name": "NotApprovedByGateway",
      "type": "error"
    },
    {
      "inputs": [],
      "name": "NotOwner",
      "type": "error"
    },
    {
      "inputs": [],
      "name": "NotProxy",
      "type": "error"
    },
    {
      "inputs": [],
      "name": "NotSigner",
      "type": "error"
    },
    {
      "inputs": [],
      "name": "SetupFailed",
      "type": "error"
    },
    {
      "anonymous": false,
      "inputs": [
        {
          "indexed": true,
          "internalType": "address",
          "name": "newOwner",
          "type": "address"
        }
      ],
      "name": "OwnershipTransferStarted",
      "type": "event"
    },
    {
      "anonymous": false,
      "inputs": [
        {
          "indexed": true,
          "internalType": "address",
          "name": "newOwner",
          "type": "address"
        }
      ],
      "name": "OwnershipTransferred",
      "type": "event"
    },
    {
      "anonymous": false,
      "inputs": [
        {
          "indexed": true,
          "internalType": "address",
          "name": "newImplementation",
          "type": "address"
        }
      ],
      "name": "Upgraded",
      "type": "event"
    },
    {
      "inputs": [],
      "name": "acceptOwnership",
      "outputs": [],
      "stateMutability": "nonpayable",
      "type": "function"
    },
    {
      "inputs": [
        {
          "internalType": "uint256",
          "name": "",
          "type": "uint256"
        }
      ],
      "name": "allCampaignAddresses",
      "outputs": [
        {
          "internalType": "address",
          "name": "",
          "type": "address"
        }
      ],
      "stateMutability": "view",
      "type": "function"
    },
    {
      "inputs": [
        {
          "internalType": "uint256",
          "name": "",
          "type": "uint256"
        }
      ],
      "name": "allCampaignData",
      "outputs": [
        {
          "internalType": "address",
          "name": "campaignAddress",
          "type": "address"
        },
        {
          "internalType": "uint256",
          "name": "campaignId",
          "type": "uint256"
        },
        {
          "internalType": "uint256",
          "name": "timeCampaignStarted",
          "type": "uint256"
        },
        {
          "internalType": "string",
          "name": "campaignCID",
          "type": "string"
        },
        {
          "internalType": "bool",
          "name": "campaignFinished",
          "type": "bool"
        },
        {
          "internalType": "address",
          "name": "campaignOwner",
          "type": "address"
        }
      ],
      "stateMutability": "view",
      "type": "function"
    },
    {
      "inputs": [
        {
          "internalType": "uint256",
          "name": "",
          "type": "uint256"
        }
      ],
      "name": "allCampaignIds",
      "outputs": [
        {
          "internalType": "uint256",
          "name": "",
          "type": "uint256"
        }
      ],
      "stateMutability": "view",
      "type": "function"
    },
    {
      "inputs": [
        {
          "internalType": "uint256",
          "name": "",
          "type": "uint256"
        }
      ],
      "name": "allSpokeDonors",
      "outputs": [
        {
          "internalType": "address",
          "name": "donorAddress",
          "type": "address"
        },
        {
          "internalType": "uint256",
          "name": "amountDonated",
          "type": "uint256"
        }
      ],
      "stateMutability": "view",
      "type": "function"
    },
    {
      "inputs": [
        {
          "internalType": "address",
          "name": "",
          "type": "address"
        }
      ],
      "name": "campaignAddrToIds",
      "outputs": [
        {
          "internalType": "uint256",
          "name": "",
          "type": "uint256"
        }
      ],
      "stateMutability": "view",
      "type": "function"
    },
    {
      "inputs": [
        {
          "internalType": "uint256",
          "name": "",
          "type": "uint256"
        }
      ],
      "name": "campaignDonationData",
      "outputs": [
        {
          "internalType": "uint256",
          "name": "raisedFunds",
          "type": "uint256"
        }
      ],
      "stateMutability": "view",
      "type": "function"
    },
    {
      "inputs": [
        {
          "internalType": "uint256",
          "name": "",
          "type": "uint256"
        }
      ],
      "name": "campaignIdToCampaigns",
      "outputs": [
        {
          "internalType": "address",
          "name": "campaignAddress",
          "type": "address"
        },
        {
          "internalType": "uint256",
          "name": "campaignId",
          "type": "uint256"
        },
        {
          "internalType": "uint256",
          "name": "timeCampaignStarted",
          "type": "uint256"
        },
        {
          "internalType": "string",
          "name": "campaignCID",
          "type": "string"
        },
        {
          "internalType": "bool",
          "name": "campaignFinished",
          "type": "bool"
        },
        {
          "internalType": "address",
          "name": "campaignOwner",
          "type": "address"
        }
      ],
      "stateMutability": "view",
      "type": "function"
    },
    {
      "inputs": [
        {
          "internalType": "uint256",
          "name": "",
          "type": "uint256"
        }
      ],
      "name": "campaignIdToOwner",
      "outputs": [
        {
          "internalType": "address",
          "name": "",
          "type": "address"
        }
      ],
      "stateMutability": "view",
      "type": "function"
    },
    {
      "inputs": [],
      "name": "chainName",
      "outputs": [
        {
          "internalType": "string",
          "name": "",
          "type": "string"
        }
      ],
      "stateMutability": "view",
      "type": "function"
    },
    {
      "inputs": [],
      "name": "contractId",
      "outputs": [
        {
          "internalType": "bytes32",
          "name": "",
          "type": "bytes32"
        }
      ],
      "stateMutability": "pure",
      "type": "function"
    },
    {
      "inputs": [
        {
          "internalType": "uint256",
          "name": "_campaignId",
          "type": "uint256"
        },
        {
          "internalType": "bytes",
          "name": "payload",
          "type": "bytes"
        },
        {
          "internalType": "bytes",
          "name": "signature",
          "type": "bytes"
        }
      ],
      "name": "crossChainDonate",
      "outputs": [
        {
          "internalType": "bool",
          "name": "",
          "type": "bool"
        }
      ],
      "stateMutability": "payable",
      "type": "function"
    },
    {
      "inputs": [
        {
          "internalType": "bytes32",
          "name": "commandId",
          "type": "bytes32"
        },
        {
          "internalType": "string",
          "name": "sourceChain",
          "type": "string"
        },
        {
          "internalType": "string",
          "name": "sourceAddress",
          "type": "string"
        },
        {
          "internalType": "bytes",
          "name": "payload",
          "type": "bytes"
        }
      ],
      "name": "execute",
      "outputs": [],
      "stateMutability": "nonpayable",
      "type": "function"
    },
    {
      "inputs": [
        {
          "internalType": "bytes32",
          "name": "commandId",
          "type": "bytes32"
        },
        {
          "internalType": "string",
          "name": "sourceChain",
          "type": "string"
        },
        {
          "internalType": "string",
          "name": "sourceAddress",
          "type": "string"
        },
        {
          "internalType": "bytes",
          "name": "payload",
          "type": "bytes"
        },
        {
          "internalType": "string",
          "name": "tokenSymbol",
          "type": "string"
        },
        {
          "internalType": "uint256",
          "name": "amount",
          "type": "uint256"
        }
      ],
      "name": "executeWithToken",
      "outputs": [],
      "stateMutability": "nonpayable",
      "type": "function"
    },
    {
      "inputs": [],
      "name": "gasService",
      "outputs": [
        {
          "internalType": "contract IAxelarGasService",
          "name": "",
          "type": "address"
        }
      ],
      "stateMutability": "view",
      "type": "function"
    },
    {
      "inputs": [],
      "name": "gateway",
      "outputs": [
        {
          "internalType": "contract IAxelarGateway",
          "name": "",
          "type": "address"
        }
      ],
      "stateMutability": "view",
      "type": "function"
    },
    {
      "inputs": [],
      "name": "getAllCampaignData",
      "outputs": [
        {
          "components": [
            {
              "internalType": "address",
              "name": "campaignAddress",
              "type": "address"
            },
            {
              "internalType": "uint256",
              "name": "campaignId",
              "type": "uint256"
            },
            {
              "internalType": "uint256",
              "name": "timeCampaignStarted",
              "type": "uint256"
            },
            {
              "internalType": "string",
              "name": "campaignCID",
              "type": "string"
            },
            {
              "internalType": "bool",
              "name": "campaignFinished",
              "type": "bool"
            },
            {
              "internalType": "address",
              "name": "campaignOwner",
              "type": "address"
            }
          ],
          "internalType": "struct CampaignSatellite.RemoteCampaign[]",
          "name": "",
          "type": "tuple[]"
        }
      ],
      "stateMutability": "view",
      "type": "function"
    },
    {
      "inputs": [],
      "name": "getAllCampaignIds",
      "outputs": [
        {
          "internalType": "uint256[]",
          "name": "_allCampaignIds",
          "type": "uint256[]"
        }
      ],
      "stateMutability": "view",
      "type": "function"
    },
    {
      "inputs": [
        {
          "internalType": "uint256",
          "name": "_campaignId",
          "type": "uint256"
        }
      ],
      "name": "getCampaignOwner",
      "outputs": [
        {
          "internalType": "address",
          "name": "owner",
          "type": "address"
        }
      ],
      "stateMutability": "view",
      "type": "function"
    },
    {
      "inputs": [
        {
          "internalType": "bytes32",
          "name": "_payloadHash",
          "type": "bytes32"
        }
      ],
      "name": "getEthSignedPayloadHash",
      "outputs": [
        {
          "internalType": "bytes32",
          "name": "",
          "type": "bytes32"
        }
      ],
      "stateMutability": "pure",
      "type": "function"
    },
    {
      "inputs": [
        {
          "internalType": "uint256",
          "name": "_campaignId",
          "type": "uint256"
        }
      ],
      "name": "getParticularCampaign",
      "outputs": [
        {
          "internalType": "address",
          "name": "_campaign",
          "type": "address"
        }
      ],
      "stateMutability": "view",
      "type": "function"
    },
    {
      "inputs": [
        {
          "internalType": "uint256",
          "name": "_proposalId",
          "type": "uint256"
        }
      ],
      "name": "getParticularCampaignData",
      "outputs": [
        {
          "components": [
            {
              "internalType": "address",
              "name": "campaignAddress",
              "type": "address"
            },
            {
              "internalType": "uint256",
              "name": "campaignId",
              "type": "uint256"
            },
            {
              "internalType": "uint256",
              "name": "timeCampaignStarted",
              "type": "uint256"
            },
            {
              "internalType": "string",
              "name": "campaignCID",
              "type": "string"
            },
            {
              "internalType": "bool",
              "name": "campaignFinished",
              "type": "bool"
            },
            {
              "internalType": "address",
              "name": "campaignOwner",
              "type": "address"
            }
          ],
          "internalType": "struct CampaignSatellite.RemoteCampaign",
          "name": "campaignData",
          "type": "tuple"
        }
      ],
      "stateMutability": "view",
      "type": "function"
    },
    {
      "inputs": [
        {
          "internalType": "address",
          "name": "campaign",
          "type": "address"
        }
      ],
      "name": "getParticularCampaignId",
      "outputs": [
        {
          "internalType": "uint256",
          "name": "_campaignId",
          "type": "uint256"
        }
      ],
      "stateMutability": "view",
      "type": "function"
    },
    {
      "inputs": [
        {
          "internalType": "bytes",
          "name": "_payload",
          "type": "bytes"
        }
      ],
      "name": "getPayloadHash",
      "outputs": [
        {
          "internalType": "bytes32",
          "name": "",
          "type": "bytes32"
        }
      ],
      "stateMutability": "pure",
      "type": "function"
    },
    {
      "inputs": [],
      "name": "hubChain",
      "outputs": [
        {
          "internalType": "string",
          "name": "",
          "type": "string"
        }
      ],
      "stateMutability": "view",
      "type": "function"
    },
    {
      "inputs": [],
      "name": "hubChainAddr",
      "outputs": [
        {
          "internalType": "address",
          "name": "",
          "type": "address"
        }
      ],
      "stateMutability": "view",
      "type": "function"
    },
    {
      "inputs": [
        {
          "internalType": "uint256",
          "name": "",
          "type": "uint256"
        }
      ],
      "name": "idToCampaignAddress",
      "outputs": [
        {
          "internalType": "address",
          "name": "",
          "type": "address"
        }
      ],
      "stateMutability": "view",
      "type": "function"
    },
    {
      "inputs": [],
      "name": "implementation",
      "outputs": [
        {
          "internalType": "address",
          "name": "implementation_",
          "type": "address"
        }
      ],
      "stateMutability": "view",
      "type": "function"
    },
    {
      "inputs": [
        {
          "internalType": "uint256",
          "name": "_campaignId",
          "type": "uint256"
        }
      ],
      "name": "isCampaign",
      "outputs": [
        {
          "internalType": "bool",
          "name": "",
          "type": "bool"
        }
      ],
      "stateMutability": "view",
      "type": "function"
    },
    {
      "inputs": [],
      "name": "owner",
      "outputs": [
        {
          "internalType": "address",
          "name": "owner_",
          "type": "address"
        }
      ],
      "stateMutability": "view",
      "type": "function"
    },
    {
      "inputs": [],
      "name": "pendingOwner",
      "outputs": [
        {
          "internalType": "address",
          "name": "owner_",
          "type": "address"
        }
      ],
      "stateMutability": "view",
      "type": "function"
    },
    {
      "inputs": [
        {
          "internalType": "bytes32",
          "name": "ethSignedPayloadHash",
          "type": "bytes32"
        },
        {
          "internalType": "bytes",
          "name": "_signature",
          "type": "bytes"
        }
      ],
      "name": "recover",
      "outputs": [
        {
          "internalType": "address",
          "name": "",
          "type": "address"
        }
      ],
      "stateMutability": "pure",
      "type": "function"
    },
    {
      "inputs": [
        {
          "internalType": "bytes",
          "name": "data",
          "type": "bytes"
        }
      ],
      "name": "setup",
      "outputs": [],
      "stateMutability": "nonpayable",
      "type": "function"
    },
    {
      "inputs": [],
      "name": "targetSecondsPerBlock",
      "outputs": [
        {
          "internalType": "uint256",
          "name": "",
          "type": "uint256"
        }
      ],
      "stateMutability": "view",
      "type": "function"
    },
    {
      "inputs": [
        {
          "internalType": "address",
          "name": "newOwner",
          "type": "address"
        }
      ],
      "name": "transferOwnership",
      "outputs": [],
      "stateMutability": "nonpayable",
      "type": "function"
    },
    {
      "inputs": [
        {
          "internalType": "address",
          "name": "newImplementation",
          "type": "address"
        },
        {
          "internalType": "bytes32",
          "name": "newImplementationCodeHash",
          "type": "bytes32"
        },
        {
          "internalType": "bytes",
          "name": "params",
          "type": "bytes"
        }
      ],
      "name": "upgrade",
      "outputs": [],
      "stateMutability": "nonpayable",
      "type": "function"
    },
    {
      "inputs": [
        {
          "internalType": "address",
          "name": "_signer",
          "type": "address"
        },
        {
          "internalType": "bytes",
          "name": "_payload",
          "type": "bytes"
        },
        {
          "internalType": "bytes",
          "name": "_signature",
          "type": "bytes"
        }
      ],
      "name": "verify",
      "outputs": [
        {
          "internalType": "bool",
          "name": "",
          "type": "bool"
        }
      ],
      "stateMutability": "pure",
      "type": "function"
    },
    {
      "stateMutability": "payable",
      "type": "receive"
    }
  ],
  "bytecode": "0x6101606040819052632096846d60e21b60e0526393d032d560e01b6101005263a4a7b0f760e01b610120526312789d3b60e11b6101405262002fc7388190039081908339810160408190526200005591620001ad565b826001600160a01b0381166200007e5760405163e6c4247b60e01b815260040160405180910390fd5b6001600160a01b03908116608052821660a0528451620000a6906001906020880190620000d4565b50600280546001600160a01b0319166001600160a01b039590951694909417909355505060c052506200030a565b828054620000e290620002cd565b90600052602060002090601f01602090048101928262000106576000855562000151565b82601f106200012157805160ff191683800117855562000151565b8280016001018555821562000151579182015b828111156200015157825182559160200191906001019062000134565b506200015f92915062000163565b5090565b5b808211156200015f576000815560010162000164565b634e487b7160e01b600052604160045260246000fd5b80516001600160a01b0381168114620001a857600080fd5b919050565b600080600080600060a08688031215620001c657600080fd5b85516001600160401b0380821115620001de57600080fd5b818801915088601f830112620001f357600080fd5b8151818111156200020857620002086200017a565b604051601f8201601f19908116603f011681019083821181831017156200023357620002336200017a565b81604052828152602093508b848487010111156200025057600080fd5b600091505b8282101562000274578482018401518183018501529083019062000255565b82821115620002865760008484830101525b98506200029891505088820162000190565b95505050620002aa6040870162000190565b9250620002ba6060870162000190565b9150608086015190509295509295909350565b600181811c90821680620002e257607f821691505b602082108114156200030457634e487b7160e01b600052602260045260246000fd5b50919050565b60805160a05160c05160e051610100516101205161014051612c45620003826000396000505060005050600061169c015260006116e70152600081816103750152611b170152600081816105160152611eb00152600081816102a20152818161096901528181610b820152611f3e0152612c456000f3fe60806040526004361061021e5760003560e01c806379ba509711610123578063b5023e62116100ab578063ee835ae41161006f578063ee835ae414610766578063f1215c571461079c578063f2fde38b146107bc578063f3ad5eb3146107dc578063fb0993c81461080957600080fd5b8063b5023e62146106a1578063c76b9c7f146106ce578063d345627814610704578063e30c397814610724578063e7e89ebc1461074657600080fd5b80639ba6c346116100f25780639ba6c3461461060a5780639dd0cc161461062a5780639ded06df1461063f578063a3499c731461065f578063b37b00031461067f57600080fd5b806379ba50971461056a5780638291286c1461057f5780638da5cb5b146105b25780638f1eb095146105d457600080fd5b80633abdbed2116101a65780635ade6633116101755780635ade6633146104835780635c60da1b146104a357806360addfc7146104d75780636a22d8cc14610504578063715ce4481461053857600080fd5b80633abdbed2146103c5578063445056ce146103fb57806349160658146104315780635829d2371461045157600080fd5b80631a98b2e0116101ed5780631a98b2e0146102fc5780631c93b03a1461031e578063301324ad1461034057806332d0c46d1461036357806333abe58e146103a557600080fd5b806303184f581461022a578063041824961461026e578063116191b61461029057806319045a25146102dc57600080fd5b3661022557005b600080fd5b34801561023657600080fd5b5061024a6102453660046120e7565b610829565b604080516001600160a01b0390931683526020830191909152015b60405180910390f35b34801561027a57600080fd5b50610283610861565b6040516102659190612100565b34801561029c57600080fd5b506102c47f000000000000000000000000000000000000000000000000000000000000000081565b6040516001600160a01b039091168152602001610265565b3480156102e857600080fd5b506102c46102f73660046121e7565b6108b9565b34801561030857600080fd5b5061031c610317366004612277565b610938565b005b34801561032a57600080fd5b50610333610a2a565b60405161026591906123a9565b61035361034e3660046123bc565b610ab8565b6040519015158152602001610265565b34801561036f57600080fd5b506103977f000000000000000000000000000000000000000000000000000000000000000081565b604051908152602001610265565b3480156103b157600080fd5b506002546102c4906001600160a01b031681565b3480156103d157600080fd5b506103976103e0366004612441565b6001600160a01b031660009081526007602052604090205490565b34801561040757600080fd5b506102c46104163660046120e7565b6008602052600090815260409020546001600160a01b031681565b34801561043d57600080fd5b5061031c61044c36600461245e565b610b51565b34801561045d57600080fd5b5061047161046c3660046120e7565b610c48565b60405161026596959493929190612502565b34801561048f57600080fd5b5061035361049e36600461254b565b610d1f565b3480156104af57600080fd5b507f360894a13ba1a3210667c828492db98dca3e2076cc3735a920a3ca505d382bbc546102c4565b3480156104e357600080fd5b506103976104f23660046120e7565b60056020526000908152604090205481565b34801561051057600080fd5b506102c47f000000000000000000000000000000000000000000000000000000000000000081565b34801561054457600080fd5b506103536105533660046120e7565b600090815260046020526040902060020154151590565b34801561057657600080fd5b5061031c610d62565b34801561058b57600080fd5b507f6fd43e7cffc31bb581d7421c8698e29aa2bd8e7186a394b85299908b4eb9b175610397565b3480156105be57600080fd5b50600080516020612bd0833981519152546102c4565b3480156105e057600080fd5b506102c46105ef3660046120e7565b6006602052600090815260409020546001600160a01b031681565b34801561061657600080fd5b50610397610625366004612588565b610dfd565b34801561063657600080fd5b50610333610e2d565b34801561064b57600080fd5b5061031c61065a3660046125c5565b610e3a565b34801561066b57600080fd5b5061031c61067a366004612607565b610e9a565b34801561068b57600080fd5b5061069461112c565b60405161026591906126c4565b3480156106ad57600080fd5b506106c16106bc3660046120e7565b611276565b6040516102659190612726565b3480156106da57600080fd5b506102c46106e93660046120e7565b6000908152600660205260409020546001600160a01b031690565b34801561071057600080fd5b5061039761071f3660046120e7565b6113a5565b34801561073057600080fd5b50600080516020612bf0833981519152546102c4565b34801561075257600080fd5b506103976107613660046120e7565b6113c6565b34801561077257600080fd5b506102c46107813660046120e7565b6000908152600860205260409020546001600160a01b031690565b3480156107a857600080fd5b506102c46107b73660046120e7565b611401565b3480156107c857600080fd5b5061031c6107d7366004612441565b61142b565b3480156107e857600080fd5b506103976107f7366004612441565b60076020526000908152604090205481565b34801561081557600080fd5b506104716108243660046120e7565b6114af565b600b818154811061083957600080fd5b6000918252602090912060029091020180546001909101546001600160a01b03909116915082565b606060038054806020026020016040519081016040528092919081815260200182805480156108af57602002820191906000526020600020905b81548152602001906001019080831161089b575b5050505050905090565b6000806000806108c8856114fe565b6040805160008152602081018083528b905260ff8316918101919091526060810184905260808101839052929550909350915060019060a0016020604051602081039080840390855afa158015610923573d6000803e3d6000fd5b5050604051601f190151979650505050505050565b6000858560405161094a929190612739565b604051908190038120631876eed960e01b825291506001600160a01b037f00000000000000000000000000000000000000000000000000000000000000001690631876eed9906109ae908e908e908e908e908e9089908d908d908d90600401612772565b602060405180830381600087803b1580156109c857600080fd5b505af11580156109dc573d6000803e3d6000fd5b505050506040513d601f19601f82011682018060405250810190610a0091906127df565b610a1d57604051631403112d60e21b815260040160405180910390fd5b5050505050505050505050565b60008054610a37906127fc565b80601f0160208091040260200160405190810160405280929190818152602001828054610a63906127fc565b8015610ab05780601f10610a8557610100808354040283529160200191610ab0565b820191906000526020600020905b815481529060010190602001808311610a9357829003601f168201915b505050505081565b600083815260046020526040812060020154610b125760405162461bcd60e51b81526020600482015260146024820152733737ba1030903b30b634b21031b0b6b830b4b3b760611b60448201526064015b60405180910390fd5b336000610b20828686610d1f565b90508015610b31579150610b4a9050565b60405163143606b960e31b815260040160405180910390fd5b9392505050565b60008282604051610b63929190612739565b604051908190038120635f6970c360e01b825291506001600160a01b037f00000000000000000000000000000000000000000000000000000000000000001690635f6970c390610bc1908b908b908b908b908b908990600401612837565b602060405180830381600087803b158015610bdb57600080fd5b505af1158015610bef573d6000803e3d6000fd5b505050506040513d601f19601f82011682018060405250810190610c1391906127df565b610c3057604051631403112d60e21b815260040160405180910390fd5b610c3e878787878787611572565b5050505050505050565b60046020526000908152604090208054600182015460028301546003840180546001600160a01b03909416949293919291610c82906127fc565b80601f0160208091040260200160405190810160405280929190818152602001828054610cae906127fc565b8015610cfb5780601f10610cd057610100808354040283529160200191610cfb565b820191906000526020600020905b815481529060010190602001808311610cde57829003601f168201915b5050506004909301549192505060ff8116906001600160a01b036101009091041686565b600080610d2b84610dfd565b90506000610d38826113c6565b9050856001600160a01b0316610d4e82866108b9565b6001600160a01b0316149695505050505050565b6000610d7a600080516020612bf08339815191525490565b90506001600160a01b0381163314610da5576040516349e27cff60e01b815260040160405180910390fd5b6040516001600160a01b038216907f04dba622d284ed0014ee4b9a6a68386be1a4c08a4913ae272de89199cc68616390600090a26000600080516020612bf083398151915255600080516020612bd083398151915255565b600081604051602001610e109190612878565b604051602081830303815290604052805190602001209050919050565b60018054610a37906127fc565b6000610e647f360894a13ba1a3210667c828492db98dca3e2076cc3735a920a3ca505d382bbc5490565b6001600160a01b03161415610e8c57604051635f886e9d60e11b815260040160405180910390fd5b610e9682826117c3565b5050565b33610eb1600080516020612bd08339815191525490565b6001600160a01b031614610ed8576040516330cd747160e01b815260040160405180910390fd5b306001600160a01b0316638291286c6040518163ffffffff1660e01b815260040160206040518083038186803b158015610f1157600080fd5b505afa158015610f25573d6000803e3d6000fd5b505050506040513d601f19601f82011682018060405250810190610f499190612894565b846001600160a01b0316638291286c6040518163ffffffff1660e01b815260040160206040518083038186803b158015610f8257600080fd5b505afa158015610f96573d6000803e3d6000fd5b505050506040513d601f19601f82011682018060405250810190610fba9190612894565b14610fd85760405163340aafcd60e11b815260040160405180910390fd5b836001600160a01b03163f8314611002576040516323e13ec960e21b815260040160405180910390fd5b80156110d1576000846001600160a01b0316639ded06df60e01b848460405160240161102f9291906128ad565b60408051601f198184030181529181526020820180516001600160e01b03166001600160e01b031990941693909317909252905161106d9190612878565b600060405180830381855af49150503d80600081146110a8576040519150601f19603f3d011682016040523d82523d6000602084013e6110ad565b606091505b50509050806110cf576040516397905dfb60e01b815260040160405180910390fd5b505b6040516001600160a01b038516907fbc7cd75a20ee27fd9adebab32041f755214dbc6bffa90cc0225b39da2e5c2d3b90600090a25050507f360894a13ba1a3210667c828492db98dca3e2076cc3735a920a3ca505d382bbc55565b60606009805480602002602001604051908101604052809291908181526020016000905b8282101561126d5760008481526020908190206040805160c0810182526005860290920180546001600160a01b031683526001810154938301939093526002830154908201526003820180549192916060840191906111ae906127fc565b80601f01602080910402602001604051908101604052809291908181526020018280546111da906127fc565b80156112275780601f106111fc57610100808354040283529160200191611227565b820191906000526020600020905b81548152906001019060200180831161120a57829003601f168201915b50505091835250506004919091015460ff811615156020808401919091526101009091046001600160a01b03166040909201919091529082526001929092019101611150565b50505050905090565b6040805160c080820183526000808352602080840182905283850182905260608085018190526080850183905260a0850183905286835260048252918590208551938401865280546001600160a01b0316845260018101549184019190915260028101549483019490945260038401805493949293918401916112f8906127fc565b80601f0160208091040260200160405190810160405280929190818152602001828054611324906127fc565b80156113715780601f1061134657610100808354040283529160200191611371565b820191906000526020600020905b81548152906001019060200180831161135457829003601f168201915b50505091835250506004919091015460ff81161515602083015261010090046001600160a01b031660409091015292915050565b600381815481106113b557600080fd5b600091825260209091200154905081565b6040517f19457468657265756d205369676e6564204d6573736167653a0a3332000000006020820152603c8101829052600090605c01610e10565b600a818154811061141157600080fd5b6000918252602090912001546001600160a01b0316905081565b33611442600080516020612bd08339815191525490565b6001600160a01b031614611469576040516330cd747160e01b815260040160405180910390fd5b6040516001600160a01b038216907fd9be0e8e07417e00f2521db636cb53e316fd288f5051f16d2aa2bf0c3938a87690600090a2600080516020612bf083398151915255565b600981815481106114bf57600080fd5b600091825260209091206005909102018054600182015460028301546003840180546001600160a01b03909416955091939092909190610c82906127fc565b600080600083516041146115545760405162461bcd60e51b815260206004820152601860248201527f696e76616c6964207369676e6174757265206c656e67746800000000000000006044820152606401610b09565b50505060208101516040820151606090920151909260009190911a90565b60025460009061158a906001600160a01b0316611818565b90508060405160200161159d9190612878565b6040516020818303038152906040528051906020012085856040516020016115c6929190612739565b60405160208183030381529060405280519060200120146116435760405162461bcd60e51b815260206004820152603160248201527f4f6e6c79206d657373616765732066726f6d207468652068756220636861696e6044820152702063616e2062652072656365697665642160781b6064820152608401610b09565b36600061165384600481886128c1565b91509150600061169886868080601f016020809104026020016040519081016040528093929190818152602001838380828437600092019190915250611a6392505050565b90507f00000000000000000000000000000000000000000000000000000000000000006001600160e01b031916816001600160e01b03191614156116e5576116e08383611a6a565b6117b7565b7f00000000000000000000000000000000000000000000000000000000000000006001600160e01b031916816001600160e01b0319161415611764576116e088888080601f016020809104026020016040519081016040528093929190818152602001838380828437600092019190915250879250869150611e369050565b60405162461bcd60e51b815260206004820152602260248201527f496e76616c6964207061796c6f61643a206e6f2073656c6563746f72206d61746044820152610c6d60f31b6064820152608401610b09565b50505050505050505050565b60006117d182840184612588565b9050600080546117e0906127fc565b1590506117ff5760405162dc149f60e41b815260040160405180910390fd5b8051611812906000906020840190611fd3565b50505050565b604051606082811b6bffffffffffffffffffffffff191660208301529060009060340160408051601f198184030181528282528051838301909252601083526f181899199a1a9b1b9c1cb0b131b232b360811b60208401528051909350909190600090611886906002612901565b611891906002612920565b67ffffffffffffffff8111156118a9576118a9612144565b6040519080825280601f01601f1916602001820160405280156118d3576020820181803683370190505b509050600360fc1b816000815181106118ee576118ee612938565b60200101906001600160f81b031916908160001a905350600f60fb1b8160018151811061191d5761191d612938565b60200101906001600160f81b031916908160001a90535060005b83811015611a595782600486838151811061195457611954612938565b016020015182516001600160f81b031990911690911c60f81c90811061197c5761197c612938565b01602001516001600160f81b03191682611997836002612901565b6119a2906002612920565b815181106119b2576119b2612938565b60200101906001600160f81b031916908160001a905350828582815181106119dc576119dc612938565b602091010151815160f89190911c600f169081106119fc576119fc612938565b01602001516001600160f81b03191682611a17836002612901565b611a22906003612920565b81518110611a3257611a32612938565b60200101906001600160f81b031916908160001a905350611a528161294e565b9050611937565b5095945050505050565b6020015190565b60008080808080611a7d87890189612969565b955095509550955095509550611aa485600090815260046020526040902060020154151590565b15611b095760405162461bcd60e51b815260206004820152602f60248201527f43616d706169676e204944206d75737420626520756e697175652c20616e642060448201526e1b9bdd08185b1c9958591e481cd95d608a1b6064820152608401610b09565b600042851015611b6f5760007f0000000000000000000000000000000000000000000000000000000000000000611b4087426129f2565b611b4a9190612a09565b905043811015611b6557611b5e81436129f2565b9150611b69565b4391505b50611b72565b50435b6040805160c0810182526001600160a01b03898116825260208083018a8152838501868152606085018a8152891515608087015288851660a087015260008d81526004855296909620855181546001600160a01b0319169516949094178455905160018401555160028301559251805192939192611bf69260038501920190611fd3565b5060808201516004918201805460a0909401516001600160a81b0319909416911515610100600160a81b031916919091176101006001600160a01b039485160217905560038054600181810183557fc2575a0e9e593c00f959f8c92f12db2869c3395a3b0502d05e2516446f71f85b9091018a905560008a815260209390935260408320600980548084018255945280547f6e1540171b6c0c960b71a7020d9f60077f6af931a8bbf590da0223dacf75c7af60059095029485018054919096166001600160a01b0319909116178555908101547f6e1540171b6c0c960b71a7020d9f60077f6af931a8bbf590da0223dacf75c7b084015560028101547f6e1540171b6c0c960b71a7020d9f60077f6af931a8bbf590da0223dacf75c7b184015590810180549193927f6e1540171b6c0c960b71a7020d9f60077f6af931a8bbf590da0223dacf75c7b20191611d4a906127fc565b611d55929190612057565b506004918201805491909201805460ff19811660ff9093161515928317825592546001600160a81b0319909316610100600160a81b031990921691909117610100928390046001600160a01b03908116909302179055600a8054600181019091557fc65a7bb8d6351c1cf70c95a316cc6a92839c986682d98bc35f958f4883f9d2a80180546001600160a01b0319908116998316998a179091556000888152600660209081526040808320805485168d1790559a8252600781528a82208a905598815260089098529790962080549097169190951617909455505050505050565b6000611e44828401846120e7565b6000818152600560205260408082208054915193945092611e6e9185916001860190602401612a2b565b60408051601f198184030181529181526020820180516001600160e01b031663a4a7b0f760e01b17905251630c93e3bb60e01b81529091506001600160a01b037f00000000000000000000000000000000000000000000000000000000000000001690630c93e3bb9067016345785d8a000090611ef89030906001908c9088908490600401612b2e565b6000604051808303818588803b158015611f1157600080fd5b505af1158015611f25573d6000803e3d6000fd5b5050604051631c92115f60e01b81526001600160a01b037f0000000000000000000000000000000000000000000000000000000000000000169350631c92115f9250611f7b91506001908a908690600401612b8c565b600060405180830381600087803b158015611f9557600080fd5b505af1158015611fa9573d6000803e3d6000fd5b50505060009384525050600460208190526040909220909101805460ff1916600117905550505050565b828054611fdf906127fc565b90600052602060002090601f0160209004810192826120015760008555612047565b82601f1061201a57805160ff1916838001178555612047565b82800160010185558215612047579182015b8281111561204757825182559160200191906001019061202c565b506120539291506120d2565b5090565b828054612063906127fc565b90600052602060002090601f0160209004810192826120855760008555612047565b82601f106120965780548555612047565b8280016001018555821561204757600052602060002091601f016020900482015b828111156120475782548255916001019190600101906120b7565b5b8082111561205357600081556001016120d3565b6000602082840312156120f957600080fd5b5035919050565b6020808252825182820181905260009190848201906040850190845b818110156121385783518352928401929184019160010161211c565b50909695505050505050565b634e487b7160e01b600052604160045260246000fd5b600082601f83011261216b57600080fd5b813567ffffffffffffffff8082111561218657612186612144565b604051601f8301601f19908116603f011681019082821181831017156121ae576121ae612144565b816040528381528660208588010111156121c757600080fd5b836020870160208301376000602085830101528094505050505092915050565b600080604083850312156121fa57600080fd5b82359150602083013567ffffffffffffffff81111561221857600080fd5b6122248582860161215a565b9150509250929050565b60008083601f84011261224057600080fd5b50813567ffffffffffffffff81111561225857600080fd5b60208301915083602082850101111561227057600080fd5b9250929050565b60008060008060008060008060008060c08b8d03121561229657600080fd5b8a35995060208b013567ffffffffffffffff808211156122b557600080fd5b6122c18e838f0161222e565b909b50995060408d01359150808211156122da57600080fd5b6122e68e838f0161222e565b909950975060608d01359150808211156122ff57600080fd5b61230b8e838f0161222e565b909750955060808d013591508082111561232457600080fd5b506123318d828e0161222e565b9150809450508092505060a08b013590509295989b9194979a5092959850565b60005b8381101561236c578181015183820152602001612354565b838111156118125750506000910152565b60008151808452612395816020860160208601612351565b601f01601f19169290920160200192915050565b602081526000610b4a602083018461237d565b6000806000606084860312156123d157600080fd5b83359250602084013567ffffffffffffffff808211156123f057600080fd5b6123fc8783880161215a565b9350604086013591508082111561241257600080fd5b5061241f8682870161215a565b9150509250925092565b6001600160a01b038116811461243e57600080fd5b50565b60006020828403121561245357600080fd5b8135610b4a81612429565b60008060008060008060006080888a03121561247957600080fd5b87359650602088013567ffffffffffffffff8082111561249857600080fd5b6124a48b838c0161222e565b909850965060408a01359150808211156124bd57600080fd5b6124c98b838c0161222e565b909650945060608a01359150808211156124e257600080fd5b506124ef8a828b0161222e565b989b979a50959850939692959293505050565b600060018060a01b03808916835287602084015286604084015260c0606084015261253060c084018761237d565b94151560808401529290921660a09091015250949350505050565b60008060006060848603121561256057600080fd5b833561256b81612429565b9250602084013567ffffffffffffffff808211156123f057600080fd5b60006020828403121561259a57600080fd5b813567ffffffffffffffff8111156125b157600080fd5b6125bd8482850161215a565b949350505050565b600080602083850312156125d857600080fd5b823567ffffffffffffffff8111156125ef57600080fd5b6125fb8582860161222e565b90969095509350505050565b6000806000806060858703121561261d57600080fd5b843561262881612429565b935060208501359250604085013567ffffffffffffffff81111561264b57600080fd5b6126578782880161222e565b95989497509550505050565b600060018060a01b038083511684526020830151602085015260408301516040850152606083015160c0606086015261269f60c086018261237d565b90506080840151151560808601528160a08501511660a0860152809250505092915050565b6000602080830181845280855180835260408601915060408160051b870101925083870160005b8281101561271957603f19888603018452612707858351612663565b945092850192908501906001016126eb565b5092979650505050505050565b602081526000610b4a6020830184612663565b8183823760009101908152919050565b81835281816020850137506000828201602090810191909152601f909101601f19169091010190565b89815260c06020820152600061278c60c083018a8c612749565b828103604084015261279f81898b612749565b905086606084015282810360808401526127ba818688612749565b9150508260a08301529a9950505050505050505050565b801515811461243e57600080fd5b6000602082840312156127f157600080fd5b8151610b4a816127d1565b600181811c9082168061281057607f821691505b6020821081141561283157634e487b7160e01b600052602260045260246000fd5b50919050565b868152608060208201526000612851608083018789612749565b8281036040840152612864818688612749565b915050826060830152979650505050505050565b6000825161288a818460208701612351565b9190910192915050565b6000602082840312156128a657600080fd5b5051919050565b6020815260006125bd602083018486612749565b600080858511156128d157600080fd5b838611156128de57600080fd5b5050820193919092039150565b634e487b7160e01b600052601160045260246000fd5b600081600019048311821515161561291b5761291b6128eb565b500290565b60008219821115612933576129336128eb565b500190565b634e487b7160e01b600052603260045260246000fd5b6000600019821415612962576129626128eb565b5060010190565b60008060008060008060c0878903121561298257600080fd5b863561298d81612429565b95506020870135945060408701359350606087013567ffffffffffffffff8111156129b757600080fd5b6129c389828a0161215a565b93505060808701356129d4816127d1565b915060a08701356129e481612429565b809150509295509295509295565b600082821015612a0457612a046128eb565b500390565b600082612a2657634e487b7160e01b600052601260045260246000fd5b500490565b60006060820185835260208581850152606060408501528185548084526080860191508660005282600020935060005b81811015612a805784546001600160a01b031683526001948501949284019201612a5b565b509098975050505050505050565b8054600090600181811c9080831680612aa857607f831692505b6020808410821415612aca57634e487b7160e01b600052602260045260246000fd5b83885260208801828015612ae55760018114612af657612b21565b60ff19871682528282019750612b21565b60008981526020902060005b87811015612b1b57815484820152908601908401612b02565b83019850505b5050505050505092915050565b600060018060a01b03808816835260a06020840152612b5060a0840188612a8e565b8381036040850152612b62818861237d565b90508381036060850152612b76818761237d565b9250508084166080840152509695505050505050565b606081526000612b9f6060830186612a8e565b8281036020840152612bb1818661237d565b90508281036040840152612bc5818561237d565b969550505050505056fe02016836a56b71f0d02689e69e326f4f4c1b9057164ef592671cf0d37c8040c09855384122b55936fbfb8ca5120e63c6537a1ac40caf6ae33502b3c5da8c87d1a2646970667358221220e458f8d97f8620dcbcf553595c2979dcdecd7f1a75a5423f2341838dca2baae664736f6c63430008090033",
  "linkReferences": {},
  "deployedLinkReferences": {}
}