{
  "_format": "hh-sol-artifact-1",
  "contractName": "CampaignManager",
  "sourceName": "contracts/CampaignManager.sol",
  "abi": [
    {
      "inputs": [
        {
          "internalType": "address",
          "name": "_gateway",
          "type": "address"
        },
        {
          "internalType": "address",
          "name": "_gasService",
          "type": "address"
        },
        {
          "internalType": "bytes",
          "name": "_spokeChains",
          "type": "bytes"
        },
        {
          "internalType": "bytes",
          "name": "_spokeChainNames",
          "type": "bytes"
        }
      ],
      "stateMutability": "nonpayable",
      "type": "constructor"
    },
    {
      "inputs": [],
      "name": "InvalidAddress",
      "type": "error"
    },
    {
      "inputs": [],
      "name": "NotApprovedByGateway",
      "type": "error"
    },
    {
      "anonymous": false,
      "inputs": [
        {
          "indexed": false,
          "internalType": "uint256",
          "name": "campaignId",
          "type": "uint256"
        }
      ],
      "name": "CampaignCreated",
      "type": "event"
    },
    {
      "anonymous": false,
      "inputs": [
        {
          "indexed": true,
          "internalType": "address",
          "name": "previousOwner",
          "type": "address"
        },
        {
          "indexed": true,
          "internalType": "address",
          "name": "newOwner",
          "type": "address"
        }
      ],
      "name": "OwnershipTransferred",
      "type": "event"
    },
    {
      "inputs": [
        {
          "internalType": "uint256",
          "name": "",
          "type": "uint256"
        }
      ],
      "name": "_ALL_DONORS",
      "outputs": [
        {
          "internalType": "address",
          "name": "donorAddress",
          "type": "address"
        },
        {
          "internalType": "uint256",
          "name": "amountDonated",
          "type": "uint256"
        }
      ],
      "stateMutability": "view",
      "type": "function"
    },
    {
      "inputs": [
        {
          "internalType": "uint256",
          "name": "",
          "type": "uint256"
        }
      ],
      "name": "allCampaignIds",
      "outputs": [
        {
          "internalType": "uint256",
          "name": "",
          "type": "uint256"
        }
      ],
      "stateMutability": "view",
      "type": "function"
    },
    {
      "inputs": [],
      "name": "campaignIdCounter",
      "outputs": [
        {
          "internalType": "uint256",
          "name": "",
          "type": "uint256"
        }
      ],
      "stateMutability": "view",
      "type": "function"
    },
    {
      "inputs": [
        {
          "internalType": "uint256",
          "name": "",
          "type": "uint256"
        },
        {
          "internalType": "uint32",
          "name": "",
          "type": "uint32"
        }
      ],
      "name": "campaignIdToChainIdToSpokeDonationData",
      "outputs": [
        {
          "internalType": "uint256",
          "name": "raisedFunds",
          "type": "uint256"
        },
        {
          "internalType": "bool",
          "name": "initialized",
          "type": "bool"
        }
      ],
      "stateMutability": "view",
      "type": "function"
    },
    {
      "inputs": [
        {
          "internalType": "uint256",
          "name": "",
          "type": "uint256"
        },
        {
          "internalType": "uint256",
          "name": "",
          "type": "uint256"
        }
      ],
      "name": "campaignIdToDonors",
      "outputs": [
        {
          "internalType": "address",
          "name": "donorAddress",
          "type": "address"
        },
        {
          "internalType": "uint256",
          "name": "amountDonated",
          "type": "uint256"
        }
      ],
      "stateMutability": "view",
      "type": "function"
    },
    {
      "inputs": [
        {
          "internalType": "uint256",
          "name": "",
          "type": "uint256"
        }
      ],
      "name": "campaignIdToOwner",
      "outputs": [
        {
          "internalType": "address",
          "name": "",
          "type": "address"
        }
      ],
      "stateMutability": "view",
      "type": "function"
    },
    {
      "inputs": [
        {
          "internalType": "contract Campaign",
          "name": "",
          "type": "address"
        }
      ],
      "name": "campaignToIds",
      "outputs": [
        {
          "internalType": "uint256",
          "name": "",
          "type": "uint256"
        }
      ],
      "stateMutability": "view",
      "type": "function"
    },
    {
      "inputs": [
        {
          "internalType": "uint256",
          "name": "_campaignId",
          "type": "uint256"
        },
        {
          "internalType": "uint256",
          "name": "amount",
          "type": "uint256"
        }
      ],
      "name": "claim",
      "outputs": [],
      "stateMutability": "nonpayable",
      "type": "function"
    },
    {
      "inputs": [
        {
          "internalType": "uint256",
          "name": "",
          "type": "uint256"
        }
      ],
      "name": "collectionFinished",
      "outputs": [
        {
          "internalType": "bool",
          "name": "",
          "type": "bool"
        }
      ],
      "stateMutability": "view",
      "type": "function"
    },
    {
      "inputs": [
        {
          "internalType": "uint256",
          "name": "",
          "type": "uint256"
        }
      ],
      "name": "collectionStarted",
      "outputs": [
        {
          "internalType": "bool",
          "name": "",
          "type": "bool"
        }
      ],
      "stateMutability": "view",
      "type": "function"
    },
    {
      "inputs": [
        {
          "internalType": "string",
          "name": "_campaignCID",
          "type": "string"
        },
        {
          "internalType": "uint256",
          "name": "_target",
          "type": "uint256"
        },
        {
          "internalType": "address",
          "name": "_campaignSatelliteAddr",
          "type": "address"
        },
        {
          "internalType": "uint256[]",
          "name": "spokeChainFees",
          "type": "uint256[]"
        }
      ],
      "name": "createCampaign",
      "outputs": [
        {
          "internalType": "uint256",
          "name": "",
          "type": "uint256"
        }
      ],
      "stateMutability": "payable",
      "type": "function"
    },
    {
      "inputs": [
        {
          "internalType": "uint256",
          "name": "_campaignId",
          "type": "uint256"
        },
        {
          "internalType": "uint256",
          "name": "_amount",
          "type": "uint256"
        }
      ],
      "name": "crossChainDonate",
      "outputs": [],
      "stateMutability": "payable",
      "type": "function"
    },
    {
      "inputs": [
        {
          "internalType": "contract Campaign",
          "name": "",
          "type": "address"
        }
      ],
      "name": "donors",
      "outputs": [
        {
          "internalType": "address",
          "name": "donorAddress",
          "type": "address"
        },
        {
          "internalType": "uint256",
          "name": "amountDonated",
          "type": "uint256"
        }
      ],
      "stateMutability": "view",
      "type": "function"
    },
    {
      "inputs": [],
      "name": "enableWithdrawal",
      "outputs": [
        {
          "internalType": "string",
          "name": "message",
          "type": "string"
        }
      ],
      "stateMutability": "pure",
      "type": "function"
    },
    {
      "inputs": [
        {
          "internalType": "bytes32",
          "name": "commandId",
          "type": "bytes32"
        },
        {
          "internalType": "string",
          "name": "sourceChain",
          "type": "string"
        },
        {
          "internalType": "string",
          "name": "sourceAddress",
          "type": "string"
        },
        {
          "internalType": "bytes",
          "name": "payload",
          "type": "bytes"
        }
      ],
      "name": "execute",
      "outputs": [],
      "stateMutability": "nonpayable",
      "type": "function"
    },
    {
      "inputs": [
        {
          "internalType": "bytes32",
          "name": "commandId",
          "type": "bytes32"
        },
        {
          "internalType": "string",
          "name": "sourceChain",
          "type": "string"
        },
        {
          "internalType": "string",
          "name": "sourceAddress",
          "type": "string"
        },
        {
          "internalType": "bytes",
          "name": "payload",
          "type": "bytes"
        },
        {
          "internalType": "string",
          "name": "tokenSymbol",
          "type": "string"
        },
        {
          "internalType": "uint256",
          "name": "amount",
          "type": "uint256"
        }
      ],
      "name": "executeWithToken",
      "outputs": [],
      "stateMutability": "nonpayable",
      "type": "function"
    },
    {
      "inputs": [
        {
          "internalType": "uint256",
          "name": "_campaignId",
          "type": "uint256"
        }
      ],
      "name": "finishCollectionPhase",
      "outputs": [],
      "stateMutability": "nonpayable",
      "type": "function"
    },
    {
      "inputs": [],
      "name": "gasService",
      "outputs": [
        {
          "internalType": "contract IAxelarGasService",
          "name": "",
          "type": "address"
        }
      ],
      "stateMutability": "view",
      "type": "function"
    },
    {
      "inputs": [],
      "name": "gateway",
      "outputs": [
        {
          "internalType": "contract IAxelarGateway",
          "name": "",
          "type": "address"
        }
      ],
      "stateMutability": "view",
      "type": "function"
    },
    {
      "inputs": [
        {
          "internalType": "address",
          "name": "account",
          "type": "address"
        }
      ],
      "name": "getAddressBalance",
      "outputs": [
        {
          "internalType": "uint256",
          "name": "",
          "type": "uint256"
        }
      ],
      "stateMutability": "view",
      "type": "function"
    },
    {
      "inputs": [],
      "name": "getAllCampaignIds",
      "outputs": [
        {
          "internalType": "uint256[]",
          "name": "_allCampaignIds",
          "type": "uint256[]"
        }
      ],
      "stateMutability": "view",
      "type": "function"
    },
    {
      "inputs": [],
      "name": "getAllCampaigns",
      "outputs": [
        {
          "internalType": "contract Campaign[]",
          "name": "_allCampaigns",
          "type": "address[]"
        }
      ],
      "stateMutability": "view",
      "type": "function"
    },
    {
      "inputs": [],
      "name": "getAllDonors",
      "outputs": [
        {
          "components": [
            {
              "internalType": "address",
              "name": "donorAddress",
              "type": "address"
            },
            {
              "internalType": "uint256",
              "name": "amountDonated",
              "type": "uint256"
            }
          ],
          "internalType": "struct CampaignManager.Donors[]",
          "name": "_allDonorsData",
          "type": "tuple[]"
        }
      ],
      "stateMutability": "view",
      "type": "function"
    },
    {
      "inputs": [
        {
          "internalType": "uint256",
          "name": "_campaignId",
          "type": "uint256"
        }
      ],
      "name": "getCampaignOwner",
      "outputs": [
        {
          "internalType": "address",
          "name": "owner",
          "type": "address"
        }
      ],
      "stateMutability": "view",
      "type": "function"
    },
    {
      "inputs": [],
      "name": "getOwnerCampaigns",
      "outputs": [
        {
          "internalType": "contract Campaign[]",
          "name": "_allOwnerCampaigns",
          "type": "address[]"
        }
      ],
      "stateMutability": "view",
      "type": "function"
    },
    {
      "inputs": [],
      "name": "getOwnerIds",
      "outputs": [
        {
          "internalType": "uint256[]",
          "name": "_allOwnerIds",
          "type": "uint256[]"
        }
      ],
      "stateMutability": "view",
      "type": "function"
    },
    {
      "inputs": [
        {
          "internalType": "uint256",
          "name": "_campaignId",
          "type": "uint256"
        }
      ],
      "name": "getParticularCampaign",
      "outputs": [
        {
          "internalType": "contract Campaign",
          "name": "_campaign",
          "type": "address"
        }
      ],
      "stateMutability": "view",
      "type": "function"
    },
    {
      "inputs": [
        {
          "internalType": "uint256",
          "name": "_campaignId",
          "type": "uint256"
        }
      ],
      "name": "getParticularCampaignDonors",
      "outputs": [
        {
          "components": [
            {
              "internalType": "address",
              "name": "donorAddress",
              "type": "address"
            },
            {
              "internalType": "uint256",
              "name": "amountDonated",
              "type": "uint256"
            }
          ],
          "internalType": "struct CampaignManager.Donors[]",
          "name": "_donors",
          "type": "tuple[]"
        }
      ],
      "stateMutability": "view",
      "type": "function"
    },
    {
      "inputs": [
        {
          "internalType": "contract Campaign",
          "name": "campaign",
          "type": "address"
        }
      ],
      "name": "getParticularCampaignId",
      "outputs": [
        {
          "internalType": "uint256",
          "name": "_campaignId",
          "type": "uint256"
        }
      ],
      "stateMutability": "view",
      "type": "function"
    },
    {
      "inputs": [
        {
          "internalType": "uint256",
          "name": "",
          "type": "uint256"
        }
      ],
      "name": "idToCampaigns",
      "outputs": [
        {
          "internalType": "contract Campaign",
          "name": "",
          "type": "address"
        }
      ],
      "stateMutability": "view",
      "type": "function"
    },
    {
      "inputs": [
        {
          "internalType": "contract Campaign",
          "name": "",
          "type": "address"
        }
      ],
      "name": "isCampaign",
      "outputs": [
        {
          "internalType": "bool",
          "name": "",
          "type": "bool"
        }
      ],
      "stateMutability": "view",
      "type": "function"
    },
    {
      "inputs": [],
      "name": "owner",
      "outputs": [
        {
          "internalType": "address",
          "name": "",
          "type": "address"
        }
      ],
      "stateMutability": "view",
      "type": "function"
    },
    {
      "inputs": [
        {
          "internalType": "address",
          "name": "",
          "type": "address"
        },
        {
          "internalType": "uint256",
          "name": "",
          "type": "uint256"
        }
      ],
      "name": "ownerToCampaignIds",
      "outputs": [
        {
          "internalType": "uint256",
          "name": "",
          "type": "uint256"
        }
      ],
      "stateMutability": "view",
      "type": "function"
    },
    {
      "inputs": [
        {
          "internalType": "address",
          "name": "",
          "type": "address"
        },
        {
          "internalType": "uint256",
          "name": "",
          "type": "uint256"
        }
      ],
      "name": "ownerToCampaigns",
      "outputs": [
        {
          "internalType": "contract Campaign",
          "name": "",
          "type": "address"
        }
      ],
      "stateMutability": "view",
      "type": "function"
    },
    {
      "inputs": [
        {
          "internalType": "contract Campaign",
          "name": "campaign",
          "type": "address"
        }
      ],
      "name": "removeCampaignAddr",
      "outputs": [],
      "stateMutability": "nonpayable",
      "type": "function"
    },
    {
      "inputs": [],
      "name": "renounceOwnership",
      "outputs": [],
      "stateMutability": "nonpayable",
      "type": "function"
    },
    {
      "inputs": [
        {
          "internalType": "uint256",
          "name": "_campaignId",
          "type": "uint256"
        },
        {
          "internalType": "address",
          "name": "_satelliteAddr",
          "type": "address"
        },
        {
          "internalType": "uint256[]",
          "name": "spokeChainFees",
          "type": "uint256[]"
        }
      ],
      "name": "requestCollections",
      "outputs": [],
      "stateMutability": "payable",
      "type": "function"
    },
    {
      "inputs": [
        {
          "internalType": "string",
          "name": "",
          "type": "string"
        }
      ],
      "name": "spokeChainNameToSpokeChainId",
      "outputs": [
        {
          "internalType": "uint32",
          "name": "",
          "type": "uint32"
        }
      ],
      "stateMutability": "view",
      "type": "function"
    },
    {
      "inputs": [
        {
          "internalType": "uint256",
          "name": "",
          "type": "uint256"
        }
      ],
      "name": "spokeChainNames",
      "outputs": [
        {
          "internalType": "string",
          "name": "",
          "type": "string"
        }
      ],
      "stateMutability": "view",
      "type": "function"
    },
    {
      "inputs": [
        {
          "internalType": "uint256",
          "name": "",
          "type": "uint256"
        }
      ],
      "name": "spokeChains",
      "outputs": [
        {
          "internalType": "uint32",
          "name": "",
          "type": "uint32"
        }
      ],
      "stateMutability": "view",
      "type": "function"
    },
    {
      "inputs": [
        {
          "internalType": "address",
          "name": "newOwner",
          "type": "address"
        }
      ],
      "name": "transferOwnership",
      "outputs": [],
      "stateMutability": "nonpayable",
      "type": "function"
    }
  ],
  "bytecode": "0x610140604052632096846d60e21b60c0526393d032d560e01b60e05263a4a7b0f760e01b610100526312789d3b60e11b6101205260016006553480156200004557600080fd5b506040516200400938038062004009833981016040819052620000689162000598565b8382826000828060200190518101906200008391906200064e565b90506000828060200190518101906200009d919062000701565b9050620000ab82826200012f565b8151620000c090600090602085019062000272565b508051620000d690600190602084019062000328565b50505050506001600160a01b038116620001035760405163e6c4247b60e01b815260040160405180910390fd5b6001600160a01b03166080526200011a3362000220565b50506001600160a01b031660a0525062000875565b8051825114620001795760405162461bcd60e51b81526020600482015260116024820152706e6f7420657175616c206c656e6774687360781b604482015260640160405180910390fd5b60005b82518161ffff1610156200021b57828161ffff1681518110620001a357620001a3620007d3565b60200260200101516002838361ffff1681518110620001c657620001c6620007d3565b6020026020010151604051620001dd9190620007e9565b908152604051908190036020019020805463ffffffff9290921663ffffffff1990921691909117905580620002128162000807565b9150506200017c565b505050565b600580546001600160a01b038381166001600160a01b0319831681179093556040519116919082907f8be0079c531659141344cd1fd0a4f28419497f9722a3daafe3b4186f6b6457e090600090a35050565b82805482825590600052602060002090600701600890048101928215620003165791602002820160005b83821115620002e257835183826101000a81548163ffffffff021916908363ffffffff16021790555092602001926004016020816003010492830192600103026200029c565b8015620003145782816101000a81549063ffffffff0219169055600401602081600301049283019260010302620002e2565b505b506200032492915062000388565b5090565b8280548282559060005260206000209081019282156200037a579160200282015b828111156200037a5782518051620003699184916020909101906200039f565b509160200191906001019062000349565b50620003249291506200041c565b5b8082111562000324576000815560010162000389565b828054620003ad9062000838565b90600052602060002090601f016020900481019282620003d1576000855562000316565b82601f10620003ec57805160ff191683800117855562000316565b8280016001018555821562000316579182015b8281111562000316578251825591602001919060010190620003ff565b80821115620003245760006200043382826200043d565b506001016200041c565b5080546200044b9062000838565b6000825580601f106200045c575050565b601f0160209004906000526020600020908101906200047c919062000388565b50565b80516001600160a01b03811681146200049757600080fd5b919050565b634e487b7160e01b600052604160045260246000fd5b604051601f8201601f191681016001600160401b0381118282101715620004dd57620004dd6200049c565b604052919050565b60005b8381101562000502578181015183820152602001620004e8565b8381111562000512576000848401525b50505050565b60006001600160401b038311156200053457620005346200049c565b62000549601f8401601f1916602001620004b2565b90508281528383830111156200055e57600080fd5b6200056e836020830184620004e5565b9392505050565b600082601f8301126200058757600080fd5b6200056e8383516020850162000518565b60008060008060808587031215620005af57600080fd5b620005ba856200047f565b9350620005ca602086016200047f565b60408601519093506001600160401b0380821115620005e857600080fd5b620005f68883890162000575565b935060608701519150808211156200060d57600080fd5b506200061c8782880162000575565b91505092959194509250565b60006001600160401b038211156200064457620006446200049c565b5060051b60200190565b600060208083850312156200066257600080fd5b82516001600160401b038111156200067957600080fd5b8301601f810185136200068b57600080fd5b8051620006a26200069c8262000628565b620004b2565b81815260059190911b82018301908381019087831115620006c257600080fd5b928401925b82841015620006f657835163ffffffff81168114620006e65760008081fd5b82529284019290840190620006c7565b979650505050505050565b600060208083850312156200071557600080fd5b82516001600160401b03808211156200072d57600080fd5b818501915085601f8301126200074257600080fd5b8151620007536200069c8262000628565b81815260059190911b830184019084810190888311156200077357600080fd5b8585015b83811015620007c657805185811115620007915760008081fd5b8601603f81018b13620007a45760008081fd5b620007b78b898301516040840162000518565b84525091860191860162000777565b5098975050505050505050565b634e487b7160e01b600052603260045260246000fd5b60008251620007fd818460208701620004e5565b9190910192915050565b600061ffff808316818114156200082e57634e487b7160e01b600052601160045260246000fd5b6001019392505050565b600181811c908216806200084d57607f821691505b602082108114156200086f57634e487b7160e01b600052602260045260246000fd5b50919050565b60805160a05160c05160e0516101005161012051613720620008e9600039600061214e015260006120c901526000505060005050600081816105a901528181610dc501526117580152600081816102c001528181610a5301528181610e8601528181610f98015261181301526137206000f3fe608060405260043610620002775760003560e01c806386cdf6041162000153578063cf7dc77111620000c5578063ee835ae41162000084578063ee835ae414620008e0578063f2fde38b146200091a578063f34efb75146200093f578063f9ed8ead1462000964578063fa1a02951462000989578063fb2afd4e14620009ae57600080fd5b8063cf7dc7711462000816578063d3456278146200083b578063d475416b1462000860578063d857561d1462000894578063e2714e1b14620008ac57600080fd5b8063be3c840d1162000112578063be3c840d146200071a578063be43a6f5146200073f578063c34902631462000773578063c76b9c7f1462000798578063ca0cdea814620007d257600080fd5b806386cdf6041462000664578063886a5bd3146200068b5780638da5cb5b14620006bc57806398e36b0414620006dc5780639ab36bca146200070357600080fd5b80634916065811620001ed5780636a22d8cc11620001ac5780636a22d8cc1462000595578063715018a614620005cb5780637dcb1e5d14620005e3578063823eabc914620005fa578063835f6ac4146200061f57600080fd5b8063491606581462000496578063545a7c6214620004bb578063599a597f14620004d35780635c8e1b61146200051857806366a74b07146200057057600080fd5b80632e618676116200023a5780632e61867614620003a45780633504672214620003bc5780633abdbed214620003e85780633d11c0db1462000422578063445056ce146200045c57600080fd5b806304182496146200027c578063116191b614620002ac5780631a98b2e014620002fb5780631e18450c14620003225780632a8c4ef7146200037e575b600080fd5b3480156200028957600080fd5b5062000294620009c6565b604051620002a39190620024b7565b60405180910390f35b348015620002b957600080fd5b50620002e27f000000000000000000000000000000000000000000000000000000000000000081565b6040516001600160a01b039091168152602001620002a3565b3480156200030857600080fd5b50620003206200031a36600462002549565b62000a20565b005b3480156200032f57600080fd5b50620003686200034136600462002630565b60036020908152600092835260408084209091529082529020805460029091015460ff1682565b60408051928352901515602083015201620002a3565b620003956200038f366004620027d1565b62000b1b565b604051908152602001620002a3565b348015620003b157600080fd5b506200039560065481565b348015620003c957600080fd5b5062000395620003db3660046200285c565b6001600160a01b03163190565b348015620003f557600080fd5b5062000395620004073660046200285c565b6001600160a01b03166000908152600c602052604090205490565b3480156200042f57600080fd5b50620002e26200044136600462002883565b600b602052600090815260409020546001600160a01b031681565b3480156200046957600080fd5b50620002e26200047b36600462002883565b600a602052600090815260409020546001600160a01b031681565b348015620004a357600080fd5b5062000320620004b53660046200289d565b62000f65565b348015620004c857600080fd5b506200029462001067565b348015620004e057600080fd5b50620004f8620004f236600462002883565b620010c8565b604080516001600160a01b039093168352602083019190915201620002a3565b3480156200052557600080fd5b506200055a620005373660046200294b565b805160208183018101805160028252928201919093012091525463ffffffff1681565b60405163ffffffff9091168152602001620002a3565b3480156200057d57600080fd5b506200055a6200058f36600462002883565b62001101565b348015620005a257600080fd5b50620002e27f000000000000000000000000000000000000000000000000000000000000000081565b348015620005d857600080fd5b50620003206200113c565b62000320620005f43660046200298c565b62001154565b3480156200060757600080fd5b5062000320620006193660046200285c565b620013cf565b3480156200062c57600080fd5b50620006536200063e36600462002883565b60126020526000908152604090205460ff1681565b6040519015158152602001620002a3565b3480156200067157600080fd5b506200067c620014ec565b604051620002a39190620029af565b3480156200069857600080fd5b5062000395620006aa3660046200285c565b600c6020526000908152604090205481565b348015620006c957600080fd5b506005546001600160a01b0316620002e2565b348015620006e957600080fd5b50620006f46200154f565b604051620002a39190620029f2565b620003206200071436600462002a4c565b620015c6565b3480156200072757600080fd5b50620003206200073936600462002883565b620018ec565b3480156200074c57600080fd5b50620006536200075e36600462002883565b60116020526000908152604090205460ff1681565b3480156200078057600080fd5b5062000320620007923660046200298c565b620019b3565b348015620007a557600080fd5b50620002e2620007b736600462002883565b6000908152600b60205260409020546001600160a01b031690565b348015620007df57600080fd5b50620004f8620007f13660046200285c565b600e60205260009081526040902080546001909101546001600160a01b039091169082565b3480156200082357600080fd5b50620003956200083536600462002aab565b62001aa9565b3480156200084857600080fd5b50620003956200085a36600462002883565b62001adb565b3480156200086d57600080fd5b50620008856200087f36600462002883565b62001afd565b604051620002a3919062002b2a565b348015620008a157600080fd5b506200088562001bb2565b348015620008b957600080fd5b5062000653620008cb3660046200285c565b600f6020526000908152604090205460ff1681565b348015620008ed57600080fd5b50620002e2620008ff36600462002883565b6000908152600a60205260409020546001600160a01b031690565b3480156200092757600080fd5b5062000320620009393660046200285c565b62001bd3565b3480156200094c57600080fd5b50620004f86200095e3660046200298c565b62001c52565b3480156200097157600080fd5b50620002e26200098336600462002aab565b62001c99565b3480156200099657600080fd5b50620006f4620009a836600462002883565b62001cd2565b348015620009bb57600080fd5b506200067c62001d5c565b6060601080548060200260200160405190810160405280929190818152602001828054801562000a1657602002820191906000526020600020905b81548152602001906001019080831162000a01575b5050505050905090565b6000858560405162000a3492919062002b3f565b604051908190038120631876eed960e01b825291506001600160a01b037f00000000000000000000000000000000000000000000000000000000000000001690631876eed99062000a9a908e908e908e908e908e9089908d908d908d9060040162002b78565b602060405180830381600087803b15801562000ab557600080fd5b505af115801562000aca573d6000803e3d6000fd5b505050506040513d601f19601f8201168201806040525081019062000af0919062002bdd565b62000b0e57604051631403112d60e21b815260040160405180910390fd5b5050505050505050505050565b60008060005b835181101562000b6c5783818151811062000b405762000b4062002c01565b60200260200101518262000b55919062002c2d565b91508062000b638162002c48565b91505062000b21565b508034101562000b995760405162461bcd60e51b815260040162000b909062002c66565b60405180910390fd5b60068054908190600062000bad8362002c48565b91905055506000338842898560405162000bc79062002428565b62000bd795949392919062002caa565b604051809103906000f08015801562000bf4573d6000803e3d6000fd5b506007805460018181019092557fa66cc928b5edb82af9bd49922954155ab7b0942694bea4ce44661d9a8736c6880180546001600160a01b0384166001600160a01b03199182168117909255601080548085019091557f1b6847dc741a1b0cd08d278845f9d819d87b734759afb55fe2de5cb82a9ae67201869055336000818152600860209081526040808320805480890182559084528284200180548616871790558383526009825280832080548089018255908452828420018a9055898352600b82528083208054861687179055858352600c82528083208a9055898352600a82528083208054909516909317909355928352600f9091528120805460ff1916909217909155549091501562000f5a5760005b60005461ffff8216101562000f58576000868261ffff168151811062000d335762000d3362002c01565b6020026020010151905060008385428d60003360405160240162000d5d9695949392919062002ced565b60408051601f198184030181529181526020820180516001600160e01b03166393d032d560e01b179052519091507fbc0a5edd152fa5b886dcae82c5c109d113708653b4b9c0224549ccdf715af94e9062000dbb9087815260200190565b60405180910390a17f00000000000000000000000000000000000000000000000000000000000000006001600160a01b0316630c93e3bb833060018761ffff168154811062000e0e5762000e0e62002c01565b9060005260206000200162000e2c8e6001600160a01b031662001dc7565b86336040518763ffffffff1660e01b815260040162000e5095949392919062002e1d565b6000604051808303818588803b15801562000e6a57600080fd5b505af115801562000e7f573d6000803e3d6000fd5b50505050507f00000000000000000000000000000000000000000000000000000000000000006001600160a01b0316631c92115f60018561ffff168154811062000ecd5762000ecd62002c01565b9060005260206000200162000eeb8c6001600160a01b031662001dc7565b846040518463ffffffff1660e01b815260040162000f0c9392919062002e81565b600060405180830381600087803b15801562000f2757600080fd5b505af115801562000f3c573d6000803e3d6000fd5b505050505050808062000f4f9062002eca565b91505062000d09565b505b509695505050505050565b6000828260405162000f7992919062002b3f565b604051908190038120635f6970c360e01b825291506001600160a01b037f00000000000000000000000000000000000000000000000000000000000000001690635f6970c39062000fd9908b908b908b908b908b90899060040162002eef565b602060405180830381600087803b15801562000ff457600080fd5b505af115801562001009573d6000803e3d6000fd5b505050506040513d601f19601f820116820180604052508101906200102f919062002bdd565b6200104d57604051631403112d60e21b815260040160405180910390fd5b6200105d8787878787876200203e565b5050505050505050565b3360009081526009602090815260409182902080548351818402810184019094528084526060939283018282801562000a16576020028201919060005260206000209081548152602001906001019080831162000a01575050505050905090565b60138181548110620010d957600080fd5b6000918252602090912060029091020180546001909101546001600160a01b03909116915082565b600081815481106200111257600080fd5b9060005260206000209060089182820401919006600402915054906101000a900463ffffffff1681565b62001146620021fa565b62001152600062002256565b565b6000828152600b60205260409020546001600160a01b031680620011bb5760405162461bcd60e51b815260206004820152601f60248201527f63616d706169676e2063616e6e6f74206265207a65726f206164647265737300604482015260640162000b90565b6001600160a01b0381166000908152600f602052604090205460ff1615156001146200122a5760405162461bcd60e51b815260206004820152601f60248201527f646f6e6174696e6720746f20616e20696e76616c69642063616d706169676e00604482015260640162000b90565b813411620012975760405162461bcd60e51b815260206004820152603360248201527f73656e7420616d6f756e74206973206c6f776572207468616e20616d6f756e7460448201527220796f752077616e7420746f20646f6e61746560681b606482015260840162000b90565b60408051808201825233815260208082018581526001600160a01b038086166000818152600e8552868120955186549084166001600160a01b031991821681178855945160019788018190558851808a018a5295865285870190815260138054808a018255908452865160029182027f66de8ffda797e3de9c05e8fc57b3bf0ec28a930d40b0d285d93c06501cf6a090810180549289169286169290921790915582517f66de8ffda797e3de9c05e8fc57b3bf0ec28a930d40b0d285d93c06501cf6a091909101558c8452600d88528984208054808b0182559085529784208751989091020180549790951696909116959095178355935191909401559251849384939092909187156108fc0291889190818181858888f19350505050158015620013c6573d6000803e3d6000fd5b50505050505050565b620013d9620021fa565b6000620013e682620022a8565b6007549091508110620014305760405162461bcd60e51b8152602060048201526011602482015270115b195b595b9d081b9bdd08199bdd5b99607a1b604482015260640162000b90565b60078054620014429060019062002f34565b8154811062001455576200145562002c01565b600091825260209091200154600780546001600160a01b03909216918390811062001484576200148462002c01565b9060005260206000200160006101000a8154816001600160a01b0302191690836001600160a01b031602179055506007805480620014c657620014c662002f4e565b600082815260209020810160001990810180546001600160a01b03191690550190555050565b6060600780548060200260200160405190810160405280929190818152602001828054801562000a1657602002820191906000526020600020905b81546001600160a01b0316815260019091019060200180831162001527575050505050905090565b60606013805480602002602001604051908101604052809291908181526020016000905b82821015620015bd576000848152602090819020604080518082019091526002850290910180546001600160a01b0316825260019081015482840152908352909201910162001573565b50505050905090565b60008381526012602052604090205460ff1615620016465760405162461bcd60e51b815260206004820152603660248201527f436f6c6c656374696f6e20706861736520666f7220746869732070726f706f73604482015275185b081a185cc8185b1c9958591e481cdd185c9d195960521b606482015260840162000b90565b6000805b8251811015620016955782818151811062001669576200166962002c01565b6020026020010151826200167e919062002c2d565b9150806200168c8162002c48565b9150506200164a565b5080341015620016b95760405162461bcd60e51b815260040162000b909062002c66565b6000848152601260205260408120805460ff191660011790555b60005461ffff82161015620018e5576000838261ffff1681518110620016fd57620016fd62002c01565b602002602001015190506000866040516024016200171d91815260200190565b60408051601f198184030181529190526020810180516001600160e01b0316631898aff560e11b179052600180549192506001600160a01b037f00000000000000000000000000000000000000000000000000000000000000001691630c93e3bb91859130919061ffff89169081106200179b576200179b62002c01565b90600052602060002001620017b98b6001600160a01b031662001dc7565b86336040518763ffffffff1660e01b8152600401620017dd95949392919062002e1d565b6000604051808303818588803b158015620017f757600080fd5b505af11580156200180c573d6000803e3d6000fd5b50505050507f00000000000000000000000000000000000000000000000000000000000000006001600160a01b0316631c92115f60018561ffff16815481106200185a576200185a62002c01565b9060005260206000200162001878896001600160a01b031662001dc7565b846040518463ffffffff1660e01b8152600401620018999392919062002e81565b600060405180830381600087803b158015620018b457600080fd5b505af1158015620018c9573d6000803e3d6000fd5b5050505050508080620018dc9062002eca565b915050620016d3565b5050505050565b600160005b60005461ffff8216108015620019045750815b1562001992578180156200197b5750600360008481526020019081526020016000206000808361ffff168154811062001941576200194162002c01565b6000918252602080832060088304015460079092166004026101000a90910463ffffffff16835282019290925260400190206002015460ff165b915080620019898162002eca565b915050620018f1565b50600091825260116020526040909120805460ff1916911515919091179055565b6000828152600a60205260409020546001600160a01b031633811462001a315760405162461bcd60e51b815260206004820152602c60248201527f6d73672e73656e646572206973206e6f7420746865206f776e6572206f66207460448201526b3434b99031b0b6b830b4b3b760a11b606482015260840162000b90565b6000838152600b602052604090819020549051632e1a7d4d60e01b8152600481018490526001600160a01b039091169081908190632e1a7d4d90602401600060405180830381600087803b15801562001a8957600080fd5b505af115801562001a9e573d6000803e3d6000fd5b505050505050505050565b6009602052816000526040600020818154811062001ac657600080fd5b90600052602060002001600091509150505481565b6010818154811062001aec57600080fd5b600091825260209091200154905081565b6001818154811062001b0e57600080fd5b90600052602060002001600091509050805462001b2b9062002d38565b80601f016020809104026020016040519081016040528092919081815260200182805462001b599062002d38565b801562001baa5780601f1062001b7e5761010080835404028352916020019162001baa565b820191906000526020600020905b81548152906001019060200180831162001b8c57829003601f168201915b505050505081565b6060604051806080016040528060428152602001620036a960429139905090565b62001bdd620021fa565b6001600160a01b03811662001c445760405162461bcd60e51b815260206004820152602660248201527f4f776e61626c653a206e6577206f776e657220697320746865207a65726f206160448201526564647265737360d01b606482015260840162000b90565b62001c4f8162002256565b50565b600d602052816000526040600020818154811062001c6f57600080fd5b6000918252602090912060029091020180546001909101546001600160a01b039091169250905082565b6008602052816000526040600020818154811062001cb657600080fd5b6000918252602090912001546001600160a01b03169150829050565b6060600d6000838152602001908152602001600020805480602002602001604051908101604052809291908181526020016000905b8282101562001d51576000848152602090819020604080518082019091526002850290910180546001600160a01b0316825260019081015482840152908352909201910162001d07565b505050509050919050565b3360009081526008602090815260409182902080548351818402810184019094528084526060939283018282801562000a16576020028201919060005260206000209081546001600160a01b0316815260019091019060200180831162001527575050505050905090565b604051606082811b6bffffffffffffffffffffffff191660208301529060009060340160408051601f198184030181528282528051838301909252601083526f181899199a1a9b1b9c1cb0b131b232b360811b6020840152805190935090919060009062001e3790600262002f64565b62001e4490600262002c2d565b67ffffffffffffffff81111562001e5f5762001e5f6200266b565b6040519080825280601f01601f19166020018201604052801562001e8a576020820181803683370190505b509050600360fc1b8160008151811062001ea85762001ea862002c01565b60200101906001600160f81b031916908160001a905350600f60fb1b8160018151811062001eda5762001eda62002c01565b60200101906001600160f81b031916908160001a90535060005b83811015620020345782600486838151811062001f155762001f1562002c01565b016020015182516001600160f81b031990911690911c60f81c90811062001f405762001f4062002c01565b01602001516001600160f81b0319168262001f5d83600262002f64565b62001f6a90600262002c2d565b8151811062001f7d5762001f7d62002c01565b60200101906001600160f81b031916908160001a9053508285828151811062001faa5762001faa62002c01565b602091010151815160f89190911c600f1690811062001fcd5762001fcd62002c01565b01602001516001600160f81b0319168262001fea83600262002f64565b62001ff790600362002c2d565b815181106200200a576200200a62002c01565b60200101906001600160f81b031916908160001a9053506200202c8162002c48565b905062001ef4565b5095945050505050565b6000600287876040516200205492919062002b3f565b9081526040519081900360200190205463ffffffff1690503660006200207e846004818862002f86565b915091506000620020c586868080601f0160208091040260200160405190810160405280939291908181526020018383808284376000920191909152506200231892505050565b90507f00000000000000000000000000000000000000000000000000000000000000006001600160e01b031916816001600160e01b03191614156200214c57620021468484848080601f0160208091040260200160405190810160405280939291908181526020018383808284376000920191909152506200231f92505050565b620021ee565b7f00000000000000000000000000000000000000000000000000000000000000006001600160e01b031916816001600160e01b03191614156200219a576200219362001bb2565b50620021ee565b60405162461bcd60e51b815260206004820152602260248201527f496e76616c6964207061796c6f61643a206e6f2073656c6563746f72206d61746044820152610c6d60f31b606482015260840162000b90565b50505050505050505050565b6005546001600160a01b03163314620011525760405162461bcd60e51b815260206004820181905260248201527f4f776e61626c653a2063616c6c6572206973206e6f7420746865206f776e6572604482015260640162000b90565b600580546001600160a01b038381166001600160a01b0319831681179093556040519116919082907f8be0079c531659141344cd1fd0a4f28419497f9722a3daafe3b4186f6b6457e090600090a35050565b6000805b6007548110156200230e57826001600160a01b031660078281548110620022d757620022d762002c01565b6000918252602090912001546001600160a01b03161415620022f95792915050565b80620023058162002c48565b915050620022ac565b5050600754919050565b6020015190565b6000806000838060200190518101906200233a919062002fb2565b600083815260036020908152604080832063ffffffff8c168452909152902060020154929550909350915060ff1615620023ad5760405162461bcd60e51b8152602060048201526013602482015272105b1c9958591e481a5b9a5d1a585b1a5e9959606a1b604482015260640162000b90565b604080516060810182528381526020808201848152600183850181905260008881526003845285812063ffffffff8c168252845294909420835181559051805193949193620024059392850192919091019062002436565b50604091909101516002909101805460ff19169115159190911790555050505050565b61063c806200306d83390190565b8280548282559060005260206000209081019282156200248e579160200282015b828111156200248e57825182546001600160a01b0319166001600160a01b0390911617825560209092019160019091019062002457565b506200249c929150620024a0565b5090565b5b808211156200249c5760008155600101620024a1565b6020808252825182820181905260009190848201906040850190845b81811015620024f157835183529284019291840191600101620024d3565b50909695505050505050565b60008083601f8401126200251057600080fd5b50813567ffffffffffffffff8111156200252957600080fd5b6020830191508360208285010111156200254257600080fd5b9250929050565b60008060008060008060008060008060c08b8d0312156200256957600080fd5b8a35995060208b013567ffffffffffffffff808211156200258957600080fd5b620025978e838f01620024fd565b909b50995060408d0135915080821115620025b157600080fd5b620025bf8e838f01620024fd565b909950975060608d0135915080821115620025d957600080fd5b620025e78e838f01620024fd565b909750955060808d01359150808211156200260157600080fd5b50620026108d828e01620024fd565b9150809450508092505060a08b013590509295989b9194979a5092959850565b600080604083850312156200264457600080fd5b82359150602083013563ffffffff811681146200266057600080fd5b809150509250929050565b634e487b7160e01b600052604160045260246000fd5b604051601f8201601f1916810167ffffffffffffffff81118282101715620026ad57620026ad6200266b565b604052919050565b600082601f830112620026c757600080fd5b813567ffffffffffffffff811115620026e457620026e46200266b565b620026f9601f8201601f191660200162002681565b8181528460208386010111156200270f57600080fd5b816020850160208301376000918101602001919091529392505050565b6001600160a01b038116811462001c4f57600080fd5b600067ffffffffffffffff8211156200275f576200275f6200266b565b5060051b60200190565b600082601f8301126200277b57600080fd5b81356020620027946200278e8362002742565b62002681565b82815260059290921b84018101918181019086841115620027b457600080fd5b8286015b8481101562000f5a5780358352918301918301620027b8565b60008060008060808587031215620027e857600080fd5b843567ffffffffffffffff808211156200280157600080fd5b6200280f88838901620026b5565b955060208701359450604087013591506200282a826200272c565b909250606086013590808211156200284157600080fd5b50620028508782880162002769565b91505092959194509250565b6000602082840312156200286f57600080fd5b81356200287c816200272c565b9392505050565b6000602082840312156200289657600080fd5b5035919050565b60008060008060008060006080888a031215620028b957600080fd5b87359650602088013567ffffffffffffffff80821115620028d957600080fd5b620028e78b838c01620024fd565b909850965060408a01359150808211156200290157600080fd5b6200290f8b838c01620024fd565b909650945060608a01359150808211156200292957600080fd5b50620029388a828b01620024fd565b989b979a50959850939692959293505050565b6000602082840312156200295e57600080fd5b813567ffffffffffffffff8111156200297657600080fd5b6200298484828501620026b5565b949350505050565b60008060408385031215620029a057600080fd5b50508035926020909101359150565b6020808252825182820181905260009190848201906040850190845b81811015620024f15783516001600160a01b031683529284019291840191600101620029cb565b602080825282518282018190526000919060409081850190868401855b8281101562002a3f57815180516001600160a01b0316855286015186850152928401929085019060010162002a0f565b5091979650505050505050565b60008060006060848603121562002a6257600080fd5b83359250602084013562002a76816200272c565b9150604084013567ffffffffffffffff81111562002a9357600080fd5b62002aa18682870162002769565b9150509250925092565b6000806040838503121562002abf57600080fd5b823562002acc816200272c565b946020939093013593505050565b6000815180845260005b8181101562002b025760208185018101518683018201520162002ae4565b8181111562002b15576000602083870101525b50601f01601f19169290920160200192915050565b6020815260006200287c602083018462002ada565b8183823760009101908152919050565b81835281816020850137506000828201602090810191909152601f909101601f19169091010190565b89815260c06020820152600062002b9460c083018a8c62002b4f565b828103604084015262002ba981898b62002b4f565b9050866060840152828103608084015262002bc681868862002b4f565b9150508260a08301529a9950505050505050505050565b60006020828403121562002bf057600080fd5b815180151581146200287c57600080fd5b634e487b7160e01b600052603260045260246000fd5b634e487b7160e01b600052601160045260246000fd5b6000821982111562002c435762002c4362002c17565b500190565b600060001982141562002c5f5762002c5f62002c17565b5060010190565b60208082526024908201527f696e73756666696369656e74206761732066656520666f72207472616e7361636040820152633a34b7b760e11b606082015260800190565b6001600160a01b038616815260a06020820181905260009062002cd09083018762002ada565b604083019590955250606081019290925260809091015292915050565b600060018060a01b03808916835287602084015286604084015260c0606084015262002d1d60c084018762002ada565b94151560808401529290921660a09091015250949350505050565b600181811c9082168062002d4d57607f821691505b6020821081141562002d6f57634e487b7160e01b600052602260045260246000fd5b50919050565b8054600090600181811c908083168062002d9057607f831692505b602080841082141562002db357634e487b7160e01b600052602260045260246000fd5b8388526020880182801562002dd1576001811462002de35762002e10565b60ff1987168252828201975062002e10565b60008981526020902060005b8781101562002e0a5781548482015290860190840162002def565b83019850505b5050505050505092915050565b600060018060a01b03808816835260a0602084015262002e4160a084018862002d75565b838103604085015262002e55818862002ada565b9050838103606085015262002e6b818762002ada565b9250508084166080840152509695505050505050565b60608152600062002e96606083018662002d75565b828103602084015262002eaa818662002ada565b9050828103604084015262002ec0818562002ada565b9695505050505050565b600061ffff8083168181141562002ee55762002ee562002c17565b6001019392505050565b86815260806020820152600062002f0b60808301878962002b4f565b828103604084015262002f2081868862002b4f565b915050826060830152979650505050505050565b60008282101562002f495762002f4962002c17565b500390565b634e487b7160e01b600052603160045260246000fd5b600081600019048311821515161562002f815762002f8162002c17565b500290565b6000808585111562002f9757600080fd5b8386111562002fa557600080fd5b5050820193919092039150565b60008060006060848603121562002fc857600080fd5b835192506020808501519250604085015167ffffffffffffffff81111562002fef57600080fd5b8501601f810187136200300157600080fd5b8051620030126200278e8262002742565b81815260059190911b820183019083810190898311156200303257600080fd5b928401925b828410156200305d5783516200304d816200272c565b8252928401929084019062003037565b8095505050505050925092509256fe608060405234801561001057600080fd5b5060405161063c38038061063c83398101604081905261002f91610126565b60008054610100600160a81b0319166101006001600160a01b038816021790558351610062906001906020870190610077565b506003929092556005556002555061026c9050565b82805461008390610231565b90600052602060002090601f0160209004810192826100a557600085556100eb565b82601f106100be57805160ff19168380011785556100eb565b828001600101855582156100eb579182015b828111156100eb5782518255916020019190600101906100d0565b506100f79291506100fb565b5090565b5b808211156100f757600081556001016100fc565b634e487b7160e01b600052604160045260246000fd5b600080600080600060a0868803121561013e57600080fd5b85516001600160a01b038116811461015557600080fd5b602087810151919650906001600160401b038082111561017457600080fd5b818901915089601f83011261018857600080fd5b81518181111561019a5761019a610110565b604051601f8201601f19908116603f011681019083821181831017156101c2576101c2610110565b816040528281528c868487010111156101da57600080fd5b600093505b828410156101fc57848401860151818501870152928501926101df565b8284111561020d5760008684830101525b60408c015160608d01516080909d01519b9e919d509b9a9950975050505050505050565b600181811c9082168061024557607f821691505b6020821081141561026657634e487b7160e01b600052602260045260246000fd5b50919050565b6103c18061027b6000396000f3fe6080604052600436106100745760003560e01c8063af640d0f1161004e578063af640d0f1461010a578063cf09e0d01461012e578063d4b8399214610144578063dfb8dca91461015a57600080fd5b80632e1a7d4d1461008057806339c80ab1146100a25780638da5cb5b146100cd57600080fd5b3661007b57005b600080fd5b34801561008c57600080fd5b506100a061009b3660046102e2565b610170565b005b3480156100ae57600080fd5b506100b7610254565b6040516100c491906102fb565b60405180910390f35b3480156100d957600080fd5b506000546100f29061010090046001600160a01b031681565b6040516001600160a01b0390911681526020016100c4565b34801561011657600080fd5b5061012060025481565b6040519081526020016100c4565b34801561013a57600080fd5b5061012060035481565b34801561015057600080fd5b5061012060055481565b34801561016657600080fd5b5061012060045481565b60005461010090046001600160a01b031632146101cc5760405162461bcd60e51b81526020600482015260156024820152743cb7ba9030b932903737ba103a34329037bbb732b960591b60448201526064015b60405180910390fd5b478111156102135760405162461bcd60e51b8152602060048201526014602482015273496e73756666696369656e742062616c616e636560601b60448201526064016101c3565b600080546040516101009091046001600160a01b0316916108fc841502918491818181858888f19350505050158015610250573d6000803e3d6000fd5b5050565b6001805461026190610350565b80601f016020809104026020016040519081016040528092919081815260200182805461028d90610350565b80156102da5780601f106102af576101008083540402835291602001916102da565b820191906000526020600020905b8154815290600101906020018083116102bd57829003601f168201915b505050505081565b6000602082840312156102f457600080fd5b5035919050565b600060208083528351808285015260005b818110156103285785810183015185820160400152820161030c565b8181111561033a576000604083870101525b50601f01601f1916929092016040019392505050565b600181811c9082168061036457607f821691505b6020821081141561038557634e487b7160e01b600052602260045260246000fd5b5091905056fea264697066735822122005f24d18c03b626f318e4f4da81d5c8addad23fd9c9798394b4fc10a12b7847e64736f6c63430008090033596f75206a7573742063616c6c6564207468652065786563757465207769746864726177616c2066756e6374696f6e2066726f6d20616e6f7468657220636861696ea26469706673582212209575c019fed71913dd09ca5607c83b74bf87169dad5048cef3d72ee0d341868a64736f6c63430008090033",
  "linkReferences": {},
  "deployedLinkReferences": {}
}