{
  "_format": "hh-sol-artifact-1",
  "contractName": "CrossChainDAO",
  "sourceName": "contracts/CrossChainDAO.sol",
  "abi": [
    {
      "inputs": [
        {
          "internalType": "contract IVotes",
          "name": "_token",
          "type": "address"
        },
        {
          "internalType": "address",
          "name": "_gateway",
          "type": "address"
        },
        {
          "internalType": "address",
          "name": "_gasService",
          "type": "address"
        },
        {
          "internalType": "bytes",
          "name": "_spokeChains",
          "type": "bytes"
        },
        {
          "internalType": "bytes",
          "name": "_spokeChainNames",
          "type": "bytes"
        }
      ],
      "stateMutability": "nonpayable",
      "type": "constructor"
    },
    {
      "inputs": [],
      "name": "Empty",
      "type": "error"
    },
    {
      "inputs": [],
      "name": "InvalidAddress",
      "type": "error"
    },
    {
      "inputs": [],
      "name": "InvalidShortString",
      "type": "error"
    },
    {
      "inputs": [],
      "name": "NotApprovedByGateway",
      "type": "error"
    },
    {
      "inputs": [
        {
          "internalType": "string",
          "name": "str",
          "type": "string"
        }
      ],
      "name": "StringTooLong",
      "type": "error"
    },
    {
      "anonymous": false,
      "inputs": [],
      "name": "EIP712DomainChanged",
      "type": "event"
    },
    {
      "anonymous": false,
      "inputs": [
        {
          "indexed": false,
          "internalType": "uint256",
          "name": "proposalId",
          "type": "uint256"
        }
      ],
      "name": "ProposalCanceled",
      "type": "event"
    },
    {
      "anonymous": false,
      "inputs": [
        {
          "indexed": false,
          "internalType": "uint256",
          "name": "proposalId",
          "type": "uint256"
        },
        {
          "indexed": false,
          "internalType": "address",
          "name": "proposer",
          "type": "address"
        },
        {
          "indexed": false,
          "internalType": "address[]",
          "name": "targets",
          "type": "address[]"
        },
        {
          "indexed": false,
          "internalType": "uint256[]",
          "name": "values",
          "type": "uint256[]"
        },
        {
          "indexed": false,
          "internalType": "string[]",
          "name": "signatures",
          "type": "string[]"
        },
        {
          "indexed": false,
          "internalType": "bytes[]",
          "name": "calldatas",
          "type": "bytes[]"
        },
        {
          "indexed": false,
          "internalType": "uint256",
          "name": "voteStart",
          "type": "uint256"
        },
        {
          "indexed": false,
          "internalType": "uint256",
          "name": "voteEnd",
          "type": "uint256"
        },
        {
          "indexed": false,
          "internalType": "string",
          "name": "description",
          "type": "string"
        }
      ],
      "name": "ProposalCreated",
      "type": "event"
    },
    {
      "anonymous": false,
      "inputs": [
        {
          "indexed": false,
          "internalType": "uint256",
          "name": "proposalId",
          "type": "uint256"
        }
      ],
      "name": "ProposalExecuted",
      "type": "event"
    },
    {
      "anonymous": false,
      "inputs": [
        {
          "indexed": false,
          "internalType": "uint256",
          "name": "oldProposalThreshold",
          "type": "uint256"
        },
        {
          "indexed": false,
          "internalType": "uint256",
          "name": "newProposalThreshold",
          "type": "uint256"
        }
      ],
      "name": "ProposalThresholdSet",
      "type": "event"
    },
    {
      "anonymous": false,
      "inputs": [
        {
          "indexed": true,
          "internalType": "address",
          "name": "voter",
          "type": "address"
        },
        {
          "indexed": false,
          "internalType": "uint256",
          "name": "proposalId",
          "type": "uint256"
        },
        {
          "indexed": false,
          "internalType": "uint8",
          "name": "support",
          "type": "uint8"
        },
        {
          "indexed": false,
          "internalType": "uint256",
          "name": "weight",
          "type": "uint256"
        },
        {
          "indexed": false,
          "internalType": "string",
          "name": "reason",
          "type": "string"
        }
      ],
      "name": "VoteCast",
      "type": "event"
    },
    {
      "anonymous": false,
      "inputs": [
        {
          "indexed": true,
          "internalType": "address",
          "name": "voter",
          "type": "address"
        },
        {
          "indexed": false,
          "internalType": "uint256",
          "name": "proposalId",
          "type": "uint256"
        },
        {
          "indexed": false,
          "internalType": "uint8",
          "name": "support",
          "type": "uint8"
        },
        {
          "indexed": false,
          "internalType": "uint256",
          "name": "weight",
          "type": "uint256"
        },
        {
          "indexed": false,
          "internalType": "string",
          "name": "reason",
          "type": "string"
        },
        {
          "indexed": false,
          "internalType": "bytes",
          "name": "params",
          "type": "bytes"
        }
      ],
      "name": "VoteCastWithParams",
      "type": "event"
    },
    {
      "anonymous": false,
      "inputs": [
        {
          "indexed": false,
          "internalType": "uint256",
          "name": "oldVotingDelay",
          "type": "uint256"
        },
        {
          "indexed": false,
          "internalType": "uint256",
          "name": "newVotingDelay",
          "type": "uint256"
        }
      ],
      "name": "VotingDelaySet",
      "type": "event"
    },
    {
      "anonymous": false,
      "inputs": [
        {
          "indexed": false,
          "internalType": "uint256",
          "name": "oldVotingPeriod",
          "type": "uint256"
        },
        {
          "indexed": false,
          "internalType": "uint256",
          "name": "newVotingPeriod",
          "type": "uint256"
        }
      ],
      "name": "VotingPeriodSet",
      "type": "event"
    },
    {
      "inputs": [],
      "name": "BALLOT_TYPEHASH",
      "outputs": [
        {
          "internalType": "bytes32",
          "name": "",
          "type": "bytes32"
        }
      ],
      "stateMutability": "view",
      "type": "function"
    },
    {
      "inputs": [],
      "name": "CLOCK_MODE",
      "outputs": [
        {
          "internalType": "string",
          "name": "",
          "type": "string"
        }
      ],
      "stateMutability": "view",
      "type": "function"
    },
    {
      "inputs": [],
      "name": "COUNTING_MODE",
      "outputs": [
        {
          "internalType": "string",
          "name": "",
          "type": "string"
        }
      ],
      "stateMutability": "pure",
      "type": "function"
    },
    {
      "inputs": [],
      "name": "EXTENDED_BALLOT_TYPEHASH",
      "outputs": [
        {
          "internalType": "bytes32",
          "name": "",
          "type": "bytes32"
        }
      ],
      "stateMutability": "view",
      "type": "function"
    },
    {
      "inputs": [
        {
          "internalType": "uint256",
          "name": "",
          "type": "uint256"
        }
      ],
      "name": "allProposalData",
      "outputs": [
        {
          "internalType": "uint256",
          "name": "proposalId",
          "type": "uint256"
        },
        {
          "internalType": "string",
          "name": "description",
          "type": "string"
        },
        {
          "internalType": "address",
          "name": "proposer",
          "type": "address"
        },
        {
          "internalType": "uint256",
          "name": "proposalStart",
          "type": "uint256"
        }
      ],
      "stateMutability": "view",
      "type": "function"
    },
    {
      "inputs": [
        {
          "internalType": "uint256",
          "name": "",
          "type": "uint256"
        }
      ],
      "name": "allProposalIds",
      "outputs": [
        {
          "internalType": "uint256",
          "name": "",
          "type": "uint256"
        }
      ],
      "stateMutability": "view",
      "type": "function"
    },
    {
      "inputs": [],
      "name": "callExecute",
      "outputs": [
        {
          "internalType": "string",
          "name": "message",
          "type": "string"
        }
      ],
      "stateMutability": "pure",
      "type": "function"
    },
    {
      "inputs": [
        {
          "internalType": "address[]",
          "name": "targets",
          "type": "address[]"
        },
        {
          "internalType": "uint256[]",
          "name": "values",
          "type": "uint256[]"
        },
        {
          "internalType": "bytes[]",
          "name": "calldatas",
          "type": "bytes[]"
        },
        {
          "internalType": "bytes32",
          "name": "descriptionHash",
          "type": "bytes32"
        }
      ],
      "name": "cancel",
      "outputs": [
        {
          "internalType": "uint256",
          "name": "",
          "type": "uint256"
        }
      ],
      "stateMutability": "nonpayable",
      "type": "function"
    },
    {
      "inputs": [
        {
          "internalType": "uint256",
          "name": "proposalId",
          "type": "uint256"
        },
        {
          "internalType": "uint8",
          "name": "support",
          "type": "uint8"
        }
      ],
      "name": "castVote",
      "outputs": [
        {
          "internalType": "uint256",
          "name": "",
          "type": "uint256"
        }
      ],
      "stateMutability": "nonpayable",
      "type": "function"
    },
    {
      "inputs": [
        {
          "internalType": "uint256",
          "name": "proposalId",
          "type": "uint256"
        },
        {
          "internalType": "uint8",
          "name": "support",
          "type": "uint8"
        },
        {
          "internalType": "uint8",
          "name": "v",
          "type": "uint8"
        },
        {
          "internalType": "bytes32",
          "name": "r",
          "type": "bytes32"
        },
        {
          "internalType": "bytes32",
          "name": "s",
          "type": "bytes32"
        }
      ],
      "name": "castVoteBySig",
      "outputs": [
        {
          "internalType": "uint256",
          "name": "",
          "type": "uint256"
        }
      ],
      "stateMutability": "nonpayable",
      "type": "function"
    },
    {
      "inputs": [
        {
          "internalType": "uint256",
          "name": "proposalId",
          "type": "uint256"
        },
        {
          "internalType": "uint8",
          "name": "support",
          "type": "uint8"
        },
        {
          "internalType": "string",
          "name": "reason",
          "type": "string"
        }
      ],
      "name": "castVoteWithReason",
      "outputs": [
        {
          "internalType": "uint256",
          "name": "",
          "type": "uint256"
        }
      ],
      "stateMutability": "nonpayable",
      "type": "function"
    },
    {
      "inputs": [
        {
          "internalType": "uint256",
          "name": "proposalId",
          "type": "uint256"
        },
        {
          "internalType": "uint8",
          "name": "support",
          "type": "uint8"
        },
        {
          "internalType": "string",
          "name": "reason",
          "type": "string"
        },
        {
          "internalType": "bytes",
          "name": "params",
          "type": "bytes"
        }
      ],
      "name": "castVoteWithReasonAndParams",
      "outputs": [
        {
          "internalType": "uint256",
          "name": "",
          "type": "uint256"
        }
      ],
      "stateMutability": "nonpayable",
      "type": "function"
    },
    {
      "inputs": [
        {
          "internalType": "uint256",
          "name": "proposalId",
          "type": "uint256"
        },
        {
          "internalType": "uint8",
          "name": "support",
          "type": "uint8"
        },
        {
          "internalType": "string",
          "name": "reason",
          "type": "string"
        },
        {
          "internalType": "bytes",
          "name": "params",
          "type": "bytes"
        },
        {
          "internalType": "uint8",
          "name": "v",
          "type": "uint8"
        },
        {
          "internalType": "bytes32",
          "name": "r",
          "type": "bytes32"
        },
        {
          "internalType": "bytes32",
          "name": "s",
          "type": "bytes32"
        }
      ],
      "name": "castVoteWithReasonAndParamsBySig",
      "outputs": [
        {
          "internalType": "uint256",
          "name": "",
          "type": "uint256"
        }
      ],
      "stateMutability": "nonpayable",
      "type": "function"
    },
    {
      "inputs": [],
      "name": "clock",
      "outputs": [
        {
          "internalType": "uint48",
          "name": "",
          "type": "uint48"
        }
      ],
      "stateMutability": "view",
      "type": "function"
    },
    {
      "inputs": [
        {
          "internalType": "uint256",
          "name": "",
          "type": "uint256"
        }
      ],
      "name": "collectionFinished",
      "outputs": [
        {
          "internalType": "bool",
          "name": "",
          "type": "bool"
        }
      ],
      "stateMutability": "view",
      "type": "function"
    },
    {
      "inputs": [
        {
          "internalType": "uint256",
          "name": "",
          "type": "uint256"
        }
      ],
      "name": "collectionStarted",
      "outputs": [
        {
          "internalType": "bool",
          "name": "",
          "type": "bool"
        }
      ],
      "stateMutability": "view",
      "type": "function"
    },
    {
      "inputs": [
        {
          "internalType": "address[]",
          "name": "targets",
          "type": "address[]"
        },
        {
          "internalType": "uint256[]",
          "name": "values",
          "type": "uint256[]"
        },
        {
          "internalType": "bytes[]",
          "name": "calldatas",
          "type": "bytes[]"
        },
        {
          "internalType": "string",
          "name": "description",
          "type": "string"
        },
        {
          "internalType": "address",
          "name": "_satelliteAddr",
          "type": "address"
        },
        {
          "internalType": "uint256[]",
          "name": "spokeChainFees",
          "type": "uint256[]"
        }
      ],
      "name": "crossChainPropose",
      "outputs": [
        {
          "internalType": "uint256",
          "name": "",
          "type": "uint256"
        }
      ],
      "stateMutability": "payable",
      "type": "function"
    },
    {
      "inputs": [],
      "name": "eip712Domain",
      "outputs": [
        {
          "internalType": "bytes1",
          "name": "fields",
          "type": "bytes1"
        },
        {
          "internalType": "string",
          "name": "name",
          "type": "string"
        },
        {
          "internalType": "string",
          "name": "version",
          "type": "string"
        },
        {
          "internalType": "uint256",
          "name": "chainId",
          "type": "uint256"
        },
        {
          "internalType": "address",
          "name": "verifyingContract",
          "type": "address"
        },
        {
          "internalType": "bytes32",
          "name": "salt",
          "type": "bytes32"
        },
        {
          "internalType": "uint256[]",
          "name": "extensions",
          "type": "uint256[]"
        }
      ],
      "stateMutability": "view",
      "type": "function"
    },
    {
      "inputs": [
        {
          "internalType": "address[]",
          "name": "targets",
          "type": "address[]"
        },
        {
          "internalType": "uint256[]",
          "name": "values",
          "type": "uint256[]"
        },
        {
          "internalType": "bytes[]",
          "name": "calldatas",
          "type": "bytes[]"
        },
        {
          "internalType": "bytes32",
          "name": "descriptionHash",
          "type": "bytes32"
        }
      ],
      "name": "execute",
      "outputs": [
        {
          "internalType": "uint256",
          "name": "",
          "type": "uint256"
        }
      ],
      "stateMutability": "payable",
      "type": "function"
    },
    {
      "inputs": [
        {
          "internalType": "bytes32",
          "name": "commandId",
          "type": "bytes32"
        },
        {
          "internalType": "string",
          "name": "sourceChain",
          "type": "string"
        },
        {
          "internalType": "string",
          "name": "sourceAddress",
          "type": "string"
        },
        {
          "internalType": "bytes",
          "name": "payload",
          "type": "bytes"
        }
      ],
      "name": "execute",
      "outputs": [],
      "stateMutability": "nonpayable",
      "type": "function"
    },
    {
      "inputs": [],
      "name": "executeProposal",
      "outputs": [],
      "stateMutability": "nonpayable",
      "type": "function"
    },
    {
      "inputs": [
        {
          "internalType": "bytes32",
          "name": "commandId",
          "type": "bytes32"
        },
        {
          "internalType": "string",
          "name": "sourceChain",
          "type": "string"
        },
        {
          "internalType": "string",
          "name": "sourceAddress",
          "type": "string"
        },
        {
          "internalType": "bytes",
          "name": "payload",
          "type": "bytes"
        },
        {
          "internalType": "string",
          "name": "tokenSymbol",
          "type": "string"
        },
        {
          "internalType": "uint256",
          "name": "amount",
          "type": "uint256"
        }
      ],
      "name": "executeWithToken",
      "outputs": [],
      "stateMutability": "nonpayable",
      "type": "function"
    },
    {
      "inputs": [
        {
          "internalType": "uint256",
          "name": "",
          "type": "uint256"
        }
      ],
      "name": "feesArray",
      "outputs": [
        {
          "internalType": "uint256",
          "name": "",
          "type": "uint256"
        }
      ],
      "stateMutability": "view",
      "type": "function"
    },
    {
      "inputs": [
        {
          "internalType": "uint256",
          "name": "",
          "type": "uint256"
        }
      ],
      "name": "feesArray2",
      "outputs": [
        {
          "internalType": "uint256",
          "name": "",
          "type": "uint256"
        }
      ],
      "stateMutability": "view",
      "type": "function"
    },
    {
      "inputs": [
        {
          "internalType": "uint256",
          "name": "_proposalId",
          "type": "uint256"
        }
      ],
      "name": "finishCollectionPhase",
      "outputs": [],
      "stateMutability": "nonpayable",
      "type": "function"
    },
    {
      "inputs": [],
      "name": "gasService",
      "outputs": [
        {
          "internalType": "contract IAxelarGasService",
          "name": "",
          "type": "address"
        }
      ],
      "stateMutability": "view",
      "type": "function"
    },
    {
      "inputs": [],
      "name": "gateway",
      "outputs": [
        {
          "internalType": "contract IAxelarGateway",
          "name": "",
          "type": "address"
        }
      ],
      "stateMutability": "view",
      "type": "function"
    },
    {
      "inputs": [],
      "name": "getAllProposalData",
      "outputs": [
        {
          "components": [
            {
              "internalType": "uint256",
              "name": "proposalId",
              "type": "uint256"
            },
            {
              "internalType": "address[]",
              "name": "targets",
              "type": "address[]"
            },
            {
              "internalType": "uint256[]",
              "name": "values",
              "type": "uint256[]"
            },
            {
              "internalType": "bytes[]",
              "name": "calldatas",
              "type": "bytes[]"
            },
            {
              "internalType": "string",
              "name": "description",
              "type": "string"
            },
            {
              "internalType": "address",
              "name": "proposer",
              "type": "address"
            },
            {
              "internalType": "uint256",
              "name": "proposalStart",
              "type": "uint256"
            }
          ],
          "internalType": "struct CrossChainDAO.ProposalData[]",
          "name": "",
          "type": "tuple[]"
        }
      ],
      "stateMutability": "view",
      "type": "function"
    },
    {
      "inputs": [],
      "name": "getAllProposalIds",
      "outputs": [
        {
          "internalType": "uint256[]",
          "name": "_allProposalIds",
          "type": "uint256[]"
        }
      ],
      "stateMutability": "view",
      "type": "function"
    },
    {
      "inputs": [],
      "name": "getAllVotes",
      "outputs": [],
      "stateMutability": "nonpayable",
      "type": "function"
    },
    {
      "inputs": [
        {
          "internalType": "uint256",
          "name": "_proposalId",
          "type": "uint256"
        }
      ],
      "name": "getParticularProposalData",
      "outputs": [
        {
          "components": [
            {
              "internalType": "uint256",
              "name": "proposalId",
              "type": "uint256"
            },
            {
              "internalType": "address[]",
              "name": "targets",
              "type": "address[]"
            },
            {
              "internalType": "uint256[]",
              "name": "values",
              "type": "uint256[]"
            },
            {
              "internalType": "bytes[]",
              "name": "calldatas",
              "type": "bytes[]"
            },
            {
              "internalType": "string",
              "name": "description",
              "type": "string"
            },
            {
              "internalType": "address",
              "name": "proposer",
              "type": "address"
            },
            {
              "internalType": "uint256",
              "name": "proposalStart",
              "type": "uint256"
            }
          ],
          "internalType": "struct CrossChainDAO.ProposalData",
          "name": "proposalData",
          "type": "tuple"
        }
      ],
      "stateMutability": "view",
      "type": "function"
    },
    {
      "inputs": [
        {
          "internalType": "address",
          "name": "proposer",
          "type": "address"
        }
      ],
      "name": "getProposalIdsByProposer",
      "outputs": [
        {
          "internalType": "uint256[]",
          "name": "proposalIds",
          "type": "uint256[]"
        }
      ],
      "stateMutability": "view",
      "type": "function"
    },
    {
      "inputs": [
        {
          "internalType": "address",
          "name": "account",
          "type": "address"
        },
        {
          "internalType": "uint256",
          "name": "timepoint",
          "type": "uint256"
        }
      ],
      "name": "getVotes",
      "outputs": [
        {
          "internalType": "uint256",
          "name": "",
          "type": "uint256"
        }
      ],
      "stateMutability": "view",
      "type": "function"
    },
    {
      "inputs": [
        {
          "internalType": "address",
          "name": "account",
          "type": "address"
        },
        {
          "internalType": "uint256",
          "name": "timepoint",
          "type": "uint256"
        },
        {
          "internalType": "bytes",
          "name": "params",
          "type": "bytes"
        }
      ],
      "name": "getVotesWithParams",
      "outputs": [
        {
          "internalType": "uint256",
          "name": "",
          "type": "uint256"
        }
      ],
      "stateMutability": "view",
      "type": "function"
    },
    {
      "inputs": [
        {
          "internalType": "uint256",
          "name": "proposalId",
          "type": "uint256"
        },
        {
          "internalType": "address",
          "name": "account",
          "type": "address"
        }
      ],
      "name": "hasVoted",
      "outputs": [
        {
          "internalType": "bool",
          "name": "",
          "type": "bool"
        }
      ],
      "stateMutability": "view",
      "type": "function"
    },
    {
      "inputs": [
        {
          "internalType": "address[]",
          "name": "targets",
          "type": "address[]"
        },
        {
          "internalType": "uint256[]",
          "name": "values",
          "type": "uint256[]"
        },
        {
          "internalType": "bytes[]",
          "name": "calldatas",
          "type": "bytes[]"
        },
        {
          "internalType": "bytes32",
          "name": "descriptionHash",
          "type": "bytes32"
        }
      ],
      "name": "hashProposal",
      "outputs": [
        {
          "internalType": "uint256",
          "name": "",
          "type": "uint256"
        }
      ],
      "stateMutability": "pure",
      "type": "function"
    },
    {
      "inputs": [],
      "name": "name",
      "outputs": [
        {
          "internalType": "string",
          "name": "",
          "type": "string"
        }
      ],
      "stateMutability": "view",
      "type": "function"
    },
    {
      "inputs": [
        {
          "internalType": "address",
          "name": "",
          "type": "address"
        },
        {
          "internalType": "address",
          "name": "",
          "type": "address"
        },
        {
          "internalType": "uint256[]",
          "name": "",
          "type": "uint256[]"
        },
        {
          "internalType": "uint256[]",
          "name": "",
          "type": "uint256[]"
        },
        {
          "internalType": "bytes",
          "name": "",
          "type": "bytes"
        }
      ],
      "name": "onERC1155BatchReceived",
      "outputs": [
        {
          "internalType": "bytes4",
          "name": "",
          "type": "bytes4"
        }
      ],
      "stateMutability": "nonpayable",
      "type": "function"
    },
    {
      "inputs": [
        {
          "internalType": "address",
          "name": "",
          "type": "address"
        },
        {
          "internalType": "address",
          "name": "",
          "type": "address"
        },
        {
          "internalType": "uint256",
          "name": "",
          "type": "uint256"
        },
        {
          "internalType": "uint256",
          "name": "",
          "type": "uint256"
        },
        {
          "internalType": "bytes",
          "name": "",
          "type": "bytes"
        }
      ],
      "name": "onERC1155Received",
      "outputs": [
        {
          "internalType": "bytes4",
          "name": "",
          "type": "bytes4"
        }
      ],
      "stateMutability": "nonpayable",
      "type": "function"
    },
    {
      "inputs": [
        {
          "internalType": "address",
          "name": "",
          "type": "address"
        },
        {
          "internalType": "address",
          "name": "",
          "type": "address"
        },
        {
          "internalType": "uint256",
          "name": "",
          "type": "uint256"
        },
        {
          "internalType": "bytes",
          "name": "",
          "type": "bytes"
        }
      ],
      "name": "onERC721Received",
      "outputs": [
        {
          "internalType": "bytes4",
          "name": "",
          "type": "bytes4"
        }
      ],
      "stateMutability": "nonpayable",
      "type": "function"
    },
    {
      "inputs": [
        {
          "internalType": "uint256",
          "name": "proposalId",
          "type": "uint256"
        }
      ],
      "name": "proposalDeadline",
      "outputs": [
        {
          "internalType": "uint256",
          "name": "",
          "type": "uint256"
        }
      ],
      "stateMutability": "view",
      "type": "function"
    },
    {
      "inputs": [
        {
          "internalType": "uint256",
          "name": "",
          "type": "uint256"
        },
        {
          "internalType": "uint32",
          "name": "",
          "type": "uint32"
        }
      ],
      "name": "proposalIdToChainIdToSpokeVotes",
      "outputs": [
        {
          "internalType": "uint256",
          "name": "forVotes",
          "type": "uint256"
        },
        {
          "internalType": "uint256",
          "name": "againstVotes",
          "type": "uint256"
        },
        {
          "internalType": "uint256",
          "name": "abstainVotes",
          "type": "uint256"
        },
        {
          "internalType": "bool",
          "name": "initialized",
          "type": "bool"
        }
      ],
      "stateMutability": "view",
      "type": "function"
    },
    {
      "inputs": [
        {
          "internalType": "uint256",
          "name": "",
          "type": "uint256"
        }
      ],
      "name": "proposalIdToProposalData",
      "outputs": [
        {
          "internalType": "uint256",
          "name": "proposalId",
          "type": "uint256"
        },
        {
          "internalType": "string",
          "name": "description",
          "type": "string"
        },
        {
          "internalType": "address",
          "name": "proposer",
          "type": "address"
        },
        {
          "internalType": "uint256",
          "name": "proposalStart",
          "type": "uint256"
        }
      ],
      "stateMutability": "view",
      "type": "function"
    },
    {
      "inputs": [
        {
          "internalType": "uint256",
          "name": "proposalId",
          "type": "uint256"
        }
      ],
      "name": "proposalProposer",
      "outputs": [
        {
          "internalType": "address",
          "name": "",
          "type": "address"
        }
      ],
      "stateMutability": "view",
      "type": "function"
    },
    {
      "inputs": [
        {
          "internalType": "uint256",
          "name": "proposalId",
          "type": "uint256"
        }
      ],
      "name": "proposalSnapshot",
      "outputs": [
        {
          "internalType": "uint256",
          "name": "",
          "type": "uint256"
        }
      ],
      "stateMutability": "view",
      "type": "function"
    },
    {
      "inputs": [],
      "name": "proposalThreshold",
      "outputs": [
        {
          "internalType": "uint256",
          "name": "",
          "type": "uint256"
        }
      ],
      "stateMutability": "view",
      "type": "function"
    },
    {
      "inputs": [
        {
          "internalType": "uint256",
          "name": "proposalId",
          "type": "uint256"
        }
      ],
      "name": "proposalVotes",
      "outputs": [
        {
          "internalType": "uint256",
          "name": "againstVotes",
          "type": "uint256"
        },
        {
          "internalType": "uint256",
          "name": "forVotes",
          "type": "uint256"
        },
        {
          "internalType": "uint256",
          "name": "abstainVotes",
          "type": "uint256"
        }
      ],
      "stateMutability": "view",
      "type": "function"
    },
    {
      "inputs": [
        {
          "internalType": "address[]",
          "name": "targets",
          "type": "address[]"
        },
        {
          "internalType": "uint256[]",
          "name": "values",
          "type": "uint256[]"
        },
        {
          "internalType": "bytes[]",
          "name": "calldatas",
          "type": "bytes[]"
        },
        {
          "internalType": "string",
          "name": "description",
          "type": "string"
        }
      ],
      "name": "propose",
      "outputs": [
        {
          "internalType": "uint256",
          "name": "",
          "type": "uint256"
        }
      ],
      "stateMutability": "nonpayable",
      "type": "function"
    },
    {
      "inputs": [
        {
          "internalType": "address",
          "name": "",
          "type": "address"
        },
        {
          "internalType": "uint256",
          "name": "",
          "type": "uint256"
        }
      ],
      "name": "proposerToProposalIds",
      "outputs": [
        {
          "internalType": "uint256",
          "name": "",
          "type": "uint256"
        }
      ],
      "stateMutability": "view",
      "type": "function"
    },
    {
      "inputs": [
        {
          "internalType": "uint256",
          "name": "blockNumber",
          "type": "uint256"
        }
      ],
      "name": "quorum",
      "outputs": [
        {
          "internalType": "uint256",
          "name": "",
          "type": "uint256"
        }
      ],
      "stateMutability": "pure",
      "type": "function"
    },
    {
      "inputs": [
        {
          "internalType": "address",
          "name": "target",
          "type": "address"
        },
        {
          "internalType": "uint256",
          "name": "value",
          "type": "uint256"
        },
        {
          "internalType": "bytes",
          "name": "data",
          "type": "bytes"
        }
      ],
      "name": "relay",
      "outputs": [],
      "stateMutability": "payable",
      "type": "function"
    },
    {
      "inputs": [
        {
          "internalType": "uint256",
          "name": "_proposalId",
          "type": "uint256"
        },
        {
          "internalType": "address",
          "name": "_satelliteAddr",
          "type": "address"
        },
        {
          "internalType": "uint256[]",
          "name": "spokeChainFees",
          "type": "uint256[]"
        }
      ],
      "name": "requestCollections",
      "outputs": [],
      "stateMutability": "payable",
      "type": "function"
    },
    {
      "inputs": [
        {
          "internalType": "uint256",
          "name": "newProposalThreshold",
          "type": "uint256"
        }
      ],
      "name": "setProposalThreshold",
      "outputs": [],
      "stateMutability": "nonpayable",
      "type": "function"
    },
    {
      "inputs": [
        {
          "internalType": "uint256",
          "name": "newVotingDelay",
          "type": "uint256"
        }
      ],
      "name": "setVotingDelay",
      "outputs": [],
      "stateMutability": "nonpayable",
      "type": "function"
    },
    {
      "inputs": [
        {
          "internalType": "uint256",
          "name": "newVotingPeriod",
          "type": "uint256"
        }
      ],
      "name": "setVotingPeriod",
      "outputs": [],
      "stateMutability": "nonpayable",
      "type": "function"
    },
    {
      "inputs": [
        {
          "internalType": "string",
          "name": "",
          "type": "string"
        }
      ],
      "name": "spokeChainNameToChainId",
      "outputs": [
        {
          "internalType": "uint32",
          "name": "",
          "type": "uint32"
        }
      ],
      "stateMutability": "view",
      "type": "function"
    },
    {
      "inputs": [
        {
          "internalType": "uint256",
          "name": "",
          "type": "uint256"
        }
      ],
      "name": "spokeChainNames",
      "outputs": [
        {
          "internalType": "string",
          "name": "",
          "type": "string"
        }
      ],
      "stateMutability": "view",
      "type": "function"
    },
    {
      "inputs": [
        {
          "internalType": "uint256",
          "name": "",
          "type": "uint256"
        }
      ],
      "name": "spokeChains",
      "outputs": [
        {
          "internalType": "uint32",
          "name": "",
          "type": "uint32"
        }
      ],
      "stateMutability": "view",
      "type": "function"
    },
    {
      "inputs": [
        {
          "internalType": "uint256",
          "name": "proposalId",
          "type": "uint256"
        }
      ],
      "name": "state",
      "outputs": [
        {
          "internalType": "enum IGovernor.ProposalState",
          "name": "",
          "type": "uint8"
        }
      ],
      "stateMutability": "view",
      "type": "function"
    },
    {
      "inputs": [
        {
          "internalType": "bytes4",
          "name": "interfaceId",
          "type": "bytes4"
        }
      ],
      "name": "supportsInterface",
      "outputs": [
        {
          "internalType": "bool",
          "name": "",
          "type": "bool"
        }
      ],
      "stateMutability": "view",
      "type": "function"
    },
    {
      "inputs": [],
      "name": "token",
      "outputs": [
        {
          "internalType": "contract IERC5805",
          "name": "",
          "type": "address"
        }
      ],
      "stateMutability": "view",
      "type": "function"
    },
    {
      "inputs": [],
      "name": "version",
      "outputs": [
        {
          "internalType": "string",
          "name": "",
          "type": "string"
        }
      ],
      "stateMutability": "view",
      "type": "function"
    },
    {
      "inputs": [],
      "name": "votingDelay",
      "outputs": [
        {
          "internalType": "uint256",
          "name": "",
          "type": "uint256"
        }
      ],
      "stateMutability": "view",
      "type": "function"
    },
    {
      "inputs": [],
      "name": "votingPeriod",
      "outputs": [
        {
          "internalType": "uint256",
          "name": "",
          "type": "uint256"
        }
      ],
      "stateMutability": "view",
      "type": "function"
    },
    {
      "stateMutability": "payable",
      "type": "receive"
    }
  ],
  "bytecode": "0x6102406040526341e2306760e11b6101c0526317a8bd6160e01b6101e05263e14e325160e01b61020052630d61b51960e01b610220523480156200004257600080fd5b5060405162006aa038038062006aa083398101604081905262000065916200086f565b8482826000601e60006040518060400160405280600d81526020016c43726f7373436861696e44414f60981b81525080620000a56200027760201b60201c565b8c6001600160a01b038116620000ce5760405163e6c4247b60e01b815260040160405180910390fd5b6001600160a01b0316608052620000f382600062000292602090811b6200305b17901c565b610140526200011081600162000292602090811b6200305b17901c565b61016052815160208084019190912061010052815190820120610120524660c052620001a06101005161012051604080517f8b73c3c69bb8fe3d512ecc4cf759cc79239f7b179b0ffacaa9a75d522b39400f60208201529081019290925260608201524660808201523060a082015260009060c00160405160208183030381529060405280519060200120905090565b60a05250503060e0528051620001be90600290602084019062000543565b50620001cc905083620002e6565b620001d78262000327565b620001e281620003ce565b505050600082806020019051810190620001fd919062000940565b9050600082806020019051810190620002179190620009f3565b90506200022582826200040f565b81516200023a906009906020850190620005d2565b5080516200025090600a90602084019062000683565b5050506001600160a01b03928316610180525050929092166101a0525062000bbe92505050565b6040805180820190915260018152603160f81b602082015290565b6000602083511015620002b257620002aa83620004fd565b9050620002e0565b82620002c9836200054060201b620030921760201c565b8151620002da926020019062000543565b5060ff90505b92915050565b60065460408051918252602082018390527fc565b045403dc03c2eea82b81a0465edad9e2e7fc4d97e11421c209da93d7a93910160405180910390a1600655565b600081116200038d5760405162461bcd60e51b815260206004820152602760248201527f476f7665726e6f7253657474696e67733a20766f74696e6720706572696f6420604482015266746f6f206c6f7760c81b60648201526084015b60405180910390fd5b60075460408051918252602082018390527f7e3f7f0708a84de9203036abaa450dccc85ad5ff52f78c170f3edb55cf5e8828910160405180910390a1600755565b60085460408051918252602082018390527fccb45da8d5717e6c4544694297c4ba5cf151d455c9bb0ed4fc7a38411bc05461910160405180910390a1600855565b8051825114620004565760405162461bcd60e51b81526020600482015260116024820152706e6f7420657175616c206c656e6774687360781b604482015260640162000384565b60005b82518161ffff161015620004f857828161ffff168151811062000480576200048062000ac5565b6020026020010151600b838361ffff1681518110620004a357620004a362000ac5565b6020026020010151604051620004ba919062000adb565b908152604051908190036020019020805463ffffffff9290921663ffffffff1990921691909117905580620004ef8162000af9565b91505062000459565b505050565b600080829050601f815111156200052b578260405163305a27a960e01b815260040162000384919062000b2a565b8051620005388262000b5f565b179392505050565b90565b828054620005519062000b87565b90600052602060002090601f016020900481019282620005755760008555620005c0565b82601f106200059057805160ff1916838001178555620005c0565b82800160010185558215620005c0579182015b82811115620005c0578251825591602001919060010190620005a3565b50620005ce929150620006e3565b5090565b82805482825590600052602060002090600701600890048101928215620005c05791602002820160005b838211156200064257835183826101000a81548163ffffffff021916908363ffffffff1602179055509260200192600401602081600301049283019260010302620005fc565b8015620006745782816101000a81549063ffffffff021916905560040160208160030104928301926001030262000642565b5050620005ce929150620006e3565b828054828255906000526020600020908101928215620006d5579160200282015b82811115620006d55782518051620006c491849160209091019062000543565b5091602001919060010190620006a4565b50620005ce929150620006fa565b5b80821115620005ce5760008155600101620006e4565b80821115620005ce5760006200071182826200071b565b50600101620006fa565b508054620007299062000b87565b6000825580601f106200073a575050565b601f0160209004906000526020600020908101906200075a9190620006e3565b50565b6001600160a01b03811681146200075a57600080fd5b634e487b7160e01b600052604160045260246000fd5b604051601f8201601f191681016001600160401b0381118282101715620007b457620007b462000773565b604052919050565b60005b83811015620007d9578181015183820152602001620007bf565b83811115620007e9576000848401525b50505050565b60006001600160401b038311156200080b576200080b62000773565b62000820601f8401601f191660200162000789565b90508281528383830111156200083557600080fd5b62000845836020830184620007bc565b9392505050565b600082601f8301126200085e57600080fd5b6200084583835160208501620007ef565b600080600080600060a086880312156200088857600080fd5b855162000895816200075d565b6020870151909550620008a8816200075d565b6040870151909450620008bb816200075d565b60608701519093506001600160401b0380821115620008d957600080fd5b620008e789838a016200084c565b93506080880151915080821115620008fe57600080fd5b506200090d888289016200084c565b9150509295509295909350565b60006001600160401b0382111562000936576200093662000773565b5060051b60200190565b600060208083850312156200095457600080fd5b82516001600160401b038111156200096b57600080fd5b8301601f810185136200097d57600080fd5b8051620009946200098e826200091a565b62000789565b81815260059190911b82018301908381019087831115620009b457600080fd5b928401925b82841015620009e857835163ffffffff81168114620009d85760008081fd5b82529284019290840190620009b9565b979650505050505050565b6000602080838503121562000a0757600080fd5b82516001600160401b038082111562000a1f57600080fd5b818501915085601f83011262000a3457600080fd5b815162000a456200098e826200091a565b81815260059190911b8301840190848101908883111562000a6557600080fd5b8585015b8381101562000ab85780518581111562000a835760008081fd5b8601603f81018b1362000a965760008081fd5b62000aa98b8983015160408401620007ef565b84525091860191860162000a69565b5098975050505050505050565b634e487b7160e01b600052603260045260246000fd5b6000825162000aef818460208701620007bc565b9190910192915050565b600061ffff8083168181141562000b2057634e487b7160e01b600052601160045260246000fd5b6001019392505050565b602081526000825180602084015262000b4b816040850160208701620007bc565b601f01601f19169190910160400192915050565b8051602080830151919081101562000b81576000198160200360031b1b821691505b50919050565b600181811c9082168062000b9c57607f821691505b6020821081141562000b8157634e487b7160e01b600052602260045260246000fd5b60805160a05160c05160e05161010051610120516101405161016051610180516101a0516101c0516101e0516102005161022051615e0162000c9f6000396000613a180152600061399701526000505060005050600081816108ed015281816112710152612782015260008181610d9d01528181611bc2015281816124880152613d1f015260006124340152600061240a01526000613fae01526000613f8601526000613ee101526000613f0b01526000613f3501526000818161049d015281816113230152818161153601528181611af801526128340152615e016000f3fe6080604052600436106103c75760003560e01c80637b3c71d3116101f2578063c59057e41161010d578063ea0217cf116100a0578063efc935511161006f578063efc9355114610d15578063f23a6e6114610d37578063f8ce560a14610d63578063fc0c546a14610d8b57600080fd5b8063ea0217cf14610ca0578063eb9019d414610cc0578063ece40cc114610ce0578063efa90d3614610d0057600080fd5b8063d475416b116100dc578063d475416b14610bf1578063dd4e2ba514610c11578063deaaa7cc14610c57578063e6c0ca7514610c8b57600080fd5b8063c59057e414610b71578063c90961e214610b91578063c97bfe6b14610bb1578063c9f150be14610bd157600080fd5b80639ab36bca11610185578063be3c840d11610154578063be3c840d14610ad5578063be43a6f514610af5578063c01f9e3714610b25578063c28bc2fa14610b5e57600080fd5b80639ab36bca14610a51578063a6b3d8d814610a64578063b58131b014610a94578063bc197c8114610aa957600080fd5b8063851b6ef2116101c1578063851b6ef2146106d457806391ddadf4146109c7578063999089f2146109f35780639a802a6d14610a3157600080fd5b80637b3c71d31461092f5780637d5e81e21461094f578063835f6ac41461096f57806384b0196e1461099f57600080fd5b8063373058b8116102e2578063544ffc9c1161027557806360f967f61161024457806360f967f61461087957806366a74b07146108a65780636a22d8cc146108db57806370b0f6601461090f57600080fd5b8063544ffc9c146107ba57806354fd4d501461080f57806356781388146108395780635f398a141461085957600080fd5b806343859632116102b15780634385963214610745578063452115d61461076557806349160658146107855780634bf5d7e9146107a557600080fd5b8063373058b8146106d45780633932abb1146106e35780633bccf4fd146106f85780633e4f49e61461071857600080fd5b80631a98b2e01161035a5780632d63f693116103295780632d63f6931461061d5780632fe3e26114610653578063323bef091461068757806334b64838146106b457600080fd5b80631a98b2e0146105585780632656227d14610578578063266f46781461058b5780632c3dead0146105ab57600080fd5b8063091679b311610396578063091679b314610478578063116191b61461048b578063143489d0146104d7578063150b7a021461051457600080fd5b806301ffc9a7146103de57806302a251a314610413578063034201811461043657806306fdde031461045657600080fd5b366103d957005b60405180910390fd5b005b600080fd5b3480156103ea57600080fd5b506103fe6103f93660046147bc565b610dbf565b60405190151581526020015b60405180910390f35b34801561041f57600080fd5b50610428610e5c565b60405190815260200161040a565b34801561044257600080fd5b50610428610451366004614902565b610e6c565b34801561046257600080fd5b5061046b610f64565b60405161040a9190614a04565b610428610486366004614b98565b610ff6565b34801561049757600080fd5b506104bf7f000000000000000000000000000000000000000000000000000000000000000081565b6040516001600160a01b03909116815260200161040a565b3480156104e357600080fd5b506104bf6104f2366004614c78565b600090815260036020526040902054600160401b90046001600160a01b031690565b34801561052057600080fd5b5061053f61052f366004614c91565b630a85bd0160e11b949350505050565b6040516001600160e01b0319909116815260200161040a565b34801561056457600080fd5b506103d7610573366004614cf8565b611505565b610428610586366004614dd1565b6115f7565b34801561059757600080fd5b506104286105a6366004614c78565b611723565b3480156105b757600080fd5b506105fb6105c6366004614e60565b600c60209081526000928352604080842090915290825290208054600182015460028301546003909301549192909160ff1684565b604080519485526020850193909352918301521515606082015260800161040a565b34801561062957600080fd5b50610428610638366004614c78565b6000908152600360205260409020546001600160401b031690565b34801561065f57600080fd5b506104287fb3b3f3b703cd84ce352197dcff232b1b5d3cfb2025ce47cf04742d0651f1af8881565b34801561069357600080fd5b506106a76106a2366004614e99565b611744565b60405161040a9190614eef565b3480156106c057600080fd5b506104286106cf366004614f02565b6117b0565b3480156106e057600080fd5b50005b3480156106ef57600080fd5b506104286117e1565b34801561070457600080fd5b50610428610713366004614f2c565b6117ec565b34801561072457600080fd5b50610738610733366004614c78565b611862565b60405161040a9190614f90565b34801561075157600080fd5b506103fe610760366004614fb8565b611990565b34801561077157600080fd5b50610428610780366004614dd1565b6119c0565b34801561079157600080fd5b506103d76107a0366004614fe4565b611ac7565b3480156107b157600080fd5b5061046b611bbe565b3480156107c657600080fd5b506107f46107d5366004614c78565b6000908152600d60205260409020805460018201546002909201549092565b6040805193845260208401929092529082015260600161040a565b34801561081b57600080fd5b506040805180820190915260018152603160f81b602082015261046b565b34801561084557600080fd5b50610428610854366004615087565b611c8f565b34801561086557600080fd5b506104286108743660046150aa565b611cb8565b34801561088557600080fd5b50610899610894366004614c78565b611d02565b60405161040a9190615250565b3480156108b257600080fd5b506108c66108c1366004614c78565b611fb1565b60405163ffffffff909116815260200161040a565b3480156108e757600080fd5b506104bf7f000000000000000000000000000000000000000000000000000000000000000081565b34801561091b57600080fd5b506103d761092a366004614c78565b611feb565b34801561093b57600080fd5b5061042861094a366004615263565b612032565b34801561095b57600080fd5b5061042861096a3660046152bc565b61207a565b34801561097b57600080fd5b506103fe61098a366004614c78565b600f6020526000908152604090205460ff1681565b3480156109ab57600080fd5b506109b46123fc565b60405161040a979695949392919061535c565b3480156109d357600080fd5b506109dc612484565b60405165ffffffffffff909116815260200161040a565b3480156109ff57600080fd5b506108c6610a0e3660046153be565b8051602081830181018051600b8252928201919093012091525463ffffffff1681565b348015610a3d57600080fd5b50610428610a4c3660046153f2565b61251c565b6103d7610a5f366004615448565b612533565b348015610a7057600080fd5b50610a84610a7f366004614c78565b612901565b60405161040a9493929190615494565b348015610aa057600080fd5b506104286129bc565b348015610ab557600080fd5b5061053f610ac43660046154c9565b63bc197c8160e01b95945050505050565b348015610ae157600080fd5b506103d7610af0366004614c78565b6129c7565b348015610b0157600080fd5b506103fe610b10366004614c78565b600e6020526000908152604090205460ff1681565b348015610b3157600080fd5b50610428610b40366004614c78565b6000908152600360205260409020600101546001600160401b031690565b6103d7610b6c366004615558565b612a83565b348015610b7d57600080fd5b50610428610b8c366004614dd1565b612b4f565b348015610b9d57600080fd5b50610428610bac366004614c78565b612b89565b348015610bbd57600080fd5b50610428610bcc366004614c78565b612b99565b348015610bdd57600080fd5b50610a84610bec366004614c78565b612ba9565b348015610bfd57600080fd5b5061046b610c0c366004614c78565b612bde565b348015610c1d57600080fd5b506040805180820190915260208082527f737570706f72743d627261766f2671756f72756d3d666f722c6162737461696e9082015261046b565b348015610c6357600080fd5b506104287f150214d74d59b7d1e90c73fc22ef3d991dd0a76b046543d4d80ab92d2a50328f81565b348015610c9757600080fd5b5061046b612c8a565b348015610cac57600080fd5b506103d7610cbb366004614c78565b612caa565b348015610ccc57600080fd5b50610428610cdb366004614f02565b612cee565b348015610cec57600080fd5b506103d7610cfb366004614c78565b612d0f565b348015610d0c57600080fd5b506106a7612d53565b348015610d2157600080fd5b50610d2a612daa565b60405161040a9190615599565b348015610d4357600080fd5b5061053f610d523660046155fb565b63f23a6e6160e01b95945050505050565b348015610d6f57600080fd5b50610428610d7e366004614c78565b50670de0b6b3a764000090565b348015610d9757600080fd5b506104bf7f000000000000000000000000000000000000000000000000000000000000000081565b600063288ace0360e11b6318df743f60e31b63bf26d89760e01b6379dd796f60e01b6001600160e01b03198616821480610e0557506001600160e01b0319868116908216145b80610e1c57506001600160e01b0319868116908516145b80610e3757506001600160e01b03198616630271189760e51b145b80610e5257506301ffc9a760e01b6001600160e01b03198716145b9695505050505050565b6000610e6760075490565b905090565b600080610f10610f087fb3b3f3b703cd84ce352197dcff232b1b5d3cfb2025ce47cf04742d0651f1af888c8c8c8c604051610ea892919061565f565b60405180910390208b80519060200120604051602001610eed959493929190948552602085019390935260ff9190911660408401526060830152608082015260a00190565b60405160208183030381529060405280519060200120613095565b8686866130c2565b9050610f568a828b8b8b8080601f0160208091040260200160405190810160405280939291908181526020018383808284376000920191909152508d92506130e0915050565b9a9950505050505050505050565b606060028054610f739061566f565b80601f0160208091040260200160405190810160405280929190818152602001828054610f9f9061566f565b8015610fec5780601f10610fc157610100808354040283529160200191610fec565b820191906000526020600020905b815481529060010190602001808311610fcf57829003601f168201915b5050505050905090565b60008060005b835181101561103e57838181518110611017576110176156aa565b60200260200101518261102a91906156d6565b915080611036816156ee565b915050610ffc565b508034101561105f5760405162461bcd60e51b81526004016103ce90615709565b600061106d8989898961207a565b6040805160e08101825282815260208082018d81529282018c9052606082018b9052608082018a90523360a08301524260c0830181905260138054600181018255600091909152835160079091027f66de8ffda797e3de9c05e8fc57b3bf0ec28a930d40b0d285d93c06501cf6a0908101918255945180519697509195939485949193611121937f66de8ffda797e3de9c05e8fc57b3bf0ec28a930d40b0d285d93c06501cf6a091909201929101906145e8565b506040820151805161113d916002840191602090910190614649565b5060608201518051611159916003840191602090910190614684565b50608082015180516111759160048401916020909101906146dd565b5060a08201516005820180546001600160a01b0319166001600160a01b0390921691909117905560c090910151600690910155600a54156113eb5760005b600a5461ffff821610156113e9576000878261ffff16815181106111d9576111d96156aa565b60209081029190910101516010805460018101825560009182527f1b6847dc741a1b0cd08d278845f9d819d87b734759afb55fe2de5cb82a9ae672018290556080850151604051929350909161123691889188919060240161574d565b60408051601f198184030181529190526020810180516001600160e01b03166317a8bd6160e01b179052600a80549192506001600160a01b037f00000000000000000000000000000000000000000000000000000000000000001691630c93e3bb91859130919061ffff89169081106112b1576112b16156aa565b906000526020600020016112cd8f6001600160a01b0316613232565b86336040518763ffffffff1660e01b81526004016112ef95949392919061580c565b6000604051808303818588803b15801561130857600080fd5b505af115801561131c573d6000803e3d6000fd5b50505050507f00000000000000000000000000000000000000000000000000000000000000006001600160a01b0316631c92115f600a8561ffff1681548110611367576113676156aa565b906000526020600020016113838d6001600160a01b0316613232565b846040518463ffffffff1660e01b81526004016113a29392919061586a565b600060405180830381600087803b1580156113bc57600080fd5b505af11580156113d0573d6000803e3d6000fd5b50505050505080806113e1906158a3565b9150506111b3565b505b60008381526014602090815260409091208251815581830151805184936114199260018501929101906145e8565b5060408201518051611435916002840191602090910190614649565b5060608201518051611451916003840191602090910190614684565b506080820151805161146d9160048401916020909101906146dd565b5060a08201516005820180546001600160a01b0319166001600160a01b0390921691909117905560c090910151600690910155505033600090815260156020908152604082208054600181810183559184529183209091018390556012805491820181559091527fbb8a6a4669ba250d26cd7a459eca9d215f8307e33aebe50379bc5a3617ec34440181905598975050505050505050565b6000858560405161151792919061565f565b604051908190038120631876eed960e01b825291506001600160a01b037f00000000000000000000000000000000000000000000000000000000000000001690631876eed99061157b908e908e908e908e908e9089908d908d908d906004016158ee565b602060405180830381600087803b15801561159557600080fd5b505af11580156115a9573d6000803e3d6000fd5b505050506040513d601f19601f820116820180604052508101906115cd919061594d565b6115ea57604051631403112d60e21b815260040160405180910390fd5b5050505050505050505050565b60008061160686868686612b4f565b9050600061161382611862565b9050600481600781111561162957611629614f7a565b14806116465750600581600781111561164457611644614f7a565b145b61169c5760405162461bcd60e51b815260206004820152602160248201527f476f7665726e6f723a2070726f706f73616c206e6f74207375636365737366756044820152601b60fa1b60648201526084016103ce565b60008281526003602052604090819020600201805460ff19166001179055517f712ae1383f79ac853f8d882153778e0260ef8f03b504e2866e0593e04d2b291f906116ea9084815260200190565b60405180910390a16116ff8288888888613472565b61170c8288888888613500565b61171982888888886135f6565b5095945050505050565b6011818154811061173357600080fd5b600091825260209091200154905081565b6001600160a01b0381166000908152601560209081526040918290208054835181840281018401909452808452606093928301828280156117a457602002820191906000526020600020905b815481526020019060010190808311611790575b50505050509050919050565b601560205281600052604060002081815481106117cc57600080fd5b90600052602060002001600091509150505481565b6000610e6760065490565b604080517f150214d74d59b7d1e90c73fc22ef3d991dd0a76b046543d4d80ab92d2a50328f602082015290810186905260ff85166060820152600090819061183a90610f0890608001610eed565b9050611857878288604051806020016040528060008152506135fb565b979650505050505050565b6000818152600360205260408120600281015460ff16156118865750600792915050565b6002810154610100900460ff16156118a15750600292915050565b6000838152600360205260409020546001600160401b0316806119065760405162461bcd60e51b815260206004820152601d60248201527f476f7665726e6f723a20756e6b6e6f776e2070726f706f73616c20696400000060448201526064016103ce565b6000611910612484565b65ffffffffffff16905080821061192c57506000949350505050565b6000858152600360205260409020600101546001600160401b031681811061195a5750600195945050505050565b61196386613627565b8015611973575061197386613726565b156119845750600495945050505050565b50600395945050505050565b6000828152600d602090815260408083206001600160a01b038516845260030190915290205460ff165b92915050565b6000806119cf86868686612b4f565b905060006119dc82611862565b60078111156119ed576119ed614f7a565b14611a3a5760405162461bcd60e51b815260206004820152601c60248201527f476f7665726e6f723a20746f6f206c61746520746f2063616e63656c0000000060448201526064016103ce565b600081815260036020526040902054600160401b90046001600160a01b0316336001600160a01b031614611abb5760405162461bcd60e51b815260206004820152602260248201527f476f7665726e6f723a206f6e6c792070726f706f7365722063616e2063616e63604482015261195b60f21b60648201526084016103ce565b610e52868686866137f4565b60008282604051611ad992919061565f565b604051908190038120635f6970c360e01b825291506001600160a01b037f00000000000000000000000000000000000000000000000000000000000000001690635f6970c390611b37908b908b908b908b908b90899060040161596f565b602060405180830381600087803b158015611b5157600080fd5b505af1158015611b65573d6000803e3d6000fd5b505050506040513d601f19601f82011682018060405250810190611b89919061594d565b611ba657604051631403112d60e21b815260040160405180910390fd5b611bb4878787878787613912565b5050505050505050565b60607f00000000000000000000000000000000000000000000000000000000000000006001600160a01b0316634bf5d7e96040518163ffffffff1660e01b815260040160006040518083038186803b158015611c1957600080fd5b505afa925050508015611c4e57506040513d6000823e601f3d908101601f19168201604052611c4b91908101906159b0565b60015b611c8a575060408051808201909152601d81527f6d6f64653d626c6f636b6e756d6265722666726f6d3d64656661756c74000000602082015290565b919050565b600080339050611cb0848285604051806020016040528060008152506135fb565b949350505050565b60008033905061185787828888888080601f0160208091040260200160405190810160405280939291908181526020018383808284376000920191909152508a92506130e0915050565b611d4b6040518060e00160405280600081526020016060815260200160608152602001606081526020016060815260200160006001600160a01b03168152602001600081525090565b600082815260146020908152604091829020825160e0810184528154815260018201805485518186028101860190965280865291949293858101939290830182828015611dc157602002820191906000526020600020905b81546001600160a01b03168152600190910190602001808311611da3575b5050505050815260200160028201805480602002602001604051908101604052809291908181526020018280548015611e1957602002820191906000526020600020905b815481526020019060010190808311611e05575b5050505050815260200160038201805480602002602001604051908101604052809291908181526020016000905b82821015611ef3578382906000526020600020018054611e669061566f565b80601f0160208091040260200160405190810160405280929190818152602001828054611e929061566f565b8015611edf5780601f10611eb457610100808354040283529160200191611edf565b820191906000526020600020905b815481529060010190602001808311611ec257829003601f168201915b505050505081526020019060010190611e47565b505050508152602001600482018054611f0b9061566f565b80601f0160208091040260200160405190810160405280929190818152602001828054611f379061566f565b8015611f845780601f10611f5957610100808354040283529160200191611f84565b820191906000526020600020905b815481529060010190602001808311611f6757829003601f168201915b505050918352505060058201546001600160a01b0316602082015260069091015460409091015292915050565b60098181548110611fc157600080fd5b9060005260206000209060089182820401919006600402915054906101000a900463ffffffff1681565b33301461200a5760405162461bcd60e51b81526004016103ce90615a1d565b612026565b8061201a6004613abf565b146120245761200f565b505b61202f81613b3e565b50565b600080339050610e5286828787878080601f0160208091040260200160405190810160405280939291908181526020018383808284376000920191909152506135fb92505050565b60003381612086612484565b65ffffffffffff1690506120986129bc565b6120a783610cdb600185615a54565b101561210f5760405162461bcd60e51b815260206004820152603160248201527f476f7665726e6f723a2070726f706f73657220766f7465732062656c6f7720706044820152701c9bdc1bdcd85b081d1a1c995cda1bdb19607a1b60648201526084016103ce565b60006121248888888880519060200120612b4f565b905086518851146121475760405162461bcd60e51b81526004016103ce90615a6b565b85518851146121685760405162461bcd60e51b81526004016103ce90615a6b565b60008851116121b95760405162461bcd60e51b815260206004820152601860248201527f476f7665726e6f723a20656d7074792070726f706f73616c000000000000000060448201526064016103ce565b6000818152600360205260409020546001600160401b0316156122285760405162461bcd60e51b815260206004820152602160248201527f476f7665726e6f723a2070726f706f73616c20616c72656164792065786973746044820152607360f81b60648201526084016103ce565b60006122326117e1565b61223c90846156d6565b90506000612248610e5c565b61225290836156d6565b90506040518060e0016040528061226884613b7f565b6001600160401b031681526001600160a01b03871660208201526000604082015260600161229583613b7f565b6001600160401b039081168252600060208084018290526040808501839052606094850183905288835260038252918290208551815492870151878501519186166001600160e01b031990941693909317600160401b6001600160a01b039094168402176001600160e01b0316600160e01b60e09290921c91909102178155938501516080860151908416921c0217600183015560a08301516002909201805460c09094015161ffff1990941692151561ff00191692909217610100931515939093029290921790558a517f7d84a6263ae0d98d3329bd7b46bb4e8d6f98cd35a7adb45c274c8b7fd5ebd5e091859188918e918e918111156123995761239961483f565b6040519080825280602002602001820160405280156123cc57816020015b60608152602001906001900390816123b75790505b508d88888f6040516123e699989796959493929190615aac565b60405180910390a1509098975050505050505050565b60006060808280808361242f7f000000000000000000000000000000000000000000000000000000000000000083613beb565b61245a7f00000000000000000000000000000000000000000000000000000000000000006001613beb565b60408051600080825260208201909252600f60f81b9b939a50919850469750309650945092509050565b60007f00000000000000000000000000000000000000000000000000000000000000006001600160a01b03166391ddadf46040518163ffffffff1660e01b815260040160206040518083038186803b1580156124df57600080fd5b505afa92505050801561250f575060408051601f3d908101601f1916820190925261250c91810190615b83565b60015b611c8a57610e6743613c8f565b6000612529848484613cf6565b90505b9392505050565b6000838152600360205260409020600101546001600160401b031643116125d25760405162461bcd60e51b815260206004820152604760248201527f43616e6e6f74207265717565737420666f7220766f746520636f6c6c6563746960448201527f6f6e20756e74696c2061667465722074686520766f746520706572696f64206960648201526673206f7665722160c81b608482015260a4016103ce565b6000838152600f602052604090205460ff16156126505760405162461bcd60e51b815260206004820152603660248201527f436f6c6c656374696f6e20706861736520666f7220746869732070726f706f73604482015275185b081a185cc8185b1c9958591e481cdd185c9d195960521b60648201526084016103ce565b6000805b82518110156126965782818151811061266f5761266f6156aa565b60200260200101518261268291906156d6565b91508061268e816156ee565b915050612654565b50803410156126b75760405162461bcd60e51b81526004016103ce90615709565b6000848152600f60205260408120805460ff191660011790555b600a5461ffff821610156128fa576000838261ffff16815181106126f7576126f76156aa565b60209081029190910101516011805460018101825560009182527f31ecc21a745e3968a04e9570e4425bc18fa8019c68028196b546d1669c200c6801829055604051602481018990529192509060440160408051601f198184030181529190526020810180516001600160e01b03166341e2306760e11b179052600a80549192506001600160a01b037f00000000000000000000000000000000000000000000000000000000000000001691630c93e3bb91859130919061ffff89169081106127c2576127c26156aa565b906000526020600020016127de8b6001600160a01b0316613232565b86336040518763ffffffff1660e01b815260040161280095949392919061580c565b6000604051808303818588803b15801561281957600080fd5b505af115801561282d573d6000803e3d6000fd5b50505050507f00000000000000000000000000000000000000000000000000000000000000006001600160a01b0316631c92115f600a8561ffff1681548110612878576128786156aa565b90600052602060002001612894896001600160a01b0316613232565b846040518463ffffffff1660e01b81526004016128b39392919061586a565b600060405180830381600087803b1580156128cd57600080fd5b505af11580156128e1573d6000803e3d6000fd5b50505050505080806128f2906158a3565b9150506126d1565b5050505050565b601460205260009081526040902080546004820180549192916129239061566f565b80601f016020809104026020016040519081016040528092919081815260200182805461294f9061566f565b801561299c5780601f106129715761010080835404028352916020019161299c565b820191906000526020600020905b81548152906001019060200180831161297f57829003601f168201915b50505050600583015460069093015491926001600160a01b031691905084565b6000610e6760085490565b600160005b60095461ffff82161080156129de5750815b15612a6257818015612a4e57506000838152600c602052604081206009805491929161ffff8516908110612a1457612a146156aa565b6000918252602080832060088304015460079092166004026101000a90910463ffffffff16835282019290925260400190206003015460ff165b915080612a5a816158a3565b9150506129cc565b506000918252600e6020526040909120805460ff1916911515919091179055565b333014612aa25760405162461bcd60e51b81526004016103ce90615a1d565b612abe565b80612ab26004613abf565b14612abc57612aa7565b505b600080856001600160a01b0316858585604051612adc92919061565f565b60006040518083038185875af1925050503d8060008114612b19576040519150601f19603f3d011682016040523d82523d6000602084013e612b1e565b606091505b5091509150612b468282604051806060016040528060288152602001615d3d60289139613d9b565b50505050505050565b600084848484604051602001612b689493929190615bab565b60408051601f19818403018152919052805160209091012095945050505050565b6010818154811061173357600080fd5b6012818154811061173357600080fd5b60138181548110612bb957600080fd5b600091825260209091206007909102018054600482018054919350906129239061566f565b600a8181548110612bee57600080fd5b906000526020600020016000915090508054612c099061566f565b80601f0160208091040260200160405190810160405280929190818152602001828054612c359061566f565b8015612c825780601f10612c5757610100808354040283529160200191612c82565b820191906000526020600020905b815481529060010190602001808311612c6557829003601f168201915b505050505081565b6060604051806060016040528060408152602001615d6560409139905090565b333014612cc95760405162461bcd60e51b81526004016103ce90615a1d565b612ce5565b80612cd96004613abf565b14612ce357612cce565b505b61202f81613db4565b600061252c8383612d0a60408051602081019091526000815290565b613cf6565b333014612d2e5760405162461bcd60e51b81526004016103ce90615a1d565b612d4a565b80612d3e6004613abf565b14612d4857612d33565b505b61202f81613e55565b60606012805480602002602001604051908101604052809291908181526020018280548015610fec57602002820191906000526020600020905b815481526020019060010190808311612d8d575050505050905090565b60606013805480602002602001604051908101604052809291908181526020016000905b8282101561305257838290600052602060002090600702016040518060e00160405290816000820154815260200160018201805480602002602001604051908101604052809291908181526020018280548015612e5457602002820191906000526020600020905b81546001600160a01b03168152600190910190602001808311612e36575b5050505050815260200160028201805480602002602001604051908101604052809291908181526020018280548015612eac57602002820191906000526020600020905b815481526020019060010190808311612e98575b5050505050815260200160038201805480602002602001604051908101604052809291908181526020016000905b82821015612f86578382906000526020600020018054612ef99061566f565b80601f0160208091040260200160405190810160405280929190818152602001828054612f259061566f565b8015612f725780601f10612f4757610100808354040283529160200191612f72565b820191906000526020600020905b815481529060010190602001808311612f5557829003601f168201915b505050505081526020019060010190612eda565b505050508152602001600482018054612f9e9061566f565b80601f0160208091040260200160405190810160405280929190818152602001828054612fca9061566f565b80156130175780601f10612fec57610100808354040283529160200191613017565b820191906000526020600020905b815481529060010190602001808311612ffa57829003601f168201915b505050918352505060058201546001600160a01b03166020808301919091526006909201546040909101529082526001929092019101612dce565b50505050905090565b60006020835110156130775761307083613e96565b90506119ba565b8282815161308892602001906146dd565b5060ff90506119ba565b90565b60006119ba6130a2613ed4565b8360405161190160f01b8152600281019290925260228201526042902090565b60008060006130d387878787613fff565b91509150611719816140c3565b600085815260036020526040812060016130f988611862565b600781111561310a5761310a614f7a565b146131635760405162461bcd60e51b815260206004820152602360248201527f476f7665726e6f723a20766f7465206e6f742063757272656e746c792061637460448201526269766560e81b60648201526084016103ce565b805460009061317d9088906001600160401b031686613cf6565b905061318c8888888488614211565b83516131de57866001600160a01b03167fb8e138887d0aa13bab447e82de9d5c1777041ecd21ca36ba824ff1e6c07ddda4898884896040516131d19493929190615bf6565b60405180910390a2611857565b866001600160a01b03167fe2babfbac5889a709b63bb7f598b324e08bc5a4fb9ec647fb3cbc9ec07eb8712898884898960405161321f959493929190615c1e565b60405180910390a2979650505050505050565b604051606082811b6bffffffffffffffffffffffff191660208301529060009060340160408051601f198184030181528282528051838301909252601083526f181899199a1a9b1b9c1cb0b131b232b360811b602084015280519093509091906000906132a0906002615c64565b6132ab9060026156d6565b6001600160401b038111156132c2576132c261483f565b6040519080825280601f01601f1916602001820160405280156132ec576020820181803683370190505b509050600360fc1b81600081518110613307576133076156aa565b60200101906001600160f81b031916908160001a905350600f60fb1b81600181518110613336576133366156aa565b60200101906001600160f81b031916908160001a90535060005b838110156117195782600486838151811061336d5761336d6156aa565b016020015182516001600160f81b031990911690911c60f81c908110613395576133956156aa565b01602001516001600160f81b031916826133b0836002615c64565b6133bb9060026156d6565b815181106133cb576133cb6156aa565b60200101906001600160f81b031916908160001a905350828582815181106133f5576133f56156aa565b602091010151815160f89190911c600f16908110613415576134156156aa565b01602001516001600160f81b03191682613430836002615c64565b61343b9060036156d6565b8151811061344b5761344b6156aa565b60200101906001600160f81b031916908160001a90535061346b816156ee565b9050613350565b61347b856129c7565b6000858152600e602052604090205460ff166134f35760405162461bcd60e51b815260206004820152603160248201527f436f6c6c656374696f6e20706861736520666f7220746869732070726f706f73604482015270616c20697320756e66696e69736865642160781b60648201526084016103ce565b6128fa85858585856135f6565b6000604051806060016040528060278152602001615da560279139905060005b8551811015612b465760008087838151811061353e5761353e6156aa565b60200260200101516001600160a01b0316878481518110613561576135616156aa565b602002602001015187858151811061357b5761357b6156aa565b60200260200101516040516135909190615c83565b60006040518083038185875af1925050503d80600081146135cd576040519150601f19603f3d011682016040523d82523d6000602084013e6135d2565b606091505b50915091506135e2828286613d9b565b505050806135ef906156ee565b9050613520565b6128fa565b600061361e8585858561361960408051602081019091526000815290565b6130e0565b95945050505050565b6000818152600d6020526040812060028101546001820154835b60095461ffff821610156136ef576000868152600c602052604081206009805483919061ffff8616908110613678576136786156aa565b90600052602060002090600891828204019190066004029054906101000a900463ffffffff1663ffffffff1663ffffffff16815260200190815260200160002090508060020154846136ca91906156d6565b81549094506136d990846156d6565b92505080806136e7906158a3565b915050613641565b506136fa82826156d6565b60008681526003602052604090205461371b906001600160401b0316610d7e565b111595945050505050565b6000818152600d6020526040812080546001820154835b60095461ffff821610156137eb576000868152600c602052604081206009805483919061ffff8616908110613774576137746156aa565b90600052602060002090600891828204019190066004029054906101000a900463ffffffff1663ffffffff1663ffffffff16815260200190815260200160002090508060010154846137c691906156d6565b81549094506137d590846156d6565b92505080806137e3906158a3565b91505061373d565b50119392505050565b60008061380386868686612b4f565b9050600061381082611862565b9050600281600781111561382657613826614f7a565b141580156138465750600681600781111561384357613843614f7a565b14155b80156138645750600781600781111561386157613861614f7a565b14155b6138b05760405162461bcd60e51b815260206004820152601d60248201527f476f7665726e6f723a2070726f706f73616c206e6f742061637469766500000060448201526064016103ce565b60008281526003602052604090819020600201805461ff001916610100179055517f789cf55be980739dad1d0699b93b58e806b51c9d96619bfa8fe0a28abaa7b30c906139009084815260200190565b60405180910390a15095945050505050565b6000600b878760405161392692919061565f565b9081526040519081900360200190205463ffffffff16905036600061394e8460048188615c9f565b91509150600061399386868080601f01602080910402602001604051908101604052809392919081815260200183838082843760009201919091525061441892505050565b90507f00000000000000000000000000000000000000000000000000000000000000006001600160e01b031916816001600160e01b0319161415613a1657613a118484848080601f01602080910402602001604051908101604052809392919081815260200183838082843760009201919091525061441f92505050565b613ab3565b7f00000000000000000000000000000000000000000000000000000000000000006001600160e01b031916816001600160e01b0319161415613a6057613a5a612c8a565b50613ab3565b60405162461bcd60e51b815260206004820152602260248201527f496e76616c6964207061796c6f61643a206e6f2073656c6563746f72206d61746044820152610c6d60f31b60648201526084016103ce565b50505050505050505050565b6000613ada8254600f81810b600160801b909204900b131590565b15613af857604051631ed9509560e11b815260040160405180910390fd5b508054600f0b6000818152600180840160205260408220805492905583546fffffffffffffffffffffffffffffffff191692016001600160801b03169190911790915590565b60065460408051918252602082018390527fc565b045403dc03c2eea82b81a0465edad9e2e7fc4d97e11421c209da93d7a93910160405180910390a1600655565b60006001600160401b03821115613be75760405162461bcd60e51b815260206004820152602660248201527f53616665436173743a2076616c756520646f65736e27742066697420696e203660448201526534206269747360d01b60648201526084016103ce565b5090565b606060ff8314613bfe576130708361451b565b818054613c0a9061566f565b80601f0160208091040260200160405190810160405280929190818152602001828054613c369061566f565b8015613c835780601f10613c5857610100808354040283529160200191613c83565b820191906000526020600020905b815481529060010190602001808311613c6657829003601f168201915b505050505090506119ba565b600065ffffffffffff821115613be75760405162461bcd60e51b815260206004820152602660248201527f53616665436173743a2076616c756520646f65736e27742066697420696e203460448201526538206269747360d01b60648201526084016103ce565b604051630748d63560e31b81526001600160a01b038481166004830152602482018490526000917f000000000000000000000000000000000000000000000000000000000000000090911690633a46b1a89060440160206040518083038186803b158015613d6357600080fd5b505afa158015613d77573d6000803e3d6000fd5b505050506040513d601f19601f820116820180604052508101906125299190615cc9565b60608315613daa57508161252c565b61252c838361455a565b60008111613e145760405162461bcd60e51b815260206004820152602760248201527f476f7665726e6f7253657474696e67733a20766f74696e6720706572696f6420604482015266746f6f206c6f7760c81b60648201526084016103ce565b60075460408051918252602082018390527f7e3f7f0708a84de9203036abaa450dccc85ad5ff52f78c170f3edb55cf5e8828910160405180910390a1600755565b60085460408051918252602082018390527fccb45da8d5717e6c4544694297c4ba5cf151d455c9bb0ed4fc7a38411bc05461910160405180910390a1600855565b600080829050601f81511115613ec1578260405163305a27a960e01b81526004016103ce9190614a04565b8051613ecc82615ce2565b179392505050565b6000306001600160a01b037f000000000000000000000000000000000000000000000000000000000000000016148015613f2d57507f000000000000000000000000000000000000000000000000000000000000000046145b15613f5757507f000000000000000000000000000000000000000000000000000000000000000090565b610e67604080517f8b73c3c69bb8fe3d512ecc4cf759cc79239f7b179b0ffacaa9a75d522b39400f60208201527f0000000000000000000000000000000000000000000000000000000000000000918101919091527f000000000000000000000000000000000000000000000000000000000000000060608201524660808201523060a082015260009060c00160405160208183030381529060405280519060200120905090565b6000807f7fffffffffffffffffffffffffffffff5d576e7357a4501ddfe92f46681b20a083111561403657506000905060036140ba565b6040805160008082526020820180845289905260ff881692820192909252606081018690526080810185905260019060a0016020604051602081039080840390855afa15801561408a573d6000803e3d6000fd5b5050604051601f1901519150506001600160a01b0381166140b3576000600192509250506140ba565b9150600090505b94509492505050565b60008160048111156140d7576140d7614f7a565b14156140e05750565b60018160048111156140f4576140f4614f7a565b14156141425760405162461bcd60e51b815260206004820152601860248201527f45434453413a20696e76616c6964207369676e6174757265000000000000000060448201526064016103ce565b600281600481111561415657614156614f7a565b14156141a45760405162461bcd60e51b815260206004820152601f60248201527f45434453413a20696e76616c6964207369676e6174757265206c656e6774680060448201526064016103ce565b60038160048111156141b8576141b8614f7a565b141561202f5760405162461bcd60e51b815260206004820152602260248201527f45434453413a20696e76616c6964207369676e6174757265202773272076616c604482015261756560f01b60648201526084016103ce565b6000858152600d602090815260408083206001600160a01b0388168452600381019092529091205460ff16156142995760405162461bcd60e51b815260206004820152602760248201527f476f7665726e6f72566f74696e6753696d706c653a20766f746520616c726561604482015266191e4818d85cdd60ca1b60648201526084016103ce565b6001600160a01b03851660009081526003820160205260408120805460ff1916600117905560ff168460ff1614156142ea57828160000160008282546142df91906156d6565b909155506143909050565b60ff84166001141561430a57828160010160008282546142df91906156d6565b60ff84166002141561432a57828160020160008282546142df91906156d6565b60405162461bcd60e51b815260206004820152603560248201527f476f7665726e6f72566f74696e6753696d706c653a20696e76616c69642076616044820152746c756520666f7220656e756d20566f74655479706560581b60648201526084016103ce565b505050505050565b845181101561439057306001600160a01b03168582815181106143bd576143bd6156aa565b60200260200101516001600160a01b03161415614408576144088382815181106143e9576143e96156aa565b602002602001015180519060200120600461458490919063ffffffff16565b614411816156ee565b9050614398565b6020015190565b600080600080848060200190518101906144399190615d06565b6000848152600c6020908152604080832063ffffffff8e1684529091529020600301549397509195509350915060ff16156144ac5760405162461bcd60e51b8152602060048201526013602482015272105b1c9958591e481a5b9a5d1a585b1a5e9959606a1b60448201526064016103ce565b6040805160808101825293845260208085019384528482019283526001606086018181526000978852600c835283882063ffffffff9a909a168852989091529420925183559051928201929092559051600282015591516003909201805460ff19169215159290921790915550565b60606000614528836145c0565b604080516020808252818301909252919250600091906020820181803683375050509182525060208101929092525090565b81511561456a5781518083602001fd5b8060405162461bcd60e51b81526004016103ce9190614a04565b8154600160801b90819004600f0b6000818152600180860160205260409091209390935583546001600160801b03908116939091011602179055565b600060ff8216601f8111156119ba57604051632cd44ac360e21b815260040160405180910390fd5b82805482825590600052602060002090810192821561463d579160200282015b8281111561463d57825182546001600160a01b0319166001600160a01b03909116178255602090920191600190910190614608565b50613be7929150614750565b82805482825590600052602060002090810192821561463d579160200282015b8281111561463d578251825591602001919060010190614669565b8280548282559060005260206000209081019282156146d1579160200282015b828111156146d157825180516146c19184916020909101906146dd565b50916020019190600101906146a4565b50613be7929150614765565b8280546146e99061566f565b90600052602060002090601f01602090048101928261470b576000855561463d565b82601f1061472457805160ff191683800117855561463d565b8280016001018555821561463d579182018281111561463d578251825591602001919060010190614669565b5b80821115613be75760008155600101614751565b80821115613be75760006147798282614782565b50600101614765565b50805461478e9061566f565b6000825580601f1061479e575050565b601f01602090049060005260206000209081019061202f9190614750565b6000602082840312156147ce57600080fd5b81356001600160e01b03198116811461252c57600080fd5b803560ff81168114611c8a57600080fd5b60008083601f84011261480957600080fd5b5081356001600160401b0381111561482057600080fd5b60208301915083602082850101111561483857600080fd5b9250929050565b634e487b7160e01b600052604160045260246000fd5b604051601f8201601f191681016001600160401b038111828210171561487d5761487d61483f565b604052919050565b60006001600160401b0382111561489e5761489e61483f565b50601f01601f191660200190565b600082601f8301126148bd57600080fd5b81356148d06148cb82614885565b614855565b8181528460208386010111156148e557600080fd5b816020850160208301376000918101602001919091529392505050565b60008060008060008060008060e0898b03121561491e57600080fd5b8835975061492e60208a016147e6565b965060408901356001600160401b038082111561494a57600080fd5b6149568c838d016147f7565b909850965060608b013591508082111561496f57600080fd5b5061497c8b828c016148ac565b94505061498b60808a016147e6565b925060a0890135915060c089013590509295985092959890939650565b60005b838110156149c35781810151838201526020016149ab565b838111156149d2576000848401525b50505050565b600081518084526149f08160208601602086016149a8565b601f01601f19169290920160200192915050565b60208152600061252c60208301846149d8565b60006001600160401b03821115614a3057614a3061483f565b5060051b60200190565b80356001600160a01b0381168114611c8a57600080fd5b600082601f830112614a6257600080fd5b81356020614a726148cb83614a17565b82815260059290921b84018101918181019086841115614a9157600080fd5b8286015b84811015614ab357614aa681614a3a565b8352918301918301614a95565b509695505050505050565b600082601f830112614acf57600080fd5b81356020614adf6148cb83614a17565b82815260059290921b84018101918181019086841115614afe57600080fd5b8286015b84811015614ab35780358352918301918301614b02565b600082601f830112614b2a57600080fd5b81356020614b3a6148cb83614a17565b82815260059290921b84018101918181019086841115614b5957600080fd5b8286015b84811015614ab35780356001600160401b03811115614b7c5760008081fd5b614b8a8986838b01016148ac565b845250918301918301614b5d565b60008060008060008060c08789031215614bb157600080fd5b86356001600160401b0380821115614bc857600080fd5b614bd48a838b01614a51565b97506020890135915080821115614bea57600080fd5b614bf68a838b01614abe565b96506040890135915080821115614c0c57600080fd5b614c188a838b01614b19565b95506060890135915080821115614c2e57600080fd5b614c3a8a838b016148ac565b9450614c4860808a01614a3a565b935060a0890135915080821115614c5e57600080fd5b50614c6b89828a01614abe565b9150509295509295509295565b600060208284031215614c8a57600080fd5b5035919050565b60008060008060808587031215614ca757600080fd5b614cb085614a3a565b9350614cbe60208601614a3a565b92506040850135915060608501356001600160401b03811115614ce057600080fd5b614cec878288016148ac565b91505092959194509250565b60008060008060008060008060008060c08b8d031215614d1757600080fd5b8a35995060208b01356001600160401b0380821115614d3557600080fd5b614d418e838f016147f7565b909b50995060408d0135915080821115614d5a57600080fd5b614d668e838f016147f7565b909950975060608d0135915080821115614d7f57600080fd5b614d8b8e838f016147f7565b909750955060808d0135915080821115614da457600080fd5b50614db18d828e016147f7565b9150809450508092505060a08b013590509295989b9194979a5092959850565b60008060008060808587031215614de757600080fd5b84356001600160401b0380821115614dfe57600080fd5b614e0a88838901614a51565b95506020870135915080821115614e2057600080fd5b614e2c88838901614abe565b94506040870135915080821115614e4257600080fd5b50614e4f87828801614b19565b949793965093946060013593505050565b60008060408385031215614e7357600080fd5b82359150602083013563ffffffff81168114614e8e57600080fd5b809150509250929050565b600060208284031215614eab57600080fd5b61252c82614a3a565b600081518084526020808501945080840160005b83811015614ee457815187529582019590820190600101614ec8565b509495945050505050565b60208152600061252c6020830184614eb4565b60008060408385031215614f1557600080fd5b614f1e83614a3a565b946020939093013593505050565b600080600080600060a08688031215614f4457600080fd5b85359450614f54602087016147e6565b9350614f62604087016147e6565b94979396509394606081013594506080013592915050565b634e487b7160e01b600052602160045260246000fd5b6020810160088310614fb257634e487b7160e01b600052602160045260246000fd5b91905290565b60008060408385031215614fcb57600080fd5b82359150614fdb60208401614a3a565b90509250929050565b60008060008060008060006080888a031215614fff57600080fd5b8735965060208801356001600160401b038082111561501d57600080fd5b6150298b838c016147f7565b909850965060408a013591508082111561504257600080fd5b61504e8b838c016147f7565b909650945060608a013591508082111561506757600080fd5b506150748a828b016147f7565b989b979a50959850939692959293505050565b6000806040838503121561509a57600080fd5b82359150614fdb602084016147e6565b6000806000806000608086880312156150c257600080fd5b853594506150d2602087016147e6565b935060408601356001600160401b03808211156150ee57600080fd5b6150fa89838a016147f7565b9095509350606088013591508082111561511357600080fd5b50615120888289016148ac565b9150509295509295909350565b600081518084526020808501945080840160005b83811015614ee45781516001600160a01b031687529582019590820190600101615141565b600081518084526020808501808196508360051b8101915082860160005b858110156151ae57828403895261519c8483516149d8565b98850198935090840190600101615184565b5091979650505050505050565b805182526000602082015160e060208501526151da60e085018261512d565b9050604083015184820360408601526151f38282614eb4565b9150506060830151848203606086015261520d8282615166565b9150506080830151848203608086015261522782826149d8565b60a0858101516001600160a01b03169087015260c0948501519490950193909352509192915050565b60208152600061252c60208301846151bb565b6000806000806060858703121561527957600080fd5b84359350615289602086016147e6565b925060408501356001600160401b038111156152a457600080fd5b6152b0878288016147f7565b95989497509550505050565b600080600080608085870312156152d257600080fd5b84356001600160401b03808211156152e957600080fd5b6152f588838901614a51565b9550602087013591508082111561530b57600080fd5b61531788838901614abe565b9450604087013591508082111561532d57600080fd5b61533988838901614b19565b9350606087013591508082111561534f57600080fd5b50614cec878288016148ac565b60ff60f81b8816815260e06020820152600061537b60e08301896149d8565b828103604084015261538d81896149d8565b606084018890526001600160a01b038716608085015260a0840186905283810360c08501529050610f568185614eb4565b6000602082840312156153d057600080fd5b81356001600160401b038111156153e657600080fd5b611cb0848285016148ac565b60008060006060848603121561540757600080fd5b61541084614a3a565b92506020840135915060408401356001600160401b0381111561543257600080fd5b61543e868287016148ac565b9150509250925092565b60008060006060848603121561545d57600080fd5b8335925061546d60208501614a3a565b915060408401356001600160401b0381111561548857600080fd5b61543e86828701614abe565b8481526080602082015260006154ad60808301866149d8565b6001600160a01b03949094166040830152506060015292915050565b600080600080600060a086880312156154e157600080fd5b6154ea86614a3a565b94506154f860208701614a3a565b935060408601356001600160401b038082111561551457600080fd5b61552089838a01614abe565b9450606088013591508082111561553657600080fd5b61554289838a01614abe565b9350608088013591508082111561511357600080fd5b6000806000806060858703121561556e57600080fd5b61557785614a3a565b93506020850135925060408501356001600160401b038111156152a457600080fd5b6000602080830181845280855180835260408601915060408160051b870101925083870160005b828110156155ee57603f198886030184526155dc8583516151bb565b945092850192908501906001016155c0565b5092979650505050505050565b600080600080600060a0868803121561561357600080fd5b61561c86614a3a565b945061562a60208701614a3a565b9350604086013592506060860135915060808601356001600160401b0381111561565357600080fd5b615120888289016148ac565b8183823760009101908152919050565b600181811c9082168061568357607f821691505b602082108114156156a457634e487b7160e01b600052602260045260246000fd5b50919050565b634e487b7160e01b600052603260045260246000fd5b634e487b7160e01b600052601160045260246000fd5b600082198211156156e9576156e96156c0565b500190565b6000600019821415615702576157026156c0565b5060010190565b60208082526024908201527f696e73756666696369656e74206761732066656520666f72207472616e7361636040820152633a34b7b760e11b606082015260800190565b83815282602082015260606040820152600061361e60608301846149d8565b8054600090600181811c908083168061578657607f831692505b60208084108214156157a857634e487b7160e01b600052602260045260246000fd5b838852602088018280156157c357600181146157d4576157ff565b60ff198716825282820197506157ff565b60008981526020902060005b878110156157f9578154848201529086019084016157e0565b83019850505b5050505050505092915050565b600060018060a01b03808816835260a0602084015261582e60a084018861576c565b838103604085015261584081886149d8565b9050838103606085015261585481876149d8565b9250508084166080840152509695505050505050565b60608152600061587d606083018661576c565b828103602084015261588f81866149d8565b90508281036040840152610e5281856149d8565b600061ffff808316818114156158bb576158bb6156c0565b6001019392505050565b81835281816020850137506000828201602090810191909152601f909101601f19169091010190565b89815260c06020820152600061590860c083018a8c6158c5565b828103604084015261591b81898b6158c5565b905086606084015282810360808401526159368186886158c5565b9150508260a08301529a9950505050505050505050565b60006020828403121561595f57600080fd5b8151801515811461252c57600080fd5b8681526080602082015260006159896080830187896158c5565b828103604084015261599c8186886158c5565b915050826060830152979650505050505050565b6000602082840312156159c257600080fd5b81516001600160401b038111156159d857600080fd5b8201601f810184136159e957600080fd5b80516159f76148cb82614885565b818152856020838501011115615a0c57600080fd5b61361e8260208301602086016149a8565b60208082526018908201527f476f7665726e6f723a206f6e6c79476f7665726e616e63650000000000000000604082015260600190565b600082821015615a6657615a666156c0565b500390565b60208082526021908201527f476f7665726e6f723a20696e76616c69642070726f706f73616c206c656e67746040820152600d60fb1b606082015260800190565b60006101208b8352602060018060a01b038c1681850152816040850152615ad58285018c61512d565b91508382036060850152615ae9828b614eb4565b915083820360808501528189518084528284019150828160051b850101838c0160005b83811015615b3a57601f19878403018552615b288383516149d8565b94860194925090850190600101615b0c565b505086810360a0880152615b4e818c615166565b9450505050508560c08401528460e0840152828103610100840152615b7381856149d8565b9c9b505050505050505050505050565b600060208284031215615b9557600080fd5b815165ffffffffffff8116811461252c57600080fd5b608081526000615bbe608083018761512d565b8281036020840152615bd08187614eb4565b90508281036040840152615be48186615166565b91505082606083015295945050505050565b84815260ff84166020820152826040820152608060608201526000610e5260808301846149d8565b85815260ff8516602082015283604082015260a060608201526000615c4660a08301856149d8565b8281036080840152615c5881856149d8565b98975050505050505050565b6000816000190483118215151615615c7e57615c7e6156c0565b500290565b60008251615c958184602087016149a8565b9190910192915050565b60008085851115615caf57600080fd5b83861115615cbc57600080fd5b5050820193919092039150565b600060208284031215615cdb57600080fd5b5051919050565b805160208083015191908110156156a45760001960209190910360031b1b16919050565b60008060008060808587031215615d1c57600080fd5b50508251602084015160408501516060909501519196909550909250905056fe476f7665726e6f723a2072656c617920726576657274656420776974686f7574206d657373616765596f75206a7573742063616c6c65642074686520657865637574652070726f706f73616c2066756e6374696f6e2066726f6d20616e6f7468657220636861696e476f7665726e6f723a2063616c6c20726576657274656420776974686f7574206d657373616765a26469706673582212208d29c0f44cbdd7b7678117c9ca44afd4a8cb09cebead588b7a498b20a4caa8e564736f6c63430008090033",
  "linkReferences": {},
  "deployedLinkReferences": {}
}