{
  "_format": "hh-sol-artifact-1",
  "contractName": "DAOSatellite",
  "sourceName": "contracts/DAOSatellite.sol",
  "abi": [
    {
      "inputs": [
        {
          "internalType": "string",
          "name": "_hubChain",
          "type": "string"
        },
        {
          "internalType": "address",
          "name": "_hubChainAddr",
          "type": "address"
        },
        {
          "internalType": "address",
          "name": "_gateway",
          "type": "address"
        },
        {
          "internalType": "address",
          "name": "_gasService",
          "type": "address"
        },
        {
          "internalType": "contract IVotes",
          "name": "_token",
          "type": "address"
        },
        {
          "internalType": "uint256",
          "name": "_targetSecondsPerBlock",
          "type": "uint256"
        }
      ],
      "stateMutability": "payable",
      "type": "constructor"
    },
    {
      "inputs": [],
      "name": "AlreadyInitialized",
      "type": "error"
    },
    {
      "inputs": [],
      "name": "InvalidAddress",
      "type": "error"
    },
    {
      "inputs": [],
      "name": "InvalidCodeHash",
      "type": "error"
    },
    {
      "inputs": [],
      "name": "InvalidImplementation",
      "type": "error"
    },
    {
      "inputs": [],
      "name": "InvalidOwner",
      "type": "error"
    },
    {
      "inputs": [],
      "name": "NotApprovedByGateway",
      "type": "error"
    },
    {
      "inputs": [],
      "name": "NotOwner",
      "type": "error"
    },
    {
      "inputs": [],
      "name": "NotProxy",
      "type": "error"
    },
    {
      "inputs": [],
      "name": "SetupFailed",
      "type": "error"
    },
    {
      "anonymous": false,
      "inputs": [
        {
          "indexed": true,
          "internalType": "address",
          "name": "newOwner",
          "type": "address"
        }
      ],
      "name": "OwnershipTransferStarted",
      "type": "event"
    },
    {
      "anonymous": false,
      "inputs": [
        {
          "indexed": true,
          "internalType": "address",
          "name": "newOwner",
          "type": "address"
        }
      ],
      "name": "OwnershipTransferred",
      "type": "event"
    },
    {
      "anonymous": false,
      "inputs": [
        {
          "indexed": true,
          "internalType": "address",
          "name": "newImplementation",
          "type": "address"
        }
      ],
      "name": "Upgraded",
      "type": "event"
    },
    {
      "inputs": [],
      "name": "acceptOwnership",
      "outputs": [],
      "stateMutability": "nonpayable",
      "type": "function"
    },
    {
      "inputs": [
        {
          "internalType": "uint256",
          "name": "",
          "type": "uint256"
        }
      ],
      "name": "allProposalData",
      "outputs": [
        {
          "internalType": "uint256",
          "name": "localVoteStart",
          "type": "uint256"
        },
        {
          "internalType": "bool",
          "name": "voteFinished",
          "type": "bool"
        },
        {
          "internalType": "uint256",
          "name": "proposalId",
          "type": "uint256"
        },
        {
          "internalType": "string",
          "name": "description",
          "type": "string"
        }
      ],
      "stateMutability": "view",
      "type": "function"
    },
    {
      "inputs": [
        {
          "internalType": "uint256",
          "name": "",
          "type": "uint256"
        }
      ],
      "name": "allProposalIds",
      "outputs": [
        {
          "internalType": "uint256",
          "name": "",
          "type": "uint256"
        }
      ],
      "stateMutability": "view",
      "type": "function"
    },
    {
      "inputs": [
        {
          "internalType": "uint256",
          "name": "proposalId",
          "type": "uint256"
        },
        {
          "internalType": "uint8",
          "name": "support",
          "type": "uint8"
        }
      ],
      "name": "castVote",
      "outputs": [
        {
          "internalType": "uint256",
          "name": "balance",
          "type": "uint256"
        }
      ],
      "stateMutability": "nonpayable",
      "type": "function"
    },
    {
      "inputs": [],
      "name": "chainName",
      "outputs": [
        {
          "internalType": "string",
          "name": "",
          "type": "string"
        }
      ],
      "stateMutability": "view",
      "type": "function"
    },
    {
      "inputs": [],
      "name": "contractId",
      "outputs": [
        {
          "internalType": "bytes32",
          "name": "",
          "type": "bytes32"
        }
      ],
      "stateMutability": "pure",
      "type": "function"
    },
    {
      "inputs": [
        {
          "internalType": "bytes32",
          "name": "commandId",
          "type": "bytes32"
        },
        {
          "internalType": "string",
          "name": "sourceChain",
          "type": "string"
        },
        {
          "internalType": "string",
          "name": "sourceAddress",
          "type": "string"
        },
        {
          "internalType": "bytes",
          "name": "payload",
          "type": "bytes"
        }
      ],
      "name": "execute",
      "outputs": [],
      "stateMutability": "nonpayable",
      "type": "function"
    },
    {
      "inputs": [
        {
          "internalType": "bytes32",
          "name": "commandId",
          "type": "bytes32"
        },
        {
          "internalType": "string",
          "name": "sourceChain",
          "type": "string"
        },
        {
          "internalType": "string",
          "name": "sourceAddress",
          "type": "string"
        },
        {
          "internalType": "bytes",
          "name": "payload",
          "type": "bytes"
        },
        {
          "internalType": "string",
          "name": "tokenSymbol",
          "type": "string"
        },
        {
          "internalType": "uint256",
          "name": "amount",
          "type": "uint256"
        }
      ],
      "name": "executeWithToken",
      "outputs": [],
      "stateMutability": "nonpayable",
      "type": "function"
    },
    {
      "inputs": [],
      "name": "gasService",
      "outputs": [
        {
          "internalType": "contract IAxelarGasService",
          "name": "",
          "type": "address"
        }
      ],
      "stateMutability": "view",
      "type": "function"
    },
    {
      "inputs": [],
      "name": "gateway",
      "outputs": [
        {
          "internalType": "contract IAxelarGateway",
          "name": "",
          "type": "address"
        }
      ],
      "stateMutability": "view",
      "type": "function"
    },
    {
      "inputs": [],
      "name": "getAllProposalData",
      "outputs": [
        {
          "components": [
            {
              "internalType": "uint256",
              "name": "localVoteStart",
              "type": "uint256"
            },
            {
              "internalType": "bool",
              "name": "voteFinished",
              "type": "bool"
            },
            {
              "internalType": "uint256",
              "name": "proposalId",
              "type": "uint256"
            },
            {
              "internalType": "string",
              "name": "description",
              "type": "string"
            }
          ],
          "internalType": "struct DAOSatellite.RemoteProposal[]",
          "name": "",
          "type": "tuple[]"
        }
      ],
      "stateMutability": "view",
      "type": "function"
    },
    {
      "inputs": [],
      "name": "getAllProposalIds",
      "outputs": [
        {
          "internalType": "uint256[]",
          "name": "_allProposalIds",
          "type": "uint256[]"
        }
      ],
      "stateMutability": "view",
      "type": "function"
    },
    {
      "inputs": [
        {
          "internalType": "uint256",
          "name": "_proposalId",
          "type": "uint256"
        }
      ],
      "name": "getParticularProposalData",
      "outputs": [
        {
          "components": [
            {
              "internalType": "uint256",
              "name": "localVoteStart",
              "type": "uint256"
            },
            {
              "internalType": "bool",
              "name": "voteFinished",
              "type": "bool"
            },
            {
              "internalType": "uint256",
              "name": "proposalId",
              "type": "uint256"
            },
            {
              "internalType": "string",
              "name": "description",
              "type": "string"
            }
          ],
          "internalType": "struct DAOSatellite.RemoteProposal",
          "name": "proposalData",
          "type": "tuple"
        }
      ],
      "stateMutability": "view",
      "type": "function"
    },
    {
      "inputs": [
        {
          "internalType": "address",
          "name": "proposer",
          "type": "address"
        }
      ],
      "name": "getProposalIdsByProposer",
      "outputs": [
        {
          "internalType": "uint256[]",
          "name": "proposalIds",
          "type": "uint256[]"
        }
      ],
      "stateMutability": "view",
      "type": "function"
    },
    {
      "inputs": [
        {
          "internalType": "uint256",
          "name": "proposalId",
          "type": "uint256"
        },
        {
          "internalType": "address",
          "name": "account",
          "type": "address"
        }
      ],
      "name": "hasVoted",
      "outputs": [
        {
          "internalType": "bool",
          "name": "",
          "type": "bool"
        }
      ],
      "stateMutability": "view",
      "type": "function"
    },
    {
      "inputs": [],
      "name": "hubChain",
      "outputs": [
        {
          "internalType": "string",
          "name": "",
          "type": "string"
        }
      ],
      "stateMutability": "view",
      "type": "function"
    },
    {
      "inputs": [],
      "name": "hubChainAddr",
      "outputs": [
        {
          "internalType": "address",
          "name": "",
          "type": "address"
        }
      ],
      "stateMutability": "view",
      "type": "function"
    },
    {
      "inputs": [],
      "name": "implementation",
      "outputs": [
        {
          "internalType": "address",
          "name": "implementation_",
          "type": "address"
        }
      ],
      "stateMutability": "view",
      "type": "function"
    },
    {
      "inputs": [
        {
          "internalType": "uint256",
          "name": "proposalId",
          "type": "uint256"
        }
      ],
      "name": "isProposal",
      "outputs": [
        {
          "internalType": "bool",
          "name": "",
          "type": "bool"
        }
      ],
      "stateMutability": "view",
      "type": "function"
    },
    {
      "inputs": [],
      "name": "owner",
      "outputs": [
        {
          "internalType": "address",
          "name": "owner_",
          "type": "address"
        }
      ],
      "stateMutability": "view",
      "type": "function"
    },
    {
      "inputs": [],
      "name": "pendingOwner",
      "outputs": [
        {
          "internalType": "address",
          "name": "owner_",
          "type": "address"
        }
      ],
      "stateMutability": "view",
      "type": "function"
    },
    {
      "inputs": [
        {
          "internalType": "uint256",
          "name": "",
          "type": "uint256"
        }
      ],
      "name": "proposalIdToProposal",
      "outputs": [
        {
          "internalType": "uint256",
          "name": "localVoteStart",
          "type": "uint256"
        },
        {
          "internalType": "bool",
          "name": "voteFinished",
          "type": "bool"
        },
        {
          "internalType": "uint256",
          "name": "proposalId",
          "type": "uint256"
        },
        {
          "internalType": "string",
          "name": "description",
          "type": "string"
        }
      ],
      "stateMutability": "view",
      "type": "function"
    },
    {
      "inputs": [
        {
          "internalType": "uint256",
          "name": "",
          "type": "uint256"
        }
      ],
      "name": "proposalVotes",
      "outputs": [
        {
          "internalType": "uint256",
          "name": "againstVotes",
          "type": "uint256"
        },
        {
          "internalType": "uint256",
          "name": "forVotes",
          "type": "uint256"
        },
        {
          "internalType": "uint256",
          "name": "abstainVotes",
          "type": "uint256"
        }
      ],
      "stateMutability": "view",
      "type": "function"
    },
    {
      "inputs": [
        {
          "internalType": "address",
          "name": "",
          "type": "address"
        },
        {
          "internalType": "uint256",
          "name": "",
          "type": "uint256"
        }
      ],
      "name": "proposerToProposalIds",
      "outputs": [
        {
          "internalType": "uint256",
          "name": "",
          "type": "uint256"
        }
      ],
      "stateMutability": "view",
      "type": "function"
    },
    {
      "inputs": [
        {
          "internalType": "bytes",
          "name": "data",
          "type": "bytes"
        }
      ],
      "name": "setup",
      "outputs": [],
      "stateMutability": "nonpayable",
      "type": "function"
    },
    {
      "inputs": [],
      "name": "targetSecondsPerBlock",
      "outputs": [
        {
          "internalType": "uint256",
          "name": "",
          "type": "uint256"
        }
      ],
      "stateMutability": "view",
      "type": "function"
    },
    {
      "inputs": [],
      "name": "token",
      "outputs": [
        {
          "internalType": "contract IVotes",
          "name": "",
          "type": "address"
        }
      ],
      "stateMutability": "view",
      "type": "function"
    },
    {
      "inputs": [
        {
          "internalType": "address",
          "name": "newOwner",
          "type": "address"
        }
      ],
      "name": "transferOwnership",
      "outputs": [],
      "stateMutability": "nonpayable",
      "type": "function"
    },
    {
      "inputs": [
        {
          "internalType": "address",
          "name": "newImplementation",
          "type": "address"
        },
        {
          "internalType": "bytes32",
          "name": "newImplementationCodeHash",
          "type": "bytes32"
        },
        {
          "internalType": "bytes",
          "name": "params",
          "type": "bytes"
        }
      ],
      "name": "upgrade",
      "outputs": [],
      "stateMutability": "nonpayable",
      "type": "function"
    },
    {
      "stateMutability": "payable",
      "type": "receive"
    }
  ],
  "bytecode": "0x61018060408190526341e2306760e11b610100526317a8bd6160e01b6101205263e14e325160e01b61014052630d61b51960e01b6101605262002c61388190039081908339810160408190526200005691620001ae565b836001600160a01b0381166200007f5760405163e6c4247b60e01b815260040160405180910390fd5b6001600160a01b03908116608052831660a0528551620000a7906001906020890190620000d5565b50600280546001600160a01b0319166001600160a01b03968716179055931660c052505060e052506200031c565b828054620000e390620002df565b90600052602060002090601f01602090048101928262000107576000855562000152565b82601f106200012257805160ff191683800117855562000152565b8280016001018555821562000152579182015b828111156200015257825182559160200191906001019062000135565b506200016092915062000164565b5090565b5b8082111562000160576000815560010162000165565b634e487b7160e01b600052604160045260246000fd5b80516001600160a01b0381168114620001a957600080fd5b919050565b60008060008060008060c08789031215620001c857600080fd5b86516001600160401b0380821115620001e057600080fd5b818901915089601f830112620001f557600080fd5b8151818111156200020a576200020a6200017b565b604051601f8201601f19908116603f011681019083821181831017156200023557620002356200017b565b81604052828152602093508c848487010111156200025257600080fd5b600091505b8282101562000276578482018401518183018501529083019062000257565b82821115620002885760008484830101525b99506200029a91505089820162000191565b96505050620002ac6040880162000191565b9350620002bc6060880162000191565b9250620002cc6080880162000191565b915060a087015190509295509295509295565b600181811c90821680620002f457607f821691505b602082108114156200031657634e487b7160e01b600052602260045260246000fd5b50919050565b60805160a05160c05160e051610100516101205161014051610160516128bb620003a66000396000505060005050600061143d015260006114880152600081816102a60152611a0f0152600081816106850152610b670152600081816104aa0152611c800152600081816101e4015281816106d8015281816108f50152611d0e01526128bb6000f3fe6080604052600436106101c65760003560e01c80636a22d8cc116100f7578063c97bfe6b11610095578063efa90d3611610064578063efa90d361461061c578063efc9355114610631578063f2fde38b14610653578063fc0c546a1461067357600080fd5b8063c97bfe6b1461058b578063c9f150be146105ab578063e1171999146105cb578063e30c3978146105fa57600080fd5b80638da5cb5b116100d15780638da5cb5b146105145780639dd0cc16146105365780639ded06df1461054b578063a3499c731461056b57600080fd5b80636a22d8cc1461049857806379ba5097146104cc5780638291286c146104e157600080fd5b80634385963211610164578063544ffc9c1161013e578063544ffc9c146103c057806356781388146104175780635c60da1b1461043757806360f967f61461046b57600080fd5b8063438596321461031657806349160658146103705780635152ed1d1461039057600080fd5b8063323bef09116101a0578063323bef091461026757806332d0c46d1461029457806333abe58e146102d657806334b64838146102f657600080fd5b8063116191b6146101d25780631a98b2e0146102235780631c93b03a1461024557600080fd5b366101cd57005b600080fd5b3480156101de57600080fd5b506102067f000000000000000000000000000000000000000000000000000000000000000081565b6040516001600160a01b0390911681526020015b60405180910390f35b34801561022f57600080fd5b5061024361023e366004611eff565b6106a7565b005b34801561025157600080fd5b5061025a610799565b60405161021a9190612031565b34801561027357600080fd5b50610287610282366004612067565b610827565b60405161021a9190612082565b3480156102a057600080fd5b506102c87f000000000000000000000000000000000000000000000000000000000000000081565b60405190815260200161021a565b3480156102e257600080fd5b50600254610206906001600160a01b031681565b34801561030257600080fd5b506102c86103113660046120c6565b610893565b34801561032257600080fd5b506103606103313660046120f0565b60008281526005602090815260408083206001600160a01b038516845260030190915290205460ff1692915050565b604051901515815260200161021a565b34801561037c57600080fd5b5061024361038b36600461211c565b6108c4565b34801561039c57600080fd5b506103b06103ab3660046121c0565b6109bb565b60405161021a94939291906121d9565b3480156103cc57600080fd5b506103fc6103db3660046121c0565b60056020526000908152604090208054600182015460029092015490919083565b6040805193845260208401929092529082015260600161021a565b34801561042357600080fd5b506102c861043236600461220a565b610a72565b34801561044357600080fd5b507f360894a13ba1a3210667c828492db98dca3e2076cc3735a920a3ca505d382bbc54610206565b34801561047757600080fd5b5061048b6104863660046121c0565b610bff565b60405161021a9190612275565b3480156104a457600080fd5b506102067f000000000000000000000000000000000000000000000000000000000000000081565b3480156104d857600080fd5b50610243610d08565b3480156104ed57600080fd5b507f6fd43e7cffc31bb581d7421c8698e29aa2bd8e7186a394b85299908b4eb9b1756102c8565b34801561052057600080fd5b5060008051602061284683398151915254610206565b34801561054257600080fd5b5061025a610da3565b34801561055757600080fd5b50610243610566366004612288565b610db0565b34801561057757600080fd5b506102436105863660046122ca565b610e10565b34801561059757600080fd5b506102c86105a63660046121c0565b6110a2565b3480156105b757600080fd5b506103b06105c63660046121c0565b6110c3565b3480156105d757600080fd5b506103606105e63660046121c0565b600090815260046020526040902054151590565b34801561060657600080fd5b5060008051602061286683398151915254610206565b34801561062857600080fd5b5061028761110c565b34801561063d57600080fd5b50610646611164565b60405161021a9190612324565b34801561065f57600080fd5b5061024361066e366004612067565b611284565b34801561067f57600080fd5b506102067f000000000000000000000000000000000000000000000000000000000000000081565b600085856040516106b9929190612386565b604051908190038120631876eed960e01b825291506001600160a01b037f00000000000000000000000000000000000000000000000000000000000000001690631876eed99061071d908e908e908e908e908e9089908d908d908d906004016123bf565b602060405180830381600087803b15801561073757600080fd5b505af115801561074b573d6000803e3d6000fd5b505050506040513d601f19601f8201168201806040525081019061076f919061241e565b61078c57604051631403112d60e21b815260040160405180910390fd5b5050505050505050505050565b600080546107a690612440565b80601f01602080910402602001604051908101604052809291908181526020018280546107d290612440565b801561081f5780601f106107f45761010080835404028352916020019161081f565b820191906000526020600020905b81548152906001019060200180831161080257829003601f168201915b505050505081565b6001600160a01b03811660009081526007602090815260409182902080548351818402810184019094528084526060939283018282801561088757602002820191906000526020600020905b815481526020019060010190808311610873575b50505050509050919050565b600760205281600052604060002081815481106108af57600080fd5b90600052602060002001600091509150505481565b600082826040516108d6929190612386565b604051908190038120635f6970c360e01b825291506001600160a01b037f00000000000000000000000000000000000000000000000000000000000000001690635f6970c390610934908b908b908b908b908b90899060040161247b565b602060405180830381600087803b15801561094e57600080fd5b505af1158015610962573d6000803e3d6000fd5b505050506040513d601f19601f82011682018060405250810190610986919061241e565b6109a357604051631403112d60e21b815260040160405180910390fd5b6109b1878787878787611313565b5050505050505050565b6004602052600090815260409020805460018201546002830154600384018054939460ff909316939192916109ef90612440565b80601f0160208091040260200160405190810160405280929190818152602001828054610a1b90612440565b8015610a685780601f10610a3d57610100808354040283529160200191610a68565b820191906000526020600020905b815481529060010190602001808311610a4b57829003601f168201915b5050505050905084565b6000828152600460205260408120600181015460ff1615610aea5760405162461bcd60e51b815260206004820152602760248201527f44414f536174656c6c6974653a20766f7465206e6f742063757272656e746c796044820152662061637469766560c81b60648201526084015b60405180910390fd5b600084815260046020526040902054610b455760405162461bcd60e51b815260206004820152601760248201527f44414f3a206e6f742061207374617274656420766f74650000000000000000006044820152606401610ae1565b8054604051630748d63560e31b815233600482015260248101919091526000907f00000000000000000000000000000000000000000000000000000000000000006001600160a01b031690633a46b1a89060440160206040518083038186803b158015610bb157600080fd5b505afa158015610bc5573d6000803e3d6000fd5b505050506040513d601f19601f82011682018060405250810190610be991906124bc565b9050610bf785338684611564565b949350505050565b610c2c60405180608001604052806000815260200160001515815260200160008152602001606081525090565b600082815260046020908152604091829020825160808101845281548152600182015460ff16151592810192909252600281015492820192909252600382018054919291606084019190610c7f90612440565b80601f0160208091040260200160405190810160405280929190818152602001828054610cab90612440565b8015610cf85780601f10610ccd57610100808354040283529160200191610cf8565b820191906000526020600020905b815481529060010190602001808311610cdb57829003601f168201915b5050505050815250509050919050565b6000610d206000805160206128668339815191525490565b90506001600160a01b0381163314610d4b576040516349e27cff60e01b815260040160405180910390fd5b6040516001600160a01b038216907f04dba622d284ed0014ee4b9a6a68386be1a4c08a4913ae272de89199cc68616390600090a260006000805160206128668339815191525560008051602061284683398151915255565b600180546107a690612440565b6000610dda7f360894a13ba1a3210667c828492db98dca3e2076cc3735a920a3ca505d382bbc5490565b6001600160a01b03161415610e0257604051635f886e9d60e11b815260040160405180910390fd5b610e0c82826116c7565b5050565b33610e276000805160206128468339815191525490565b6001600160a01b031614610e4e576040516330cd747160e01b815260040160405180910390fd5b306001600160a01b0316638291286c6040518163ffffffff1660e01b815260040160206040518083038186803b158015610e8757600080fd5b505afa158015610e9b573d6000803e3d6000fd5b505050506040513d601f19601f82011682018060405250810190610ebf91906124bc565b846001600160a01b0316638291286c6040518163ffffffff1660e01b815260040160206040518083038186803b158015610ef857600080fd5b505afa158015610f0c573d6000803e3d6000fd5b505050506040513d601f19601f82011682018060405250810190610f3091906124bc565b14610f4e5760405163340aafcd60e11b815260040160405180910390fd5b836001600160a01b03163f8314610f78576040516323e13ec960e21b815260040160405180910390fd5b8015611047576000846001600160a01b0316639ded06df60e01b8484604051602401610fa59291906124d5565b60408051601f198184030181529181526020820180516001600160e01b03166001600160e01b0319909416939093179092529051610fe391906124e9565b600060405180830381855af49150503d806000811461101e576040519150601f19603f3d011682016040523d82523d6000602084013e611023565b606091505b5050905080611045576040516397905dfb60e01b815260040160405180910390fd5b505b6040516001600160a01b038516907fbc7cd75a20ee27fd9adebab32041f755214dbc6bffa90cc0225b39da2e5c2d3b90600090a25050507f360894a13ba1a3210667c828492db98dca3e2076cc3735a920a3ca505d382bbc55565b600381815481106110b257600080fd5b600091825260209091200154905081565b600681815481106110d357600080fd5b6000918252602090912060049091020180546001820154600283015460038401805493955060ff9092169390929091906109ef90612440565b6060600380548060200260200160405190810160405280929190818152602001828054801561115a57602002820191906000526020600020905b815481526020019060010190808311611146575b5050505050905090565b60606006805480602002602001604051908101604052809291908181526020016000905b8282101561127b5783829060005260206000209060040201604051806080016040529081600082015481526020016001820160009054906101000a900460ff16151515158152602001600282015481526020016003820180546111ea90612440565b80601f016020809104026020016040519081016040528092919081815260200182805461121690612440565b80156112635780601f1061123857610100808354040283529160200191611263565b820191906000526020600020905b81548152906001019060200180831161124657829003601f168201915b50505050508152505081526020019060010190611188565b50505050905090565b3361129b6000805160206128468339815191525490565b6001600160a01b0316146112c2576040516330cd747160e01b815260040160405180910390fd5b6040516001600160a01b038216907fd9be0e8e07417e00f2521db636cb53e316fd288f5051f16d2aa2bf0c3938a87690600090a260008051602061286683398151915255565b505050505050505050565b60025460009061132b906001600160a01b031661171c565b90508060405160200161133e91906124e9565b604051602081830303815290604052805190602001208585604051602001611367929190612386565b60405160208183030381529060405280519060200120146113e45760405162461bcd60e51b815260206004820152603160248201527f4f6e6c79206d657373616765732066726f6d207468652068756220636861696e6044820152702063616e2062652072656365697665642160781b6064820152608401610ae1565b3660006113f48460048188612505565b91509150600061143986868080601f01602080910402602001604051908101604052809392919081815260200183838082843760009201919091525061196792505050565b90507f00000000000000000000000000000000000000000000000000000000000000006001600160e01b031916816001600160e01b031916141561148657611481838361196e565b611558565b7f00000000000000000000000000000000000000000000000000000000000000006001600160e01b031916816001600160e01b03191614156115055761148188888080601f016020809104026020016040519081016040528093929190818152602001838380828437600092019190915250879250869150611bf19050565b60405162461bcd60e51b815260206004820152602260248201527f496e76616c6964207061796c6f61643a206e6f2073656c6563746f72206d61746044820152610c6d60f31b6064820152608401610ae1565b50505050505050505050565b60008481526005602090815260408083206001600160a01b0387168452600381019092529091205460ff16156115d55760405162461bcd60e51b8152602060048201526016602482015275111053ce881d9bdd1948185b1c9958591e4818d85cdd60521b6044820152606401610ae1565b6001600160a01b03841660009081526003820160205260408120805460ff1916600117905560ff168360ff161415611626578181600001600082825461161b9190612545565b909155506116c09050565b60ff831660011415611646578181600101600082825461161b9190612545565b60ff831660021415611666578181600201600082825461161b9190612545565b60405162461bcd60e51b815260206004820152602960248201527f44414f536174656c6c6974653a20696e76616c69642076616c756520666f7220604482015268656e756d207479706560b81b6064820152608401610ae1565b5050505050565b60006116d582840184612600565b9050600080546116e490612440565b1590506117035760405162dc149f60e41b815260040160405180910390fd5b8051611716906000906020840190611da2565b50505050565b604051606082811b6bffffffffffffffffffffffff191660208301529060009060340160408051601f198184030181528282528051838301909252601083526f181899199a1a9b1b9c1cb0b131b232b360811b6020840152805190935090919060009061178a906002612635565b611795906002612545565b67ffffffffffffffff8111156117ad576117ad61255d565b6040519080825280601f01601f1916602001820160405280156117d7576020820181803683370190505b509050600360fc1b816000815181106117f2576117f2612654565b60200101906001600160f81b031916908160001a905350600f60fb1b8160018151811061182157611821612654565b60200101906001600160f81b031916908160001a90535060005b8381101561195d5782600486838151811061185857611858612654565b016020015182516001600160f81b031990911690911c60f81c90811061188057611880612654565b01602001516001600160f81b0319168261189b836002612635565b6118a6906002612545565b815181106118b6576118b6612654565b60200101906001600160f81b031916908160001a905350828582815181106118e0576118e0612654565b602091010151815160f89190911c600f1690811061190057611900612654565b01602001516001600160f81b0319168261191b836002612635565b611926906003612545565b8151811061193657611936612654565b60200101906001600160f81b031916908160001a9053506119568161266a565b905061183b565b5095945050505050565b6020015190565b6000808061197e84860186612685565b92509250925061199c83600090815260046020526040902054151590565b15611a015760405162461bcd60e51b815260206004820152602f60248201527f50726f706f73616c204944206d75737420626520756e697175652c20616e642060448201526e1b9bdd08185b1c9958591e481cd95d608a1b6064820152608401610ae1565b600042831015611a675760007f0000000000000000000000000000000000000000000000000000000000000000611a3885426126d5565b611a4291906126ec565b905043811015611a5d57611a5681436126d5565b9150611a61565b4391505b50611a6a565b50435b6040805160808101825282815260006020808301828152838501898152606085018881528a8552600484529590932084518155905160018201805460ff1916911515919091179055915160028301559251805192939192611ad19260038501920190611da2565b505060038054600180820183557fc2575a0e9e593c00f959f8c92f12db2869c3395a3b0502d05e2516446f71f85b90910187905560008781526004602081905260408220600680548086018255935280547ff652222313e28459528d920b65115c16c04f3efc82aaedc97be59f3f377c0d3f93909202928301918255928301547ff652222313e28459528d920b65115c16c04f3efc82aaedc97be59f3f377c0d408301805460ff191660ff909216151591909117905560028301547ff652222313e28459528d920b65115c16c04f3efc82aaedc97be59f3f377c0d4183015592820180549294507ff652222313e28459528d920b65115c16c04f3efc82aaedc97be59f3f377c0d4290910191611be690612440565b611308929190611e26565b6000611bff828401846121c0565b60008181526005602052604080822060018101548154600283015493516024810187905260448101929092526064820152608481019290925292935060a40160408051601f198184030181529181526020820180516001600160e01b031663e14e325160e01b17905251630c93e3bb60e01b81529091506001600160a01b037f00000000000000000000000000000000000000000000000000000000000000001690630c93e3bb9067016345785d8a000090611cc89030906001908c90889084906004016127ae565b6000604051808303818588803b158015611ce157600080fd5b505af1158015611cf5573d6000803e3d6000fd5b5050604051631c92115f60e01b81526001600160a01b037f0000000000000000000000000000000000000000000000000000000000000000169350631c92115f9250611d4b91506001908a90869060040161280c565b600060405180830381600087803b158015611d6557600080fd5b505af1158015611d79573d6000803e3d6000fd5b50505060009384525050600460205250604090206001908101805460ff19169091179055505050565b828054611dae90612440565b90600052602060002090601f016020900481019282611dd05760008555611e16565b82601f10611de957805160ff1916838001178555611e16565b82800160010185558215611e16579182015b82811115611e16578251825591602001919060010190611dfb565b50611e22929150611ea1565b5090565b828054611e3290612440565b90600052602060002090601f016020900481019282611e545760008555611e16565b82601f10611e655780548555611e16565b82800160010185558215611e1657600052602060002091601f016020900482015b82811115611e16578254825591600101919060010190611e86565b5b80821115611e225760008155600101611ea2565b60008083601f840112611ec857600080fd5b50813567ffffffffffffffff811115611ee057600080fd5b602083019150836020828501011115611ef857600080fd5b9250929050565b60008060008060008060008060008060c08b8d031215611f1e57600080fd5b8a35995060208b013567ffffffffffffffff80821115611f3d57600080fd5b611f498e838f01611eb6565b909b50995060408d0135915080821115611f6257600080fd5b611f6e8e838f01611eb6565b909950975060608d0135915080821115611f8757600080fd5b611f938e838f01611eb6565b909750955060808d0135915080821115611fac57600080fd5b50611fb98d828e01611eb6565b9150809450508092505060a08b013590509295989b9194979a5092959850565b60005b83811015611ff4578181015183820152602001611fdc565b838111156117165750506000910152565b6000815180845261201d816020860160208601611fd9565b601f01601f19169290920160200192915050565b6020815260006120446020830184612005565b9392505050565b80356001600160a01b038116811461206257600080fd5b919050565b60006020828403121561207957600080fd5b6120448261204b565b6020808252825182820181905260009190848201906040850190845b818110156120ba5783518352928401929184019160010161209e565b50909695505050505050565b600080604083850312156120d957600080fd5b6120e28361204b565b946020939093013593505050565b6000806040838503121561210357600080fd5b823591506121136020840161204b565b90509250929050565b60008060008060008060006080888a03121561213757600080fd5b87359650602088013567ffffffffffffffff8082111561215657600080fd5b6121628b838c01611eb6565b909850965060408a013591508082111561217b57600080fd5b6121878b838c01611eb6565b909650945060608a01359150808211156121a057600080fd5b506121ad8a828b01611eb6565b989b979a50959850939692959293505050565b6000602082840312156121d257600080fd5b5035919050565b84815283151560208201528260408201526080606082015260006122006080830184612005565b9695505050505050565b6000806040838503121561221d57600080fd5b82359150602083013560ff8116811461223557600080fd5b809150509250929050565b80518252602081015115156020830152604081015160408301526000606082015160806060850152610bf76080850182612005565b6020815260006120446020830184612240565b6000806020838503121561229b57600080fd5b823567ffffffffffffffff8111156122b257600080fd5b6122be85828601611eb6565b90969095509350505050565b600080600080606085870312156122e057600080fd5b6122e98561204b565b935060208501359250604085013567ffffffffffffffff81111561230c57600080fd5b61231887828801611eb6565b95989497509550505050565b6000602080830181845280855180835260408601915060408160051b870101925083870160005b8281101561237957603f19888603018452612367858351612240565b9450928501929085019060010161234b565b5092979650505050505050565b8183823760009101908152919050565b81835281816020850137506000828201602090810191909152601f909101601f19169091010190565b89815260c0602082015260006123d960c083018a8c612396565b82810360408401526123ec81898b612396565b90508660608401528281036080840152612407818688612396565b9150508260a08301529a9950505050505050505050565b60006020828403121561243057600080fd5b8151801515811461204457600080fd5b600181811c9082168061245457607f821691505b6020821081141561247557634e487b7160e01b600052602260045260246000fd5b50919050565b868152608060208201526000612495608083018789612396565b82810360408401526124a8818688612396565b915050826060830152979650505050505050565b6000602082840312156124ce57600080fd5b5051919050565b602081526000610bf7602083018486612396565b600082516124fb818460208701611fd9565b9190910192915050565b6000808585111561251557600080fd5b8386111561252257600080fd5b5050820193919092039150565b634e487b7160e01b600052601160045260246000fd5b600082198211156125585761255861252f565b500190565b634e487b7160e01b600052604160045260246000fd5b600082601f83011261258457600080fd5b813567ffffffffffffffff8082111561259f5761259f61255d565b604051601f8301601f19908116603f011681019082821181831017156125c7576125c761255d565b816040528381528660208588010111156125e057600080fd5b836020870160208301376000602085830101528094505050505092915050565b60006020828403121561261257600080fd5b813567ffffffffffffffff81111561262957600080fd5b610bf784828501612573565b600081600019048311821515161561264f5761264f61252f565b500290565b634e487b7160e01b600052603260045260246000fd5b600060001982141561267e5761267e61252f565b5060010190565b60008060006060848603121561269a57600080fd5b8335925060208401359150604084013567ffffffffffffffff8111156126bf57600080fd5b6126cb86828701612573565b9150509250925092565b6000828210156126e7576126e761252f565b500390565b60008261270957634e487b7160e01b600052601260045260246000fd5b500490565b8054600090600181811c908083168061272857607f831692505b602080841082141561274a57634e487b7160e01b600052602260045260246000fd5b838852602088018280156127655760018114612776576127a1565b60ff198716825282820197506127a1565b60008981526020902060005b8781101561279b57815484820152908601908401612782565b83019850505b5050505050505092915050565b600060018060a01b03808816835260a060208401526127d060a084018861270e565b83810360408501526127e28188612005565b905083810360608501526127f68187612005565b9250508084166080840152509695505050505050565b60608152600061281f606083018661270e565b82810360208401526128318186612005565b90508281036040840152612200818561200556fe02016836a56b71f0d02689e69e326f4f4c1b9057164ef592671cf0d37c8040c09855384122b55936fbfb8ca5120e63c6537a1ac40caf6ae33502b3c5da8c87d1a26469706673582212205075099e3a58417e2e5d2b008e20306d4c1c3323a8e5fef12926cd7ac57dad4b64736f6c63430008090033",
  "linkReferences": {},
  "deployedLinkReferences": {}
}