{
  "_format": "hh-sol-artifact-1",
  "contractName": "ExampleProxy",
  "sourceName": "contracts/ExampleProxy.sol",
  "abi": [
    {
      "inputs": [],
      "name": "AlreadyInitialized",
      "type": "error"
    },
    {
      "inputs": [],
      "name": "InvalidImplementation",
      "type": "error"
    },
    {
      "inputs": [],
      "name": "InvalidOwner",
      "type": "error"
    },
    {
      "inputs": [],
      "name": "NotOwner",
      "type": "error"
    },
    {
      "inputs": [],
      "name": "SetupFailed",
      "type": "error"
    },
    {
      "stateMutability": "payable",
      "type": "fallback"
    },
    {
      "inputs": [],
      "name": "implementation",
      "outputs": [
        {
          "internalType": "address",
          "name": "implementation_",
          "type": "address"
        }
      ],
      "stateMutability": "view",
      "type": "function"
    },
    {
      "inputs": [
        {
          "internalType": "address",
          "name": "implementationAddress",
          "type": "address"
        },
        {
          "internalType": "address",
          "name": "newOwner",
          "type": "address"
        },
        {
          "internalType": "bytes",
          "name": "params",
          "type": "bytes"
        }
      ],
      "name": "init",
      "outputs": [],
      "stateMutability": "nonpayable",
      "type": "function"
    },
    {
      "inputs": [
        {
          "internalType": "bytes",
          "name": "setupParams",
          "type": "bytes"
        }
      ],
      "name": "setup",
      "outputs": [],
      "stateMutability": "nonpayable",
      "type": "function"
    },
    {
      "stateMutability": "payable",
      "type": "receive"
    }
  ],
  "bytecode": "0x608060405234801561001057600080fd5b50337f02016836a56b71f0d02689e69e326f4f4c1b9057164ef592671cf0d37c8040c0556105a0806100436000396000f3fe6080604052600436106100385760003560e01c8063378dfd8e1461007d5780635c60da1b1461009f5780639ded06df146100d85761003f565b3661003f57005b600061005760008051602061054b8339815191525490565b90503660008037600080366000845af43d6000803e808015610078573d6000f35b3d6000fd5b34801561008957600080fd5b5061009d61009836600461036e565b6100f7565b005b3480156100ab57600080fd5b5060008051602061054b833981519152546040516001600160a01b03909116815260200160405180910390f35b3480156100e457600080fd5b5061009d6100f3366004610440565b5050565b7f02016836a56b71f0d02689e69e326f4f4c1b9057164ef592671cf0d37c8040c054336001600160a01b03821614610142576040516330cd747160e01b815260040160405180910390fd5b600061015a60008051602061054b8339815191525490565b6001600160a01b0316146101805760405162dc149f60e41b815260040160405180910390fd5b7f6fd43e7cffc31bb581d7421c8698e29aa2bd8e7186a394b85299908b4eb9b17580856001600160a01b0316638291286c6040518163ffffffff1660e01b815260040160206040518083038186803b1580156101db57600080fd5b505afa1580156101ef573d6000803e3d6000fd5b505050506040513d601f19601f8201168201806040525081019061021391906104b2565b146102315760405163340aafcd60e11b815260040160405180910390fd5b8460008051602061054b83398151915255837f02016836a56b71f0d02689e69e326f4f4c1b9057164ef592671cf0d37c8040c0558251600014610335576000856001600160a01b0316639ded06df60e01b8560405160240161029391906104fb565b60408051601f198184030181529181526020820180516001600160e01b03166001600160e01b03199094169390931790925290516102d1919061052e565b600060405180830381855af49150503d806000811461030c576040519150601f19603f3d011682016040523d82523d6000602084013e610311565b606091505b5050905080610333576040516397905dfb60e01b815260040160405180910390fd5b505b5050505050565b80356001600160a01b038116811461035357600080fd5b919050565b634e487b7160e01b600052604160045260246000fd5b60008060006060848603121561038357600080fd5b61038c8461033c565b925061039a6020850161033c565b9150604084013567ffffffffffffffff808211156103b757600080fd5b818601915086601f8301126103cb57600080fd5b8135818111156103dd576103dd610358565b604051601f8201601f19908116603f0116810190838211818310171561040557610405610358565b8160405282815289602084870101111561041e57600080fd5b8260208601602083013760006020848301015280955050505050509250925092565b6000806020838503121561045357600080fd5b823567ffffffffffffffff8082111561046b57600080fd5b818501915085601f83011261047f57600080fd5b81358181111561048e57600080fd5b8660208285010111156104a057600080fd5b60209290920196919550909350505050565b6000602082840312156104c457600080fd5b5051919050565b60005b838110156104e65781810151838201526020016104ce565b838111156104f5576000848401525b50505050565b602081526000825180602084015261051a8160408501602087016104cb565b601f01601f19169190910160400192915050565b600082516105408184602087016104cb565b919091019291505056fe360894a13ba1a3210667c828492db98dca3e2076cc3735a920a3ca505d382bbca2646970667358221220242fffc6f8a33962fcd20ce5ef55d7c501507c185ea8a359c3fa88ad2cc6d72f64736f6c63430008090033",
  "linkReferences": {},
  "deployedLinkReferences": {}
}