{
  "_format": "hh-sol-artifact-1",
  "contractName": "GovernanceToken",
  "sourceName": "contracts/GovernanceToken.sol",
  "abi": [
    {
      "inputs": [
        {
          "internalType": "address",
          "name": "_gateway",
          "type": "address"
        },
        {
          "internalType": "address",
          "name": "_gasService",
          "type": "address"
        }
      ],
      "stateMutability": "nonpayable",
      "type": "constructor"
    },
    {
      "inputs": [],
      "name": "AlreadyInitialized",
      "type": "error"
    },
    {
      "inputs": [],
      "name": "InvalidAddress",
      "type": "error"
    },
    {
      "inputs": [],
      "name": "InvalidAddressString",
      "type": "error"
    },
    {
      "inputs": [],
      "name": "InvalidCodeHash",
      "type": "error"
    },
    {
      "inputs": [],
      "name": "InvalidImplementation",
      "type": "error"
    },
    {
      "inputs": [],
      "name": "InvalidOwner",
      "type": "error"
    },
    {
      "inputs": [],
      "name": "InvalidShortString",
      "type": "error"
    },
    {
      "inputs": [],
      "name": "NotApprovedByGateway",
      "type": "error"
    },
    {
      "inputs": [],
      "name": "NotOwner",
      "type": "error"
    },
    {
      "inputs": [],
      "name": "NotProxy",
      "type": "error"
    },
    {
      "inputs": [],
      "name": "SetupFailed",
      "type": "error"
    },
    {
      "inputs": [
        {
          "internalType": "string",
          "name": "str",
          "type": "string"
        }
      ],
      "name": "StringTooLong",
      "type": "error"
    },
    {
      "anonymous": false,
      "inputs": [
        {
          "indexed": true,
          "internalType": "address",
          "name": "owner",
          "type": "address"
        },
        {
          "indexed": true,
          "internalType": "address",
          "name": "spender",
          "type": "address"
        },
        {
          "indexed": false,
          "internalType": "uint256",
          "name": "value",
          "type": "uint256"
        }
      ],
      "name": "Approval",
      "type": "event"
    },
    {
      "anonymous": false,
      "inputs": [
        {
          "indexed": true,
          "internalType": "address",
          "name": "delegator",
          "type": "address"
        },
        {
          "indexed": true,
          "internalType": "address",
          "name": "fromDelegate",
          "type": "address"
        },
        {
          "indexed": true,
          "internalType": "address",
          "name": "toDelegate",
          "type": "address"
        }
      ],
      "name": "DelegateChanged",
      "type": "event"
    },
    {
      "anonymous": false,
      "inputs": [
        {
          "indexed": true,
          "internalType": "address",
          "name": "delegate",
          "type": "address"
        },
        {
          "indexed": false,
          "internalType": "uint256",
          "name": "previousBalance",
          "type": "uint256"
        },
        {
          "indexed": false,
          "internalType": "uint256",
          "name": "newBalance",
          "type": "uint256"
        }
      ],
      "name": "DelegateVotesChanged",
      "type": "event"
    },
    {
      "anonymous": false,
      "inputs": [],
      "name": "EIP712DomainChanged",
      "type": "event"
    },
    {
      "anonymous": false,
      "inputs": [
        {
          "indexed": false,
          "internalType": "string",
          "name": "sourceChain",
          "type": "string"
        },
        {
          "indexed": false,
          "internalType": "string",
          "name": "sourceAddress",
          "type": "string"
        }
      ],
      "name": "FalseSender",
      "type": "event"
    },
    {
      "anonymous": false,
      "inputs": [
        {
          "indexed": true,
          "internalType": "address",
          "name": "newOwner",
          "type": "address"
        }
      ],
      "name": "OwnershipTransferStarted",
      "type": "event"
    },
    {
      "anonymous": false,
      "inputs": [
        {
          "indexed": true,
          "internalType": "address",
          "name": "newOwner",
          "type": "address"
        }
      ],
      "name": "OwnershipTransferred",
      "type": "event"
    },
    {
      "anonymous": false,
      "inputs": [
        {
          "indexed": true,
          "internalType": "bytes32",
          "name": "role",
          "type": "bytes32"
        },
        {
          "indexed": true,
          "internalType": "bytes32",
          "name": "previousAdminRole",
          "type": "bytes32"
        },
        {
          "indexed": true,
          "internalType": "bytes32",
          "name": "newAdminRole",
          "type": "bytes32"
        }
      ],
      "name": "RoleAdminChanged",
      "type": "event"
    },
    {
      "anonymous": false,
      "inputs": [
        {
          "indexed": true,
          "internalType": "bytes32",
          "name": "role",
          "type": "bytes32"
        },
        {
          "indexed": true,
          "internalType": "address",
          "name": "account",
          "type": "address"
        },
        {
          "indexed": true,
          "internalType": "address",
          "name": "sender",
          "type": "address"
        }
      ],
      "name": "RoleGranted",
      "type": "event"
    },
    {
      "anonymous": false,
      "inputs": [
        {
          "indexed": true,
          "internalType": "bytes32",
          "name": "role",
          "type": "bytes32"
        },
        {
          "indexed": true,
          "internalType": "address",
          "name": "account",
          "type": "address"
        },
        {
          "indexed": true,
          "internalType": "address",
          "name": "sender",
          "type": "address"
        }
      ],
      "name": "RoleRevoked",
      "type": "event"
    },
    {
      "anonymous": false,
      "inputs": [
        {
          "indexed": true,
          "internalType": "address",
          "name": "from",
          "type": "address"
        },
        {
          "indexed": true,
          "internalType": "address",
          "name": "to",
          "type": "address"
        },
        {
          "indexed": false,
          "internalType": "uint256",
          "name": "value",
          "type": "uint256"
        }
      ],
      "name": "Transfer",
      "type": "event"
    },
    {
      "anonymous": false,
      "inputs": [
        {
          "indexed": true,
          "internalType": "address",
          "name": "newImplementation",
          "type": "address"
        }
      ],
      "name": "Upgraded",
      "type": "event"
    },
    {
      "inputs": [],
      "name": "CLOCK_MODE",
      "outputs": [
        {
          "internalType": "string",
          "name": "",
          "type": "string"
        }
      ],
      "stateMutability": "view",
      "type": "function"
    },
    {
      "inputs": [],
      "name": "DEFAULT_ADMIN_ROLE",
      "outputs": [
        {
          "internalType": "bytes32",
          "name": "",
          "type": "bytes32"
        }
      ],
      "stateMutability": "view",
      "type": "function"
    },
    {
      "inputs": [],
      "name": "DOMAIN_SEPARATOR",
      "outputs": [
        {
          "internalType": "bytes32",
          "name": "",
          "type": "bytes32"
        }
      ],
      "stateMutability": "view",
      "type": "function"
    },
    {
      "inputs": [],
      "name": "acceptOwnership",
      "outputs": [],
      "stateMutability": "nonpayable",
      "type": "function"
    },
    {
      "inputs": [
        {
          "internalType": "address",
          "name": "owner",
          "type": "address"
        },
        {
          "internalType": "address",
          "name": "spender",
          "type": "address"
        }
      ],
      "name": "allowance",
      "outputs": [
        {
          "internalType": "uint256",
          "name": "",
          "type": "uint256"
        }
      ],
      "stateMutability": "view",
      "type": "function"
    },
    {
      "inputs": [
        {
          "internalType": "address",
          "name": "spender",
          "type": "address"
        },
        {
          "internalType": "uint256",
          "name": "amount",
          "type": "uint256"
        }
      ],
      "name": "approve",
      "outputs": [
        {
          "internalType": "bool",
          "name": "",
          "type": "bool"
        }
      ],
      "stateMutability": "nonpayable",
      "type": "function"
    },
    {
      "inputs": [
        {
          "internalType": "address",
          "name": "account",
          "type": "address"
        }
      ],
      "name": "balanceOf",
      "outputs": [
        {
          "internalType": "uint256",
          "name": "",
          "type": "uint256"
        }
      ],
      "stateMutability": "view",
      "type": "function"
    },
    {
      "inputs": [],
      "name": "chainName",
      "outputs": [
        {
          "internalType": "string",
          "name": "",
          "type": "string"
        }
      ],
      "stateMutability": "view",
      "type": "function"
    },
    {
      "inputs": [
        {
          "internalType": "address",
          "name": "account",
          "type": "address"
        },
        {
          "internalType": "uint32",
          "name": "pos",
          "type": "uint32"
        }
      ],
      "name": "checkpoints",
      "outputs": [
        {
          "components": [
            {
              "internalType": "uint32",
              "name": "fromBlock",
              "type": "uint32"
            },
            {
              "internalType": "uint224",
              "name": "votes",
              "type": "uint224"
            }
          ],
          "internalType": "struct ERC20Votes.Checkpoint",
          "name": "",
          "type": "tuple"
        }
      ],
      "stateMutability": "view",
      "type": "function"
    },
    {
      "inputs": [],
      "name": "clock",
      "outputs": [
        {
          "internalType": "uint48",
          "name": "",
          "type": "uint48"
        }
      ],
      "stateMutability": "view",
      "type": "function"
    },
    {
      "inputs": [],
      "name": "contractId",
      "outputs": [
        {
          "internalType": "bytes32",
          "name": "",
          "type": "bytes32"
        }
      ],
      "stateMutability": "pure",
      "type": "function"
    },
    {
      "inputs": [],
      "name": "decimals",
      "outputs": [
        {
          "internalType": "uint8",
          "name": "",
          "type": "uint8"
        }
      ],
      "stateMutability": "view",
      "type": "function"
    },
    {
      "inputs": [
        {
          "internalType": "address",
          "name": "spender",
          "type": "address"
        },
        {
          "internalType": "uint256",
          "name": "subtractedValue",
          "type": "uint256"
        }
      ],
      "name": "decreaseAllowance",
      "outputs": [
        {
          "internalType": "bool",
          "name": "",
          "type": "bool"
        }
      ],
      "stateMutability": "nonpayable",
      "type": "function"
    },
    {
      "inputs": [
        {
          "internalType": "address",
          "name": "delegatee",
          "type": "address"
        }
      ],
      "name": "delegate",
      "outputs": [],
      "stateMutability": "nonpayable",
      "type": "function"
    },
    {
      "inputs": [
        {
          "internalType": "address",
          "name": "delegatee",
          "type": "address"
        },
        {
          "internalType": "uint256",
          "name": "nonce",
          "type": "uint256"
        },
        {
          "internalType": "uint256",
          "name": "expiry",
          "type": "uint256"
        },
        {
          "internalType": "uint8",
          "name": "v",
          "type": "uint8"
        },
        {
          "internalType": "bytes32",
          "name": "r",
          "type": "bytes32"
        },
        {
          "internalType": "bytes32",
          "name": "s",
          "type": "bytes32"
        }
      ],
      "name": "delegateBySig",
      "outputs": [],
      "stateMutability": "nonpayable",
      "type": "function"
    },
    {
      "inputs": [
        {
          "internalType": "address",
          "name": "account",
          "type": "address"
        }
      ],
      "name": "delegates",
      "outputs": [
        {
          "internalType": "address",
          "name": "",
          "type": "address"
        }
      ],
      "stateMutability": "view",
      "type": "function"
    },
    {
      "inputs": [],
      "name": "eip712Domain",
      "outputs": [
        {
          "internalType": "bytes1",
          "name": "fields",
          "type": "bytes1"
        },
        {
          "internalType": "string",
          "name": "name",
          "type": "string"
        },
        {
          "internalType": "string",
          "name": "version",
          "type": "string"
        },
        {
          "internalType": "uint256",
          "name": "chainId",
          "type": "uint256"
        },
        {
          "internalType": "address",
          "name": "verifyingContract",
          "type": "address"
        },
        {
          "internalType": "bytes32",
          "name": "salt",
          "type": "bytes32"
        },
        {
          "internalType": "uint256[]",
          "name": "extensions",
          "type": "uint256[]"
        }
      ],
      "stateMutability": "view",
      "type": "function"
    },
    {
      "inputs": [
        {
          "internalType": "bytes32",
          "name": "commandId",
          "type": "bytes32"
        },
        {
          "internalType": "string",
          "name": "sourceChain",
          "type": "string"
        },
        {
          "internalType": "string",
          "name": "sourceAddress",
          "type": "string"
        },
        {
          "internalType": "bytes",
          "name": "payload",
          "type": "bytes"
        }
      ],
      "name": "execute",
      "outputs": [],
      "stateMutability": "nonpayable",
      "type": "function"
    },
    {
      "inputs": [
        {
          "internalType": "bytes32",
          "name": "commandId",
          "type": "bytes32"
        },
        {
          "internalType": "string",
          "name": "sourceChain",
          "type": "string"
        },
        {
          "internalType": "string",
          "name": "sourceAddress",
          "type": "string"
        },
        {
          "internalType": "bytes",
          "name": "payload",
          "type": "bytes"
        },
        {
          "internalType": "string",
          "name": "tokenSymbol",
          "type": "string"
        },
        {
          "internalType": "uint256",
          "name": "amount",
          "type": "uint256"
        }
      ],
      "name": "executeWithToken",
      "outputs": [],
      "stateMutability": "nonpayable",
      "type": "function"
    },
    {
      "inputs": [],
      "name": "gasService",
      "outputs": [
        {
          "internalType": "contract IAxelarGasService",
          "name": "",
          "type": "address"
        }
      ],
      "stateMutability": "view",
      "type": "function"
    },
    {
      "inputs": [],
      "name": "gateway",
      "outputs": [
        {
          "internalType": "contract IAxelarGateway",
          "name": "",
          "type": "address"
        }
      ],
      "stateMutability": "view",
      "type": "function"
    },
    {
      "inputs": [
        {
          "internalType": "uint256",
          "name": "timepoint",
          "type": "uint256"
        }
      ],
      "name": "getPastTotalSupply",
      "outputs": [
        {
          "internalType": "uint256",
          "name": "",
          "type": "uint256"
        }
      ],
      "stateMutability": "view",
      "type": "function"
    },
    {
      "inputs": [
        {
          "internalType": "address",
          "name": "account",
          "type": "address"
        },
        {
          "internalType": "uint256",
          "name": "timepoint",
          "type": "uint256"
        }
      ],
      "name": "getPastVotes",
      "outputs": [
        {
          "internalType": "uint256",
          "name": "",
          "type": "uint256"
        }
      ],
      "stateMutability": "view",
      "type": "function"
    },
    {
      "inputs": [
        {
          "internalType": "bytes32",
          "name": "role",
          "type": "bytes32"
        }
      ],
      "name": "getRoleAdmin",
      "outputs": [
        {
          "internalType": "bytes32",
          "name": "",
          "type": "bytes32"
        }
      ],
      "stateMutability": "view",
      "type": "function"
    },
    {
      "inputs": [
        {
          "internalType": "address",
          "name": "account",
          "type": "address"
        }
      ],
      "name": "getVotes",
      "outputs": [
        {
          "internalType": "uint256",
          "name": "",
          "type": "uint256"
        }
      ],
      "stateMutability": "view",
      "type": "function"
    },
    {
      "inputs": [
        {
          "internalType": "bytes32",
          "name": "role",
          "type": "bytes32"
        },
        {
          "internalType": "address",
          "name": "account",
          "type": "address"
        }
      ],
      "name": "grantRole",
      "outputs": [],
      "stateMutability": "nonpayable",
      "type": "function"
    },
    {
      "inputs": [
        {
          "internalType": "bytes32",
          "name": "role",
          "type": "bytes32"
        },
        {
          "internalType": "address",
          "name": "account",
          "type": "address"
        }
      ],
      "name": "hasRole",
      "outputs": [
        {
          "internalType": "bool",
          "name": "",
          "type": "bool"
        }
      ],
      "stateMutability": "view",
      "type": "function"
    },
    {
      "inputs": [],
      "name": "implementation",
      "outputs": [
        {
          "internalType": "address",
          "name": "implementation_",
          "type": "address"
        }
      ],
      "stateMutability": "view",
      "type": "function"
    },
    {
      "inputs": [
        {
          "internalType": "address",
          "name": "spender",
          "type": "address"
        },
        {
          "internalType": "uint256",
          "name": "addedValue",
          "type": "uint256"
        }
      ],
      "name": "increaseAllowance",
      "outputs": [
        {
          "internalType": "bool",
          "name": "",
          "type": "bool"
        }
      ],
      "stateMutability": "nonpayable",
      "type": "function"
    },
    {
      "inputs": [
        {
          "internalType": "uint256",
          "name": "amount",
          "type": "uint256"
        }
      ],
      "name": "mint",
      "outputs": [],
      "stateMutability": "nonpayable",
      "type": "function"
    },
    {
      "inputs": [],
      "name": "name",
      "outputs": [
        {
          "internalType": "string",
          "name": "",
          "type": "string"
        }
      ],
      "stateMutability": "view",
      "type": "function"
    },
    {
      "inputs": [
        {
          "internalType": "address",
          "name": "owner",
          "type": "address"
        }
      ],
      "name": "nonces",
      "outputs": [
        {
          "internalType": "uint256",
          "name": "",
          "type": "uint256"
        }
      ],
      "stateMutability": "view",
      "type": "function"
    },
    {
      "inputs": [
        {
          "internalType": "address",
          "name": "account",
          "type": "address"
        }
      ],
      "name": "numCheckpoints",
      "outputs": [
        {
          "internalType": "uint32",
          "name": "",
          "type": "uint32"
        }
      ],
      "stateMutability": "view",
      "type": "function"
    },
    {
      "inputs": [],
      "name": "owner",
      "outputs": [
        {
          "internalType": "address",
          "name": "owner_",
          "type": "address"
        }
      ],
      "stateMutability": "view",
      "type": "function"
    },
    {
      "inputs": [],
      "name": "pendingOwner",
      "outputs": [
        {
          "internalType": "address",
          "name": "owner_",
          "type": "address"
        }
      ],
      "stateMutability": "view",
      "type": "function"
    },
    {
      "inputs": [
        {
          "internalType": "address",
          "name": "owner",
          "type": "address"
        },
        {
          "internalType": "address",
          "name": "spender",
          "type": "address"
        },
        {
          "internalType": "uint256",
          "name": "value",
          "type": "uint256"
        },
        {
          "internalType": "uint256",
          "name": "deadline",
          "type": "uint256"
        },
        {
          "internalType": "uint8",
          "name": "v",
          "type": "uint8"
        },
        {
          "internalType": "bytes32",
          "name": "r",
          "type": "bytes32"
        },
        {
          "internalType": "bytes32",
          "name": "s",
          "type": "bytes32"
        }
      ],
      "name": "permit",
      "outputs": [],
      "stateMutability": "nonpayable",
      "type": "function"
    },
    {
      "inputs": [
        {
          "internalType": "bytes32",
          "name": "role",
          "type": "bytes32"
        },
        {
          "internalType": "address",
          "name": "account",
          "type": "address"
        }
      ],
      "name": "renounceRole",
      "outputs": [],
      "stateMutability": "nonpayable",
      "type": "function"
    },
    {
      "inputs": [
        {
          "internalType": "bytes32",
          "name": "role",
          "type": "bytes32"
        },
        {
          "internalType": "address",
          "name": "account",
          "type": "address"
        }
      ],
      "name": "revokeRole",
      "outputs": [],
      "stateMutability": "nonpayable",
      "type": "function"
    },
    {
      "inputs": [
        {
          "internalType": "bytes",
          "name": "data",
          "type": "bytes"
        }
      ],
      "name": "setup",
      "outputs": [],
      "stateMutability": "nonpayable",
      "type": "function"
    },
    {
      "inputs": [
        {
          "internalType": "bytes4",
          "name": "interfaceId",
          "type": "bytes4"
        }
      ],
      "name": "supportsInterface",
      "outputs": [
        {
          "internalType": "bool",
          "name": "",
          "type": "bool"
        }
      ],
      "stateMutability": "view",
      "type": "function"
    },
    {
      "inputs": [],
      "name": "symbol",
      "outputs": [
        {
          "internalType": "string",
          "name": "",
          "type": "string"
        }
      ],
      "stateMutability": "view",
      "type": "function"
    },
    {
      "inputs": [],
      "name": "tokenId",
      "outputs": [
        {
          "internalType": "bytes32",
          "name": "",
          "type": "bytes32"
        }
      ],
      "stateMutability": "view",
      "type": "function"
    },
    {
      "inputs": [],
      "name": "totalSupply",
      "outputs": [
        {
          "internalType": "uint256",
          "name": "",
          "type": "uint256"
        }
      ],
      "stateMutability": "view",
      "type": "function"
    },
    {
      "inputs": [
        {
          "internalType": "address",
          "name": "to",
          "type": "address"
        },
        {
          "internalType": "uint256",
          "name": "amount",
          "type": "uint256"
        }
      ],
      "name": "transfer",
      "outputs": [
        {
          "internalType": "bool",
          "name": "",
          "type": "bool"
        }
      ],
      "stateMutability": "nonpayable",
      "type": "function"
    },
    {
      "inputs": [
        {
          "internalType": "address",
          "name": "from",
          "type": "address"
        },
        {
          "internalType": "address",
          "name": "to",
          "type": "address"
        },
        {
          "internalType": "uint256",
          "name": "amount",
          "type": "uint256"
        }
      ],
      "name": "transferFrom",
      "outputs": [
        {
          "internalType": "bool",
          "name": "",
          "type": "bool"
        }
      ],
      "stateMutability": "nonpayable",
      "type": "function"
    },
    {
      "inputs": [
        {
          "internalType": "address",
          "name": "newOwner",
          "type": "address"
        }
      ],
      "name": "transferOwnership",
      "outputs": [],
      "stateMutability": "nonpayable",
      "type": "function"
    },
    {
      "inputs": [
        {
          "internalType": "string",
          "name": "destinationChain",
          "type": "string"
        },
        {
          "internalType": "address",
          "name": "destinationAddress",
          "type": "address"
        },
        {
          "internalType": "uint256",
          "name": "amount",
          "type": "uint256"
        }
      ],
      "name": "transferRemote",
      "outputs": [],
      "stateMutability": "payable",
      "type": "function"
    },
    {
      "inputs": [
        {
          "internalType": "address",
          "name": "newImplementation",
          "type": "address"
        },
        {
          "internalType": "bytes32",
          "name": "newImplementationCodeHash",
          "type": "bytes32"
        },
        {
          "internalType": "bytes",
          "name": "params",
          "type": "bytes"
        }
      ],
      "name": "upgrade",
      "outputs": [],
      "stateMutability": "nonpayable",
      "type": "function"
    }
  ],
  "bytecode": "0x6101a06040523480156200001257600080fd5b506040516200454f3803806200454f833981016040819052620000359162000360565b816040518060400160405280600f81526020016e23b7bb32b93730b731b2aa37b5b2b760891b81525080604051806040016040528060018152602001603160f81b8152506040518060400160405280600981526020016825b4b733aa37b5b2b760b91b8152506040518060400160405280600281526020016112d560f21b8152508160039080519060200190620000ce9291906200029d565b508051620000e49060049060208401906200029d565b50505062000102600583620001fa60201b62001a2f1790919060201c565b610120526200011f816006620001fa602090811b62001a2f17901c565b61014052815160208084019190912060e052815190820120610100524660a052620001ad60e05161010051604080517f8b73c3c69bb8fe3d512ecc4cf759cc79239f7b179b0ffacaa9a75d522b39400f60208201529081019290925260608201524660808201523060a082015260009060c00160405160208183030381529060405280519060200120905090565b60805250503060c052506001600160a01b038116620001df5760405163e6c4247b60e01b815260040160405180910390fd5b6001600160a01b03908116610160521661018052506200044f565b60006020835110156200021a5762000212836200024e565b905062000248565b8262000231836200029a60201b62001a661760201c565b81516200024292602001906200029d565b5060ff90505b92915050565b600080829050601f8151111562000285578260405163305a27a960e01b81526004016200027c919062000398565b60405180910390fd5b80516200029282620003f0565b179392505050565b90565b828054620002ab9062000418565b90600052602060002090601f016020900481019282620002cf57600085556200031a565b82601f10620002ea57805160ff19168380011785556200031a565b828001600101855582156200031a579182015b828111156200031a578251825591602001919060010190620002fd565b50620003289291506200032c565b5090565b5b808211156200032857600081556001016200032d565b80516001600160a01b03811681146200035b57600080fd5b919050565b600080604083850312156200037457600080fd5b6200037f8362000343565b91506200038f6020840162000343565b90509250929050565b600060208083528351808285015260005b81811015620003c757858101830151858201604001528201620003a9565b81811115620003da576000604083870101525b50601f01601f1916929092016040019392505050565b8051602080830151919081101562000412576000198160200360031b1b821691505b50919050565b600181811c908216806200042d57607f821691505b602082108114156200041257634e487b7160e01b600052602260045260246000fd5b60805160a05160c05160e0516101005161012051610140516101605161018051614073620004dc600039600081816105b30152610f2901526000818161032101528181610a6601528181610d6d0152610fb40152600061114a0152600061111f01526000611f1b01526000611ef301526000611e4e01526000611e7801526000611ea201526140736000f3fe6080604052600436106102935760003560e01c806370a082311161015a578063a0712d68116100c1578063d505accf1161007a578063d505accf14610868578063d547741f14610888578063dd62ed3e146108a8578063e30c3978146108c8578063f1127ed8146108ea578063f2fde38b1461093457600080fd5b8063a0712d68146107b3578063a217fddf146107d3578063a3499c73146107e8578063a457c2d714610808578063a9059cbb14610828578063c3cda5201461084857600080fd5b80638e539e8c116101135780638e539e8c146106f257806391d148541461071257806391ddadf41461073257806395d89b411461075e5780639ab24eb0146107735780639ded06df1461079357600080fd5b806370a082311461060a57806379ba5097146106405780637ecebe00146106555780638291286c1461067557806384b0196e146106a85780638da5cb5b146106d057600080fd5b80633644e515116101fe57806355d55dc1116101b757806355d55dc114610501578063587cde1e146105145780635c19a95c1461054d5780635c60da1b1461056d5780636a22d8cc146105a15780636fcfff45146105d557600080fd5b80633644e5151461045757806336568abe1461046c578063395093511461048c5780633a46b1a8146104ac57806349160658146104cc5780634bf5d7e9146104ec57600080fd5b80631a98b2e0116102505780631a98b2e0146103945780631c93b03a146103b657806323b872dd146103cb578063248a9ca3146103eb5780632f2ff15d1461041b578063313ce5671461043b57600080fd5b806301ffc9a71461029857806306fdde03146102cd578063095ea7b3146102ef578063116191b61461030f57806317d70f7c1461035b57806318160ddd1461037f575b600080fd5b3480156102a457600080fd5b506102b86102b336600461351b565b610954565b60405190151581526020015b60405180910390f35b3480156102d957600080fd5b506102e261098b565b6040516102c4919061359d565b3480156102fb57600080fd5b506102b861030a3660046135c5565b610a1d565b34801561031b57600080fd5b506103437f000000000000000000000000000000000000000000000000000000000000000081565b6040516001600160a01b0390911681526020016102c4565b34801561036757600080fd5b50610371600e5481565b6040519081526020016102c4565b34801561038b57600080fd5b50600254610371565b3480156103a057600080fd5b506103b46103af36600461363a565b610a35565b005b3480156103c257600080fd5b506102e2610b27565b3480156103d757600080fd5b506102b86103e6366004613714565b610bb5565b3480156103f757600080fd5b50610371610406366004613755565b6000908152600c602052604090206001015490565b34801561042757600080fd5b506103b461043636600461376e565b610bd9565b34801561044757600080fd5b50604051601281526020016102c4565b34801561046357600080fd5b50610371610c03565b34801561047857600080fd5b506103b461048736600461376e565b610c12565b34801561049857600080fd5b506102b86104a73660046135c5565b610c95565b3480156104b857600080fd5b506103716104c73660046135c5565b610cb7565b3480156104d857600080fd5b506103b46104e736600461379e565b610d3c565b3480156104f857600080fd5b506102e2610e33565b6103b461050f366004613842565b610ecb565b34801561052057600080fd5b5061034361052f36600461389f565b6001600160a01b039081166000908152600960205260409020541690565b34801561055957600080fd5b506103b461056836600461389f565b611029565b34801561057957600080fd5b507f360894a13ba1a3210667c828492db98dca3e2076cc3735a920a3ca505d382bbc54610343565b3480156105ad57600080fd5b506103437f000000000000000000000000000000000000000000000000000000000000000081565b3480156105e157600080fd5b506105f56105f036600461389f565b611036565b60405163ffffffff90911681526020016102c4565b34801561061657600080fd5b5061037161062536600461389f565b6001600160a01b031660009081526020819052604090205490565b34801561064c57600080fd5b506103b4611058565b34801561066157600080fd5b5061037161067036600461389f565b6110f3565b34801561068157600080fd5b507f6fd43e7cffc31bb581d7421c8698e29aa2bd8e7186a394b85299908b4eb9b175610371565b3480156106b457600080fd5b506106bd611111565b6040516102c497969594939291906138bc565b3480156106dc57600080fd5b50600080516020613ffe83398151915254610343565b3480156106fe57600080fd5b5061037161070d366004613755565b61119a565b34801561071e57600080fd5b506102b861072d36600461376e565b611201565b34801561073e57600080fd5b5061074761122c565b60405165ffffffffffff90911681526020016102c4565b34801561076a57600080fd5b506102e2611237565b34801561077f57600080fd5b5061037161078e36600461389f565b611246565b34801561079f57600080fd5b506103b46107ae366004613952565b6112c8565b3480156107bf57600080fd5b506103b46107ce366004613755565b611324565b3480156107df57600080fd5b50610371600081565b3480156107f457600080fd5b506103b4610803366004613994565b61132e565b34801561081457600080fd5b506102b86108233660046135c5565b6115c0565b34801561083457600080fd5b506102b86108433660046135c5565b61163b565b34801561085457600080fd5b506103b4610863366004613a06565b611649565b34801561087457600080fd5b506103b4610883366004613a60565b61177f565b34801561089457600080fd5b506103b46108a336600461376e565b6118d7565b3480156108b457600080fd5b506103716108c3366004613ace565b6118fc565b3480156108d457600080fd5b5060008051602061401e83398151915254610343565b3480156108f657600080fd5b5061090a610905366004613afc565b611927565b60408051825163ffffffff1681526020928301516001600160e01b031692810192909252016102c4565b34801561094057600080fd5b506103b461094f36600461389f565b6119ab565b60006001600160e01b03198216637965db0b60e01b148061098557506301ffc9a760e01b6001600160e01b03198316145b92915050565b60606003805461099a90613b33565b80601f01602080910402602001604051908101604052809291908181526020018280546109c690613b33565b8015610a135780601f106109e857610100808354040283529160200191610a13565b820191906000526020600020905b8154815290600101906020018083116109f657829003601f168201915b5050505050905090565b600033610a2b818585611a69565b5060019392505050565b60008585604051610a47929190613b68565b604051908190038120631876eed960e01b825291506001600160a01b037f00000000000000000000000000000000000000000000000000000000000000001690631876eed990610aab908e908e908e908e908e9089908d908d908d90600401613ba1565b602060405180830381600087803b158015610ac557600080fd5b505af1158015610ad9573d6000803e3d6000fd5b505050506040513d601f19601f82011682018060405250810190610afd9190613c00565b610b1a57604051631403112d60e21b815260040160405180910390fd5b5050505050505050505050565b600d8054610b3490613b33565b80601f0160208091040260200160405190810160405280929190818152602001828054610b6090613b33565b8015610bad5780601f10610b8257610100808354040283529160200191610bad565b820191906000526020600020905b815481529060010190602001808311610b9057829003601f168201915b505050505081565b600033610bc3858285611b8d565b610bce858585611c07565b506001949350505050565b6000828152600c6020526040902060010154610bf481611db1565b610bfe8383611dbb565b505050565b6000610c0d611e41565b905090565b6001600160a01b0381163314610c875760405162461bcd60e51b815260206004820152602f60248201527f416363657373436f6e74726f6c3a2063616e206f6e6c792072656e6f756e636560448201526e103937b632b9903337b91039b2b63360891b60648201526084015b60405180910390fd5b610c918282611f6c565b5050565b600033610a2b818585610ca883836118fc565b610cb29190613c38565b611a69565b6000610cc161122c565b65ffffffffffff168210610d135760405162461bcd60e51b815260206004820152601960248201527804552433230566f7465733a20667574757265206c6f6f6b757603c1b6044820152606401610c7e565b6001600160a01b0383166000908152600a60205260409020610d359083611fd3565b9392505050565b60008282604051610d4e929190613b68565b604051908190038120635f6970c360e01b825291506001600160a01b037f00000000000000000000000000000000000000000000000000000000000000001690635f6970c390610dac908b908b908b908b908b908990600401613c50565b602060405180830381600087803b158015610dc657600080fd5b505af1158015610dda573d6000803e3d6000fd5b505050506040513d601f19601f82011682018060405250810190610dfe9190613c00565b610e1b57604051631403112d60e21b815260040160405180910390fd5b610e298787878787876120bc565b5050505050505050565b606043610e3e61122c565b65ffffffffffff1614610e935760405162461bcd60e51b815260206004820152601d60248201527f4552433230566f7465733a2062726f6b656e20636c6f636b206d6f64650000006044820152606401610c7e565b5060408051808201909152601d81527f6d6f64653d626c6f636b6e756d6265722666726f6d3d64656661756c74000000602082015290565b610ed5338261217a565b604080516001600160a01b038416602082015280820183905281518082038301815260609091019091526000610f0a30612184565b90503415610f9d57604051630c93e3bb60e01b81526001600160a01b037f00000000000000000000000000000000000000000000000000000000000000001690630c93e3bb903490610f6a9030908b908b9088908a903390600401613c91565b6000604051808303818588803b158015610f8357600080fd5b505af1158015610f97573d6000803e3d6000fd5b50505050505b604051631c92115f60e01b81526001600160a01b037f00000000000000000000000000000000000000000000000000000000000000001690631c92115f90610fef908990899086908890600401613cf1565b600060405180830381600087803b15801561100957600080fd5b505af115801561101d573d6000803e3d6000fd5b50505050505050505050565b61103333826123cf565b50565b6001600160a01b0381166000908152600a602052604081205461098590612448565b600061107060008051602061401e8339815191525490565b90506001600160a01b038116331461109b576040516349e27cff60e01b815260040160405180910390fd5b6040516001600160a01b038216907f04dba622d284ed0014ee4b9a6a68386be1a4c08a4913ae272de89199cc68616390600090a2600060008051602061401e83398151915255600080516020613ffe83398151915255565b6001600160a01b038116600090815260076020526040812054610985565b6000606080828080836111457f000000000000000000000000000000000000000000000000000000000000000060056124b1565b6111707f000000000000000000000000000000000000000000000000000000000000000060066124b1565b60408051600080825260208201909252600f60f81b9b939a50919850469750309650945092509050565b60006111a461122c565b65ffffffffffff1682106111f65760405162461bcd60e51b815260206004820152601960248201527804552433230566f7465733a20667574757265206c6f6f6b757603c1b6044820152606401610c7e565b610985600b83611fd3565b6000918252600c602090815260408084206001600160a01b0393909316845291905290205460ff1690565b6000610c0d43612555565b60606004805461099a90613b33565b6001600160a01b0381166000908152600a602052604081205480156112b5576001600160a01b0383166000908152600a602052604090208054600019830190811061129357611293613d4c565b60009182526020909120015464010000000090046001600160e01b03166112b8565b60005b6001600160e01b03169392505050565b60006112f27f360894a13ba1a3210667c828492db98dca3e2076cc3735a920a3ca505d382bbc5490565b6001600160a01b0316141561131a57604051635f886e9d60e11b815260040160405180910390fd5b610c9182826125bc565b611033338261260b565b33611345600080516020613ffe8339815191525490565b6001600160a01b03161461136c576040516330cd747160e01b815260040160405180910390fd5b306001600160a01b0316638291286c6040518163ffffffff1660e01b815260040160206040518083038186803b1580156113a557600080fd5b505afa1580156113b9573d6000803e3d6000fd5b505050506040513d601f19601f820116820180604052508101906113dd9190613d62565b846001600160a01b0316638291286c6040518163ffffffff1660e01b815260040160206040518083038186803b15801561141657600080fd5b505afa15801561142a573d6000803e3d6000fd5b505050506040513d601f19601f8201168201806040525081019061144e9190613d62565b1461146c5760405163340aafcd60e11b815260040160405180910390fd5b836001600160a01b03163f8314611496576040516323e13ec960e21b815260040160405180910390fd5b8015611565576000846001600160a01b0316639ded06df60e01b84846040516024016114c3929190613d7b565b60408051601f198184030181529181526020820180516001600160e01b03166001600160e01b03199094169390931790925290516115019190613d97565b600060405180830381855af49150503d806000811461153c576040519150601f19603f3d011682016040523d82523d6000602084013e611541565b606091505b5050905080611563576040516397905dfb60e01b815260040160405180910390fd5b505b6040516001600160a01b038516907fbc7cd75a20ee27fd9adebab32041f755214dbc6bffa90cc0225b39da2e5c2d3b90600090a25050507f360894a13ba1a3210667c828492db98dca3e2076cc3735a920a3ca505d382bbc55565b600033816115ce82866118fc565b90508381101561162e5760405162461bcd60e51b815260206004820152602560248201527f45524332303a2064656372656173656420616c6c6f77616e63652062656c6f77604482015264207a65726f60d81b6064820152608401610c7e565b610bce8286868403611a69565b600033610a2b818585611c07565b834211156116995760405162461bcd60e51b815260206004820152601d60248201527f4552433230566f7465733a207369676e617475726520657870697265640000006044820152606401610c7e565b604080517fe48329057bfd03d55e49b547132e39cffd9c1820ad7b9d4c5307691425d15adf60208201526001600160a01b0388169181019190915260608101869052608081018590526000906117139061170b9060a00160405160208183030381529060405280519060200120612615565b858585612642565b905061171e81612660565b861461176c5760405162461bcd60e51b815260206004820152601960248201527f4552433230566f7465733a20696e76616c6964206e6f6e6365000000000000006044820152606401610c7e565b61177681886123cf565b50505050505050565b834211156117cf5760405162461bcd60e51b815260206004820152601d60248201527f45524332305065726d69743a206578706972656420646561646c696e650000006044820152606401610c7e565b60007f6e71edae12b1b97f4d1f60370fef10105fa2faae0126114a169c64845d6126c98888886117fe8c612660565b6040805160208101969096526001600160a01b0394851690860152929091166060840152608083015260a082015260c0810186905260e001604051602081830303815290604052805190602001209050600061185982612615565b9050600061186982878787612642565b9050896001600160a01b0316816001600160a01b0316146118cc5760405162461bcd60e51b815260206004820152601e60248201527f45524332305065726d69743a20696e76616c6964207369676e617475726500006044820152606401610c7e565b61101d8a8a8a611a69565b6000828152600c60205260409020600101546118f281611db1565b610bfe8383611f6c565b6001600160a01b03918216600090815260016020908152604080832093909416825291909152205490565b60408051808201909152600080825260208201526001600160a01b0383166000908152600a60205260409020805463ffffffff841690811061196b5761196b613d4c565b60009182526020918290206040805180820190915291015463ffffffff8116825264010000000090046001600160e01b0316918101919091529392505050565b336119c2600080516020613ffe8339815191525490565b6001600160a01b0316146119e9576040516330cd747160e01b815260040160405180910390fd5b6040516001600160a01b038216907fd9be0e8e07417e00f2521db636cb53e316fd288f5051f16d2aa2bf0c3938a87690600090a260008051602061401e83398151915255565b6000602083511015611a4b57611a4483612688565b9050610985565b82828151611a5c926020019061348b565b5060ff9050610985565b90565b6001600160a01b038316611acb5760405162461bcd60e51b8152602060048201526024808201527f45524332303a20617070726f76652066726f6d20746865207a65726f206164646044820152637265737360e01b6064820152608401610c7e565b6001600160a01b038216611b2c5760405162461bcd60e51b815260206004820152602260248201527f45524332303a20617070726f766520746f20746865207a65726f206164647265604482015261737360f01b6064820152608401610c7e565b6001600160a01b0383811660008181526001602090815260408083209487168084529482529182902085905590518481527f8c5be1e5ebec7d5bd14f71427d1e84f3dd0314c0f7b2291e5b200ac8c7c3b925910160405180910390a3505050565b6000611b9984846118fc565b90506000198114611c015781811015611bf45760405162461bcd60e51b815260206004820152601d60248201527f45524332303a20696e73756666696369656e7420616c6c6f77616e63650000006044820152606401610c7e565b611c018484848403611a69565b50505050565b6001600160a01b038316611c6b5760405162461bcd60e51b815260206004820152602560248201527f45524332303a207472616e736665722066726f6d20746865207a65726f206164604482015264647265737360d81b6064820152608401610c7e565b6001600160a01b038216611ccd5760405162461bcd60e51b815260206004820152602360248201527f45524332303a207472616e7366657220746f20746865207a65726f206164647260448201526265737360e81b6064820152608401610c7e565b6001600160a01b03831660009081526020819052604090205481811015611d455760405162461bcd60e51b815260206004820152602660248201527f45524332303a207472616e7366657220616d6f756e7420657863656564732062604482015265616c616e636560d01b6064820152608401610c7e565b6001600160a01b03848116600081815260208181526040808320878703905593871680835291849020805487019055925185815290927fddf252ad1be2c89b69c2b068fc378daa952ba7f163c4a11628f55a4df523b3ef910160405180910390a3611c018484846126c6565b61103381336126d1565b611dc58282611201565b610c91576000828152600c602090815260408083206001600160a01b03851684529091529020805460ff19166001179055611dfd3390565b6001600160a01b0316816001600160a01b0316837f2f8788117e7eff1d82e926ec794901d17c78024a50270940304540a733656f0d60405160405180910390a45050565b6000306001600160a01b037f000000000000000000000000000000000000000000000000000000000000000016148015611e9a57507f000000000000000000000000000000000000000000000000000000000000000046145b15611ec457507f000000000000000000000000000000000000000000000000000000000000000090565b610c0d604080517f8b73c3c69bb8fe3d512ecc4cf759cc79239f7b179b0ffacaa9a75d522b39400f60208201527f0000000000000000000000000000000000000000000000000000000000000000918101919091527f000000000000000000000000000000000000000000000000000000000000000060608201524660808201523060a082015260009060c00160405160208183030381529060405280519060200120905090565b611f768282611201565b15610c91576000828152600c602090815260408083206001600160a01b0385168085529252808320805460ff1916905551339285917ff6391f5c32d9c69d2a47ea670b442974b53935d1edc7fd64eb21e047a839171b9190a45050565b81546000908181600581111561202d576000611fee8461272a565b611ff89085613db3565b600088815260209020909150869082015463ffffffff16111561201d5780915061202b565b612028816001613c38565b92505b505b8082101561207a576000612041838361280f565b600088815260209020909150869082015463ffffffff16111561206657809150612074565b612071816001613c38565b92505b5061202d565b80156120a6576000868152602090208101600019015464010000000090046001600160e01b03166120a9565b60005b6001600160e01b03169695505050505050565b306001600160a01b031661210585858080601f01602080910402602001604051908101604052809392919081815260200183838082843760009201919091525061282a92505050565b6001600160a01b031614612155577f03daa0914739c74a32f06993c062b0ec6a2c0b8a39b5a0b8bff2a12ef55b9dc5848486866040516121489493929190613dca565b60405180910390a1612172565b600080612164838501856135c5565b91509150610e2982826129a9565b505050505050565b610c9182826129b3565b604051606082811b6bffffffffffffffffffffffff191660208301529060009060340160408051601f198184030181528282528051838301909252601083526f181899199a1a9b1b9c1cb0b131b232b360811b602084015280519093509091906000906121f2906002613df1565b6121fd906002613c38565b67ffffffffffffffff81111561221557612215613d36565b6040519080825280601f01601f19166020018201604052801561223f576020820181803683370190505b509050600360fc1b8160008151811061225a5761225a613d4c565b60200101906001600160f81b031916908160001a905350600f60fb1b8160018151811061228957612289613d4c565b60200101906001600160f81b031916908160001a90535060005b838110156123c5578260048683815181106122c0576122c0613d4c565b016020015182516001600160f81b031990911690911c60f81c9081106122e8576122e8613d4c565b01602001516001600160f81b03191682612303836002613df1565b61230e906002613c38565b8151811061231e5761231e613d4c565b60200101906001600160f81b031916908160001a9053508285828151811061234857612348613d4c565b602091010151815160f89190911c600f1690811061236857612368613d4c565b01602001516001600160f81b03191682612383836002613df1565b61238e906003613c38565b8151811061239e5761239e613d4c565b60200101906001600160f81b031916908160001a9053506123be81613e10565b90506122a3565b5095945050505050565b6001600160a01b038281166000818152600960208181526040808420805485845282862054949093528787166001600160a01b03198416811790915590519190951694919391928592917f3134e8a2e6d97e929a7e54011ea5485d7d196dd5f0ba4d4ef95803e8e3fc257f9190a4611c018284836129cb565b600063ffffffff8211156124ad5760405162461bcd60e51b815260206004820152602660248201527f53616665436173743a2076616c756520646f65736e27742066697420696e203360448201526532206269747360d01b6064820152608401610c7e565b5090565b606060ff83146124c457611a4483612b08565b8180546124d090613b33565b80601f01602080910402602001604051908101604052809291908181526020018280546124fc90613b33565b80156125495780601f1061251e57610100808354040283529160200191612549565b820191906000526020600020905b81548152906001019060200180831161252c57829003601f168201915b50505050509050610985565b600065ffffffffffff8211156124ad5760405162461bcd60e51b815260206004820152602660248201527f53616665436173743a2076616c756520646f65736e27742066697420696e203460448201526538206269747360d01b6064820152608401610c7e565b60006125ca82840184613e2b565b9050600d80546125d990613b33565b1590506125f85760405162dc149f60e41b815260040160405180910390fd5b8051611c0190600d90602084019061348b565b610c918282612b47565b6000610985612622611e41565b8360405161190160f01b8152600281019290925260228201526042902090565b600080600061265387878787612bd1565b915091506123c581612c95565b6001600160a01b03811660009081526007602052604090208054600181018255905b50919050565b600080829050601f815111156126b3578260405163305a27a960e01b8152600401610c7e919061359d565b80516126be82613edc565b179392505050565b610bfe838383612de3565b6126db8282611201565b610c91576126e881612e15565b6126f3836020612e27565b604051602001612704929190613f00565b60408051601f198184030181529082905262461bcd60e51b8252610c7e9160040161359d565b60008161273957506000919050565b6000600161274684612fc3565b901c6001901b9050600181848161275f5761275f613f75565b048201901c9050600181848161277757612777613f75565b048201901c9050600181848161278f5761278f613f75565b048201901c905060018184816127a7576127a7613f75565b048201901c905060018184816127bf576127bf613f75565b048201901c905060018184816127d7576127d7613f75565b048201901c905060018184816127ef576127ef613f75565b048201901c9050610d358182858161280957612809613f75565b04613057565b600061281e6002848418613f8b565b610d3590848416613c38565b6000808290506000808251602a14158061286a57508260008151811061285257612852613d4c565b6020910101516001600160f81b031916600360fc1b14155b8061289b57508260018151811061288357612883613d4c565b6020910101516001600160f81b031916600f60fb1b14155b156128b957604051636fa478cf60e11b815260040160405180910390fd5b60025b602a81101561299f578381815181106128d7576128d7613d4c565b016020015160f81c9150606182108015906128f6575060668260ff1611155b1561290d57612906605783613fad565b9150612976565b60418260ff1610158015612925575060468260ff1611155b1561293557612906603783613fad565b60308260ff161015801561294d575060398260ff1611155b1561295d57612906603083613fad565b604051636fa478cf60e11b815260040160405180910390fd5b6002612983826029613db3565b60ff8416911b1b929092179161299881613e10565b90506128bc565b5090949350505050565b610c91828261260b565b6129bd828261306d565b611c01600b6131a6836131b2565b816001600160a01b0316836001600160a01b0316141580156129ed5750600081115b15610bfe576001600160a01b03831615612a7b576001600160a01b0383166000908152600a602052604081208190612a28906131a6856131b2565b91509150846001600160a01b03167fdec2bacdd2f05b59de34da9b523dff8be42e5e38e818c82fdb0bae774387a7248383604051612a70929190918252602082015260400190565b60405180910390a250505b6001600160a01b03821615610bfe576001600160a01b0382166000908152600a602052604081208190612ab190613327856131b2565b91509150836001600160a01b03167fdec2bacdd2f05b59de34da9b523dff8be42e5e38e818c82fdb0bae774387a7248383604051612af9929190918252602082015260400190565b60405180910390a25050505050565b60606000612b1583613333565b604080516020808252818301909252919250600091906020820181803683375050509182525060208101929092525090565b612b51828261335b565b6002546001600160e01b031015612bc35760405162461bcd60e51b815260206004820152603060248201527f4552433230566f7465733a20746f74616c20737570706c79207269736b73206f60448201526f766572666c6f77696e6720766f74657360801b6064820152608401610c7e565b611c01600b613327836131b2565b6000807f7fffffffffffffffffffffffffffffff5d576e7357a4501ddfe92f46681b20a0831115612c085750600090506003612c8c565b6040805160008082526020820180845289905260ff881692820192909252606081018690526080810185905260019060a0016020604051602081039080840390855afa158015612c5c573d6000803e3d6000fd5b5050604051601f1901519150506001600160a01b038116612c8557600060019250925050612c8c565b9150600090505b94509492505050565b6000816004811115612ca957612ca9613fd0565b1415612cb25750565b6001816004811115612cc657612cc6613fd0565b1415612d145760405162461bcd60e51b815260206004820152601860248201527f45434453413a20696e76616c6964207369676e617475726500000000000000006044820152606401610c7e565b6002816004811115612d2857612d28613fd0565b1415612d765760405162461bcd60e51b815260206004820152601f60248201527f45434453413a20696e76616c6964207369676e6174757265206c656e677468006044820152606401610c7e565b6003816004811115612d8a57612d8a613fd0565b14156110335760405162461bcd60e51b815260206004820152602260248201527f45434453413a20696e76616c6964207369676e6174757265202773272076616c604482015261756560f01b6064820152608401610c7e565b6001600160a01b03838116600090815260096020526040808220548584168352912054610bfe929182169116836129cb565b60606109856001600160a01b03831660145b60606000612e36836002613df1565b612e41906002613c38565b67ffffffffffffffff811115612e5957612e59613d36565b6040519080825280601f01601f191660200182016040528015612e83576020820181803683370190505b509050600360fc1b81600081518110612e9e57612e9e613d4c565b60200101906001600160f81b031916908160001a905350600f60fb1b81600181518110612ecd57612ecd613d4c565b60200101906001600160f81b031916908160001a9053506000612ef1846002613df1565b612efc906001613c38565b90505b6001811115612f74576f181899199a1a9b1b9c1cb0b131b232b360811b85600f1660108110612f3057612f30613d4c565b1a60f81b828281518110612f4657612f46613d4c565b60200101906001600160f81b031916908160001a90535060049490941c93612f6d81613fe6565b9050612eff565b508315610d355760405162461bcd60e51b815260206004820181905260248201527f537472696e67733a20686578206c656e67746820696e73756666696369656e746044820152606401610c7e565b600080608083901c15612fd857608092831c92015b604083901c15612fea57604092831c92015b602083901c15612ffc57602092831c92015b601083901c1561300e57601092831c92015b600883901c1561302057600892831c92015b600483901c1561303257600492831c92015b600283901c1561304457600292831c92015b600183901c156109855760010192915050565b60008183106130665781610d35565b5090919050565b6001600160a01b0382166130cd5760405162461bcd60e51b815260206004820152602160248201527f45524332303a206275726e2066726f6d20746865207a65726f206164647265736044820152607360f81b6064820152608401610c7e565b6001600160a01b038216600090815260208190526040902054818110156131415760405162461bcd60e51b815260206004820152602260248201527f45524332303a206275726e20616d6f756e7420657863656564732062616c616e604482015261636560f01b6064820152608401610c7e565b6001600160a01b0383166000818152602081815260408083208686039055600280548790039055518581529192917fddf252ad1be2c89b69c2b068fc378daa952ba7f163c4a11628f55a4df523b3ef910160405180910390a3610bfe836000846126c6565b6000610d358284613db3565b825460009081908181156131ff5760008781526020902082016000190160408051808201909152905463ffffffff8116825264010000000090046001600160e01b03166020820152613214565b60408051808201909152600080825260208201525b905080602001516001600160e01b0316935061323484868863ffffffff16565b925060008211801561325e575061324961122c565b65ffffffffffff16816000015163ffffffff16145b156132a35761326c83613422565b60008881526020902083016000190180546001600160e01b03929092166401000000000263ffffffff90921691909117905561331d565b8660405180604001604052806132c76132ba61122c565b65ffffffffffff16612448565b63ffffffff1681526020016132db86613422565b6001600160e01b0390811690915282546001810184556000938452602093849020835194909301519091166401000000000263ffffffff909316929092179101555b5050935093915050565b6000610d358284613c38565b600060ff8216601f81111561098557604051632cd44ac360e21b815260040160405180910390fd5b6001600160a01b0382166133b15760405162461bcd60e51b815260206004820152601f60248201527f45524332303a206d696e7420746f20746865207a65726f2061646472657373006044820152606401610c7e565b80600260008282546133c39190613c38565b90915550506001600160a01b038216600081815260208181526040808320805486019055518481527fddf252ad1be2c89b69c2b068fc378daa952ba7f163c4a11628f55a4df523b3ef910160405180910390a3610c91600083836126c6565b60006001600160e01b038211156124ad5760405162461bcd60e51b815260206004820152602760248201527f53616665436173743a2076616c756520646f65736e27742066697420696e20326044820152663234206269747360c81b6064820152608401610c7e565b82805461349790613b33565b90600052602060002090601f0160209004810192826134b957600085556134ff565b82601f106134d257805160ff19168380011785556134ff565b828001600101855582156134ff579182015b828111156134ff5782518255916020019190600101906134e4565b506124ad9291505b808211156124ad5760008155600101613507565b60006020828403121561352d57600080fd5b81356001600160e01b031981168114610d3557600080fd5b60005b83811015613560578181015183820152602001613548565b83811115611c015750506000910152565b60008151808452613589816020860160208601613545565b601f01601f19169290920160200192915050565b602081526000610d356020830184613571565b6001600160a01b038116811461103357600080fd5b600080604083850312156135d857600080fd5b82356135e3816135b0565b946020939093013593505050565b60008083601f84011261360357600080fd5b50813567ffffffffffffffff81111561361b57600080fd5b60208301915083602082850101111561363357600080fd5b9250929050565b60008060008060008060008060008060c08b8d03121561365957600080fd5b8a35995060208b013567ffffffffffffffff8082111561367857600080fd5b6136848e838f016135f1565b909b50995060408d013591508082111561369d57600080fd5b6136a98e838f016135f1565b909950975060608d01359150808211156136c257600080fd5b6136ce8e838f016135f1565b909750955060808d01359150808211156136e757600080fd5b506136f48d828e016135f1565b9150809450508092505060a08b013590509295989b9194979a5092959850565b60008060006060848603121561372957600080fd5b8335613734816135b0565b92506020840135613744816135b0565b929592945050506040919091013590565b60006020828403121561376757600080fd5b5035919050565b6000806040838503121561378157600080fd5b823591506020830135613793816135b0565b809150509250929050565b60008060008060008060006080888a0312156137b957600080fd5b87359650602088013567ffffffffffffffff808211156137d857600080fd5b6137e48b838c016135f1565b909850965060408a01359150808211156137fd57600080fd5b6138098b838c016135f1565b909650945060608a013591508082111561382257600080fd5b5061382f8a828b016135f1565b989b979a50959850939692959293505050565b6000806000806060858703121561385857600080fd5b843567ffffffffffffffff81111561386f57600080fd5b61387b878288016135f1565b909550935050602085013561388f816135b0565b9396929550929360400135925050565b6000602082840312156138b157600080fd5b8135610d35816135b0565b60ff60f81b881681526000602060e0818401526138dc60e084018a613571565b83810360408501526138ee818a613571565b606085018990526001600160a01b038816608086015260a0850187905284810360c0860152855180825283870192509083019060005b8181101561394057835183529284019291840191600101613924565b50909c9b505050505050505050505050565b6000806020838503121561396557600080fd5b823567ffffffffffffffff81111561397c57600080fd5b613988858286016135f1565b90969095509350505050565b600080600080606085870312156139aa57600080fd5b84356139b5816135b0565b935060208501359250604085013567ffffffffffffffff8111156139d857600080fd5b6139e4878288016135f1565b95989497509550505050565b803560ff81168114613a0157600080fd5b919050565b60008060008060008060c08789031215613a1f57600080fd5b8635613a2a816135b0565b95506020870135945060408701359350613a46606088016139f0565b92506080870135915060a087013590509295509295509295565b600080600080600080600060e0888a031215613a7b57600080fd5b8735613a86816135b0565b96506020880135613a96816135b0565b95506040880135945060608801359350613ab2608089016139f0565b925060a0880135915060c0880135905092959891949750929550565b60008060408385031215613ae157600080fd5b8235613aec816135b0565b91506020830135613793816135b0565b60008060408385031215613b0f57600080fd5b8235613b1a816135b0565b9150602083013563ffffffff8116811461379357600080fd5b600181811c90821680613b4757607f821691505b6020821081141561268257634e487b7160e01b600052602260045260246000fd5b8183823760009101908152919050565b81835281816020850137506000828201602090810191909152601f909101601f19169091010190565b89815260c060208201526000613bbb60c083018a8c613b78565b8281036040840152613bce81898b613b78565b90508660608401528281036080840152613be9818688613b78565b9150508260a08301529a9950505050505050505050565b600060208284031215613c1257600080fd5b81518015158114610d3557600080fd5b634e487b7160e01b600052601160045260246000fd5b60008219821115613c4b57613c4b613c22565b500190565b868152608060208201526000613c6a608083018789613b78565b8281036040840152613c7d818688613b78565b915050826060830152979650505050505050565b600060018060a01b03808916835260a06020840152613cb460a08401888a613b78565b8381036040850152613cc68188613571565b90508381036060850152613cda8187613571565b925050808416608084015250979650505050505050565b606081526000613d05606083018688613b78565b8281036020840152613d178186613571565b90508281036040840152613d2b8185613571565b979650505050505050565b634e487b7160e01b600052604160045260246000fd5b634e487b7160e01b600052603260045260246000fd5b600060208284031215613d7457600080fd5b5051919050565b602081526000613d8f602083018486613b78565b949350505050565b60008251613da9818460208701613545565b9190910192915050565b600082821015613dc557613dc5613c22565b500390565b604081526000613dde604083018688613b78565b8281036020840152613d2b818587613b78565b6000816000190483118215151615613e0b57613e0b613c22565b500290565b6000600019821415613e2457613e24613c22565b5060010190565b600060208284031215613e3d57600080fd5b813567ffffffffffffffff80821115613e5557600080fd5b818401915084601f830112613e6957600080fd5b813581811115613e7b57613e7b613d36565b604051601f8201601f19908116603f01168101908382118183101715613ea357613ea3613d36565b81604052828152876020848701011115613ebc57600080fd5b826020860160208301376000928101602001929092525095945050505050565b805160208083015191908110156126825760001960209190910360031b1b16919050565b7f416363657373436f6e74726f6c3a206163636f756e7420000000000000000000815260008351613f38816017850160208801613545565b7001034b99036b4b9b9b4b733903937b6329607d1b6017918401918201528351613f69816028840160208801613545565b01602801949350505050565b634e487b7160e01b600052601260045260246000fd5b600082613fa857634e487b7160e01b600052601260045260246000fd5b500490565b600060ff821660ff841680821015613fc757613fc7613c22565b90039392505050565b634e487b7160e01b600052602160045260246000fd5b600081613ff557613ff5613c22565b50600019019056fe02016836a56b71f0d02689e69e326f4f4c1b9057164ef592671cf0d37c8040c09855384122b55936fbfb8ca5120e63c6537a1ac40caf6ae33502b3c5da8c87d1a26469706673582212200d46f7790be433663bc96b462144484287c1d4c50be8855d1ab876d26006515a64736f6c63430008090033",
  "linkReferences": {},
  "deployedLinkReferences": {}
}